:020000040800F2
:10000000C01E002001010008ED1700081D160008A1
:10001000E91700089D010008A91800080000000069
:10002000000000000000000000000000411800086F
:10003000A101000800000000F11700086D18000879
:100040001B0100081B0100081B0100081B01000820
:100050001B0100081B0100081B0100081B01000810
:100060001B0100081B0100081B0100081B01000800
:100070001B0100081B0100081B0100081B010008F0
:100080001B0100081B0100081B0100081B010008E0
:100090001B0100081B0100081B0100081B010008D0
:1000A0001B010008911800081B0100081B01000833
:1000B0009D1800081B0100081B0100081B01000817
:1000C0001B0100081B0100081B0100081B010008A0
:1000D0001B0100081B0100081B0100081B01000890
:1000E0001B0100081B0100081B010008DFF80CD0F1
:1000F00000F03CF800480047AD180008C01E002082
:100100000648804706480047FEE7FEE7FEE7FEE7B1
:10011000FEE7FEE7FEE7FEE7FEE7FEE78D180008D4
:10012000ED00000840EA01039B0703D009E008C97D
:10013000121F08C0042AFAD203E011F8013B00F8AC
:10014000013B521EF9D27047D2B201E000F8012BF8
:10015000491EFBD270470022F6E710B513460A4647
:1001600004461946FFF7F0FF204610BD1CB50948AC
:100170000090094801900546009C06E0E06840F0C8
:10018000010394E8070098471034AC42F6D3FFF718
:10019000B1FF00005838000878380008FEE700007A
:1001A00070470000EFF3108072B600BFFEE700005A
:1001B000002804BF01207047B0B5044690F8200025
:1001C00010B9204600F06EF82068016841F0010186
:1001D000016000F0B5F9054620684168C90705D1FE
:1001E00000F0AEF9401B0B28F6D310E0016821F0B7
:1001F0000201016000F0A4F9054600BF20684168D3
:1002000089070DD500F09CF9401B0B28F6D3606AD6
:10021000052140F400306062012084F82010B0BD58
:10022000217E0268012922F0800208BF803202602C
:10023000617E0268012922F0400208BF403202605C
:10024000A17E0268012922F0200208BF203202604C
:10025000E17E0268012922F0100218BF103202600C
:10026000217F0268012922F0080208BF08320260DB
:10027000617F0268012922F0040208BF0432026093
:10028000D4E901C2D4E9033561691A432A43114311
:10029000ACF101021143C16100200121606284F8C8
:1002A0002010B0BDB0B586B040F60004C4F2010421
:1002B0000068A4F52442002190420591CDE9031184
:1002C000029101D006B0B0BD41F21800C4F20200A4
:1002D000426802AD42F000724260426802F0007271
:1002E0000192019A026842F004020260006800F084
:1002F0000400019001984FF40060CDE902010491DF
:100300002046294600F00EF84FF48050029002205B
:100310000390032005902046294600F003F806B01C
:10032000B0BD00002DE9F04F82B00E68002E00F045
:10033000FD8041F20042C4F20102042340F2004E6B
:10034000904208BF03234FF6FF7CC4F2010E0093D6
:1003500000240123C1F2100C4FF0000A4FF00009F5
:100360004BE000BF41F20002C4F20102009F904244
:1003700008BF022704F00C030F229A402BEA020266
:1003800007FA03F34FEA9A051A4346F825204E6808
:1003900040F20C45F202DEF8082054BF22EA0802BF
:1003A00042EA0802C4F20105CEF808202A68B30226
:1003B00054BF22EA080242EA08022A60B303DEF8C8
:1003C000042054BF22EA080242EA0802F303CEF8EE
:1003D0000420DEF800204FF0010354BF22EA080297
:1003E00042EA0802CEF800200E680AF1010A36FA45
:1003F0000AF204F1040400F0998003FA0AFB16EAF9
:100400000B08F1D04E68664512DC122E56D8DFE894
:1004100006F0350B4D4955555555555555555555BE
:1004200055555545510000BFD1F80C9046E000BF2E
:100430004FF6FF72C1F2210296420FDC0022C1F298
:10044000110296421AD00022C1F21202964215D031
:100450000022C1F22102964210D02FE00022C1F208
:10046000220296420AD00022C1F23102964205D001
:100470000022C1F23202964220D100BF8A684AB1FE
:10048000012A14BFC0F814B0C0F810B04FF008092A
:1004900014E000BF4FF0040910E000BFCA6802F189
:1004A00004090BE04FF0000908E000BFCA6802F140
:1004B000080903E0CA6802F10C0900BF024626469B
:1004C000B8F5807F24BF0432203E17680F25B54061
:1004D00027EA050509FA06F635431560CA79D206FA
:1004E0007FF582AF41F21803C4F202031A68AEF539
:1004F0007E7642F001021A601A6802F0010201924F
:10050000019A2AF0030256F802B040F60002C4F243
:100510000102904208D040F60042C4F2010290422B
:100520007FF420AF012725E7002723E702B0BDE8CD
:10053000F08F0000002A08BF090401617047000025
:1005400041F2C030C2F2000000687047002804BFCA
:1005500001207047F0B581B0044690F83D0028B9FD
:10056000002084F83C00204600F0A2F8242084F803
:100570003D002068016821F001010160016841F43B
:1005800000410160016821F40041016000F0C8FAF7
:10059000636848F2A16CC0F2010C40F60011C0F291
:1005A0003D0163453CBF48F28041C0F21E018842D4
:1005B00002D2012001B0F0BD4DF68361C4F21B31BF
:1005C000A0FB01122168970CD1F804E04FF4967655
:1005D0002EF03F0545EA92454D60774348F63816C0
:1005E0000D6AC0F24106A7FB067625F03F0763457A
:1005F00038BF960C721C3A430A62CA6948F2A06678
:100600004CF6FF77C0F20106B34222EA07020BD88C
:1006100001385B00B0FBF3F001306FF31F300428AA
:1006200098BF04201BE000BFA768013857B1192705
:100630007B43B0FBF3F001306FF31F3070B100F576
:10064000804007E003EB4303B0FBF3F001306FF3AE
:100650001F3018B100F5004001E000BF0120104339
:10066000C8610868D4E9072320F0C000104318438C
:100670000860886848F2FF3204F10C0790438CCF81
:1006800018431043A6698860C86820F0FF0038430B
:100690003043C860086840F0010008600020202155
:1006A000206484F83D10206384F83E0001B0F0BD62
:1006B00010B586B0006845F20041C4F200018842DE
:1006C0004FF00000CDE90400CDE9020002D006B0F1
:1006D00010BD00BF41F21804C4F20204206802A950
:1006E00040F008002060206800F0080001900198A8
:1006F0004FF440700290122003900320059040F6C2
:100700000040C4F20100FFF70DFE0420C4F2010016
:10071000016841F0E06141F002010160606840F46D
:1007200000106060606800F400100190019806B04D
:1007300010BD000040F2000041F2C031C2F20000E2
:10074000C2F2000100780A68104408607047000097
:1007500080B542F20000C4F20200016841F01001CD
:100760000160032000F0C2F80F2000F005F800F04F
:1007700057F8002080BD0000B0B586B041F21801E6
:10078000C4F202010A68054642F400620A60096880
:1007900001A801F4006101910199694600F09EF9F8
:1007A00000F0D2F94DF68361C4F21B31A0FB0101C8
:1007B0004FF0FF3000EB914140F2981042F60042BA
:1007C000C2F20000C4F2010240F2E7330024C0E9A3
:1007D0000021C0E902430461846100F00DFC08B10E
:1007E00006B0B0BD40F29810C2F2000000F0A2FCCA
:1007F0000028F5D1192000F03BF80F2D0CD8192056
:100800002946002200F046F840F204010020C2F21E
:1008100000010D6006B0B0BD012006B0B0BD000003
:1008200080B582B041F21800C4F2020001680022D3
:1008300041F001010160016801F00101019101999C
:10084000416841F08051416040680F2100F08050C4
:10085000009000986FF0010000F01CF80420C4F232
:1008600001000168022262F31A61016002B080BDDA
:10087000002848BF704700F01F01012202FA01F171
:100880001C2202EAD0004EF20012CEF20002815089
:100890007047000010B54EF60C5CCEF2000CDCF890
:1008A0000030C3F3022E8EF00704042C28BF04246A
:1008B000BEF103034FF0FF3E0EFA04F438BF0023ED
:1008C000A14399400EFA03F39A43114300F00F023B
:1008D00000F160430901043A03F5644362440028CF
:1008E00048BF02F10C03197010BD00004EF60C5108
:1008F000CEF200010A684FF6FF031A4060F30A22A5
:1009000042F0806040F0FD7008607047002804BF2E
:10091000012070472DE9F04381B042F20008C4F293
:1009200002080446D8F800000D4600F00700814296
:100930000DD9D8F8000020F007002843C8F80000BF
:10094000D8F8000000F00700A84240F0808020683E
:1009500041F204098107C4F2020917D5410705D500
:10096000D9F8001041F4E061C9F80010010705D57D
:10097000D9F8001041F46051C9F80010D9F80010FE
:10098000A26821F0F0011143C9F80010C00755D149
:10099000D8F8000000F0070085420CD2D8F800001B
:1009A00020F007002843C8F80000D8F8000000F045
:1009B0000700A8424BD12068410707D5D9F800109D
:1009C000E26821F4E0611143C9F80010000708D57E
:1009D000D9F80000216920F4605040EAC100C9F84C
:1009E0000000D9F80010C1F3810242F20040C0F2C9
:1009F000F400DFE802F00307550300BF41F20020D6
:100A0000C0F27A00D9F8001043F2F672C1F3031174
:100A1000C0F60002515C40F2080220FA01F140F2F7
:100A20000400C2F200000068C2F200021160FFF789
:100A3000A3FE002001B0BDE8F08300BF606859F854
:100A4000041C022808D0012826D1890306D40120DD
:100A500001B0BDE8F08300BF8901F8D5D9F80010D6
:100A600021F003010843C9F80000FFF769FD0646BD
:100A700041F28837D9F80000616800F00C00B0EB53
:100A8000810F3FF485AFFFF75BFD801BB842F1D9C2
:100A9000032001B0BDE8F0838907D8D5DEE700BFA9
:100AA00043F61003C1F38342C0F600039A5CC90306
:100AB00006D440F60010C0F23D005043A2E700BF4C
:100AC000D9F8001043F60E03C1F34041C0F600030D
:100AD000595C5043B0FBF1F094E700000F22026034
:100AE00041F20402C4F20202136803F003034360FC
:100AF000136803F0F0038360136803F4E063C360DA
:100B000012684FF4E06303EAD202026142F200008D
:100B1000C4F20200006800F007000860704700009F
:100B200040F2080041F20401C2F20000C4F20201E6
:100B30000068096843F60602C1F30221C0F600020C
:100B4000515CC8407047000040F2080041F20401C7
:100B5000C2F20000C4F202010068096843F606020E
:100B6000C1F3C221C0F60002515CC84070470000CA
:100B7000002804BF012070472DE9F04182B00446EF
:100B8000007841F20006C007C4F202060CD070687B
:100B900000F00C00042840F081803068800303D509
:100BA0006068002800F04681207880071BD57068B7
:100BB00010F00C0F09D0706800F00C00082840F00D
:100BC00087807068C00300F183803068800703D598
:100BD0002069012840F02E813068616920F0F8001A
:100BE00040EAC10030602078000713D42078400725
:100BF0002CD4E569002D00F01881706800F00C001D
:100C0000082840F0A780012D40F00481012002B0A7
:100C1000BDE8F081A069002800F084800020C4F2C3
:100C200042200121C0F88014FFF78AFC054600BF6E
:100C3000706A800700F1B280FFF782FC401B022837
:100C4000F6D9032002B0BDE8F08100BFF0695FEA89
:100C5000C00808D4F06940F08050F061F06900F0FD
:100C600080500090009847F20007C4F200073868EF
:100C7000C00549D4386840F480703860FFF760FCE4
:100C8000054600BF3868C0053ED4FFF759FC401B3D
:100C90006428F7D9032002B0BDE8F081706800F045
:100CA0000C00082803D17068C0033FF576AF616877
:100CB0003068002900F00C81B1F5A02F00F0008110
:100CC000B1F5803F40F01A8140F480301CE100BF54
:100CD0002069002840F20000C4F2422000F0888021
:100CE00001210160FFF72CFC054600BF306880073A
:100CF0003FF572AFFFF724FC401B0228F6D9032012
:100D000002B0BDE8F08100BFE168306A002900F060
:100D10009D80052900F09280012940F0AF8040F0CD
:100D20000100B1E00020C4F242200021C0F880148C
:100D3000FFF706FC054600BF706A80077FF556AFD7
:100D4000FFF7FEFB401B0228F6D9032002B0BDE8E6
:100D5000F08100BF0027C4F2422700203866FFF769
:100D6000EFFB022D05460DD13068800140F1DE8099
:100D7000FFF7E6FB401B02284FF00300F4D902B056
:100D8000BDE8F081306880014FD5FFF7D9FB401BEB
:100D900002284FF00300F5D9F1E700BF40F2080048
:100DA000C2F20000006844F6D351C1F26201A0FB18
:100DB0000101480A019000BF00BF0198411E0028B0
:100DC00001913FF413AF00BF0198411E002801912B
:100DD0003FF40CAF00BF0198411E002801913FF481
:100DE00005AF00BF0198411E00280191E4D1FDE646
:100DF00000210160FFF7A4FB054600BF30688007B3
:100E00007FF5F1AEFFF79CFB401B02284FF003007B
:100E1000F4D9B4E77068216A00F480328A4209D1BB
:100E2000616A00F47010884204D1002002B0BDE86D
:100E3000F08100BF012002B0BDE8F08140F0040065
:100E40003062306A40F001001EE000BF20F0010077
:100E50003062306A20F004003062FFF771FB054613
:100E600041F28837306A800720D5FFF769FB401BC5
:100E7000B8424FF00300F5D981E700BF20F0010030
:100E80003062306A20F004003062FFF759FB0546FB
:100E900041F28837306A800708D4FFF751FB401BC6
:100EA000B842F7D9032002B0BDE8F081B8F1000FD5
:100EB0003FF59FAEF06920F08050F06199E600BFE9
:100EC00040F480203060306840F480301CE000BF87
:100ED00020F480303060306820F480203060FFF7EC
:100EE0002FFB0546306880037FF55EAEFFF728FBD9
:100EF000401B64284FF00300F4D940E720F4803011
:100F00003060306820F480203060FFF719FB054620
:100F1000306880033FF548AEFFF712FB401B6428A2
:100F2000F6D9032002B0BDE8F08100BF206AB0F519
:100F3000803F05D17168A26821F4003111437160CE
:100F40007168626A21F474111143084370600120D2
:100F50003866FFF7F5FA0446306880013FF565AF63
:100F6000FFF7EEFA001B02284FF00300F4D906E762
:100F7000704700007047000090F83C20012A4FF0B5
:100F8000020236D010B580F83D200268D2F804E0A5
:100F9000D2F808C00C682EF07003234340F2FF74AF
:100FA000C4F20004A24253600ADCB2F1804F13D0B5
:100FB00040F20043C4F200039A420DD011E000BF9A
:100FC00042F60043C4F201039A4205D040F6000302
:100FD000C4F200039A4204D149682CF080031943FB
:100FE00091600121002280F83D1080F83C20BDE88E
:100FF0001040104670470000002804BF01207047D1
:1010000010B590F83D1031B9002180F83C1004462D
:1010100000F070F82046022180F83D10016840F28F
:10102000FF740B68C4F2000442F6004CA142C4F203
:10103000010C15DCB1F1804F1AD040F20042C4F22D
:101040000002914214D0A14218DCB1F1804F1DD0B2
:1010500040F20042C4F20002914217D01AE000BFF1
:10106000614505D040F60002C4F200029142EAD187
:10107000826823F070031343A142E6DD614505D089
:1010800040F60002C4F20002914203D1026923F447
:1010900040731343846923F08002D0F804E0C368EE
:1010A000224361450A60CB62C1F828E002D142695F
:1010B000CCF8302001224A610B69DB0703D00B69B1
:1010C00023F001030B6180F8462080F83E2080F871
:1010D0003F2080F8402080F8412080F8422080F8AE
:1010E000432080F8442080F8452080F83D200020EF
:1010F00010BD00000068B0F1804F18BF704780B588
:1011000082B041F21C00C4F202000168002241F0EA
:10111000010101600068052100F0010001900198C3
:101120001C20FFF7B7FB1C2002B0BDE88040FFF792
:101130009FBB000090F83D1001291CBF01207047A3
:10114000022180F83D10006840F2FF72C168C4F2CD
:101150000002904241F00101C16009DCB0F1804F12
:1011600012D040F20041C4F2000188420CD012E0DB
:1011700042F60041C4F20101884205D040F6000168
:10118000C4F20001884206D1816801F007010629F6
:1011900004BF00207047016841F001010160002098
:1011A0007047000090F83C20012A4FF002026CD0FA
:1011B00080B580F83D20D0F800C04FF67772DCF89B
:1011C000083023EA0202CCF808200B684F2B29DCF8
:1011D0001F2B45DD202B46D0302B44D0402B40F038
:1011E000AF80D1F804E0C968DCF82030DCF82020BA
:1011F00022F00102CCF82020DCF8182022F0F002C6
:1012000042EA011123F00A0242EA0E02CCF8181059
:10121000CCF82020DCF8081041F0470121F0300123
:1012200028E000BF6F2B33DDB3F5005F74D0B3F55A
:10123000805F21D0702B40F08380D1E901E3C96841
:10124000DCF8082043EA0E0322F47F4243EA01213E
:101250001143CCF80810DCF8081041F0770109E0E0
:101260000BB1102B6CD1DCF8081021F07001194380
:1012700041F00701CCF808100022012180F83D1050
:10128000002180F83C10BDE880401046704700BF48
:10129000502B21D0602B53D1D1F804E0C968DCF881
:1012A0002030DCF8202022F01002CCF82020DCF8DE
:1012B000182022F4704242EA013123F0A00242EAEF
:1012C0000E12CCF81810CCF82020DCF8081041F0F1
:1012D000670121F01001CDE7D1F804E0C968DCF81E
:1012E0002030DCF8202022F00102CCF82020DCF8AD
:1012F000182022F0F00242EA011123F00A0242EA29
:101300000E02CCF81810CCF82020DCF8081041F0C0
:10131000570121F02001ADE7D1E901E3C968DCF80C
:10132000082043EA0E0322F47F4243EA01211143DD
:10133000CCF80810DCF8081041F480419AE700BFAF
:1013400001229AE77047000070B504460068C5683E
:101350000669B10716D515F0020113D06FF002012E
:101360000161012121778069800703D02046FFF7C2
:10137000E9FF05E0204600F08FF8204600F08EF8E7
:1013800000202077700719D515F0040016D02068CA
:101390006FF00401016102212177806910F4407F20
:1013A00004D02046FFF7CEFF06E000BF204600F045
:1013B00073F8204600F072F800202077300717D528
:1013C00015F0080014D020686FF0080101610421B5
:1013D0002177C069800703D02046FFF7B3FF05E0FF
:1013E000204600F059F8204600F058F800202077F9
:1013F000F00619D515F0100016D020686FF0100116
:10140000016108212177C06910F4407F04D0204693
:10141000FFF798FF06E000BF204600F03DF82046A9
:1014200000F03CF800202077F00718BF15F001000D
:1014300002D1300609D412E020686FF00101016189
:10144000204600F02DF8300609D515F0800006D0B2
:1014500020686FF0800101612046FFF789FD70066A
:1014600009D515F0400006D020686FF040010161F9
:10147000204600F01FF8B00658BF70BD15F02000E0
:1014800008D021686FF0200220460A61BDE8704054
:10149000FFF770BD70BD000070470000704700008E
:1014A000006842F60041C4F20101884218BF70474B
:1014B000FFF740B970470000002804BF01207047C3
:1014C00010B5044690F8410028B9002084F8400087
:1014D000204600F063F8242084F841002068D4E915
:1014E0000212C36823F40053C360036923F440531A
:1014F0001A430261D4E904231143C268194341F23B
:101500000C639A431143C1604169A26921F440719F
:10151000114343F60002C4F201029042416103D03C
:10152000FFF7FEFA02E000BFFFF70EFBD4E900234D
:10153000192148439900B0FBF1F048F21F5CC5F255
:10154000EB1CA0FB0C314FF69C734909C0F6FF73EE
:1015500001FB0300322303EB0010A0FB0C03F0207F
:1015600000EA531000EB0110C3F3431108449060EC
:101570001069202120F490401061506920F02A0069
:101580005061D06840F40050D0600020606484F85E
:10159000411084F84210606310BD000070B586B041
:1015A00040F60004C4F20104006804F5405100262E
:1015B00088420596CDE90366029601D006B070BD5B
:1015C00041F21800C4F20200016802AD41F480410A
:1015D0000160016801F4804101910199016841F0C5
:1015E000040101600068294600F0040001900198A0
:1015F0004FF40070029002200390032005902046D3
:10160000FEF790FE4FF48060CDE9020620462946A1
:101610000496FEF787FE06B070BD0000FEE70000EE
:1016200080B540F21C1046F20041C2F20000C4F244
:1016300000010023102280E80E00C0E90333C0E956
:1016400005338383FEF7B4FD002808BF80BDBDE8E5
:101650008040FEF7A7BD000080B541F6650043F667
:101660002002C0F60000C0F60002002100F0A4F93C
:1016700040F21811C2F20001086080BD70B586B05A
:10168000002541F21800CDE90455CDE90255C4F218
:101690000200016840F6000441F020010160016889
:1016A000C4F2010401F020010191019901680022B6
:1016B00041F00401016001684FF4807601F00401FB
:1016C00001910199016841F00801016000684FF43F
:1016D000807100F00800019001982046FEF72AFF73
:1016E0000120CDE903050220059002A920460296BB
:1016F000FEF718FE06B070BD80B540F2441045F20A
:101700000041C2F20000C4F2000148F2A0620023CE
:101710004FF4804CC0F2010280E80E00C0E9033CA7
:10172000C0E90533C0E90733FEF710FF002808BF02
:1017300080BDBDE88040FEF735BD000080B586B0B5
:1017400040F2E0100021C2F200004FF080424FF65C
:10175000FF730591CDE90311CDE90011C0E9002126
:10176000C0E9021301618161FFF746FC002818BF40
:10177000FEF718FD4FF48050029040F2E010C2F2E4
:10178000000002A9FFF70EFD002818BFFEF70AFDB2
:1017900040F2E010C2F200006946FFF7EDFB0028BE
:1017A00018BFFEF7FFFC06B080BD000080B540F218
:1017B000282043F60001C2F20000C4F20101002318
:1017C0004FF00C0C4FF4E13280E80E00C0E9033317
:1017D000C0E905C3C361FFF76FFE002808BF80BDE5
:1017E000BDE88040FEF7DEBCFEE70000FEE700003B
:1017F000EFF30980BFF36F8F0D4B1A6820E9F00FEC
:1018000010602DE908404FF0500080F3118801F07E
:1018100039F94FF0000080F31188BDE808401968DD
:101820000868B0E8F00F80F30988BFF36F8F704746
:101830001000002000000000000000000000000078
:10184000074B19680868B0E8F00F80F30988BFF308
:101850006F8F4FF0000080F311884EF00D0E70472F
:1018600010000020012000F065F8FBE780B54EF283
:101870001000CEF20000006801F0C2FD012808BF90
:1018800080BDBDE8804001F0FBB90000704700005A
:1018900040F29810C2F20000FFF756BD40F2E0108F
:1018A000C2F20000FFF750BDFEE7000090B0FEF767
:1018B0004FFF00240120CDE90B44CDE909440690F7
:1018C0000A904FF4E0104FF480314FF400320225BB
:1018D0000F9006A807910892CDE90D51FFF748F93E
:1018E00020B1EFF3108072B6FEE700BF0F20CDE904
:1018F00001054FF48060CDE9040401A8022103949E
:10190000FFF704F820B1EFF3108072B6FEE700BFD6
:10191000FFF7B4FEFFF784FEFFF7EEFEFFF70EFFC2
:10192000FFF744FF00F016F8FFF796FE00F026F8E8
:10193000FEE70000EFF3058100291CBF6FF00500F2
:101940007047002804BF0020704780B500F050FFAA
:10195000002080BDEFF3058000281CBF6FF005005C
:10196000704740F21410C2F200000168002911BF54
:101970004FF0FF300121016000207047EFF3058038
:1019800000281CBF6FF00500704740F21410C2F22F
:101990000000016801291CBF4FF0FF30704780B57F
:1019A0004EF61F51CEF2000100220A7002210160A2
:1019B00000F0E8FF002080BDF0B585B08C46002324
:1019C0000493EFF30581B0B3A9BB2AB39469002C4B
:1019D00008BF1824382C2ED81179C9072BD1566985
:1019E000D2E902574FEA960E1168002E734608BFDF
:1019F00080231DB35C2F25D312690023002A18BF52
:101A0000002E18D0CDE9004272466346029501F0DF
:101A1000BBFC05B0F0BD00BF80231824002104AF3B
:101A20009AB26346CDE9004701F07EFC0023049999
:101A3000012808BF0B46184605B0F0BD17B912695A
:101A4000002AECD00023184605B0F0BD2DE9F04186
:101A5000044600F0B1FD40F21006C2F20006F06844
:101A600040F260350130F0603068C2F2000558B1D4
:101A70003069002840F007813068E16AC06A884216
:101A800098BF3460FFE000BF3460F068012840F088
:101A9000FA80284600F040FD05F1140000F03CFDFE
:101AA00005F1280000F038FD05F13C0000F034FDA0
:101AB00005F1500000F030FD05F1640000F02CFD50
:101AC00005F1780000F028FD05F18C0000F024FD00
:101AD00005F1A00000F020FD05F1B40000F01CFDB0
:101AE00005F1C80000F018FD05F1DC0000F014FD60
:101AF00005F1F00000F010FD05F5827000F00CFD1E
:101B000005F58C7000F008FD05F5967000F004FDF9
:101B100005F5A07000F000FD05F5AA7000F0FCFCD2
:101B200005F5B47000F0F8FC05F5BE7000F0F4FCAB
:101B300005F5C87000F0F0FC05F5D27000F0ECFC83
:101B400005F5DC7000F0E8FC05F5E67000F0E4FC5B
:101B500005F5F07000F0E0FC05F5FA7000F0DCFC33
:101B600005F5027000F0D8FC05F5077000F0D4FC14
:101B700005F50C7000F0D0FC05F5117000F0CCFC00
:101B800005F5167000F0C8FC05F51B7000F0C4FCEC
:101B900005F5207000F0C0FC05F5257000F0BCFCD8
:101BA00005F52A7000F0B8FC05F52F7000F0B4FCC4
:101BB00005F5347000F0B0FC05F5397000F0ACFCB0
:101BC00005F53E7000F0A8FC05F5437000F0A4FC9C
:101BD00005F5487000F0A0FC05F54D7000F09CFC88
:101BE00005F5527000F098FC05F5577000F094FC74
:101BF00005F55C7000F090FC05F5617000F08CFC60
:101C000005F5667000F088FC05F56B7000F084FC4B
:101C100005F5707000F080FC05F5757000F07CFC37
:101C200005F57A7000F078FC05F57F7000F074FC23
:101C300005F5826000F070FC05F2244000F06CFCB9
:101C400005F5876000F068FC05F24C4000F064FC8C
:101C500040F2EC08C2F20008404600F05DFC08F1DA
:101C60001407384600F058FC06F1640000F054FCFC
:101C700006F13C0000F050FC06F1500000F04CFC76
:101C8000C6F81C8037627068716A421CE06A726034
:101C90008842626488BF706200EB800005EB8000C0
:101CA000211D00F07BFC00F0ABFC306988B130688E
:101CB000E16AC06A884228BFBDE8F0814EF6045050
:101CC000CEF200004FF080510160BFF34F8FBFF3A1
:101CD0006F8FBDE8F081000040F2100540F26036E1
:101CE0004EF60458C2F20005C2F20006CEF2000819
:101CF0004FF0805703E000BF204600F099FCA86831
:101D0000D0B100F059FCA86CC468201D00F0D6FBCF
:101D1000E8680138E860A8680138A86000F070FC45
:101D200094F859000228EAD00128E5D070B9206B58
:101D300000F07EFCE0E700BF30680228DFD3C8F87F
:101D40000070BFF34F8FBFF36F8FD8E74FF0500095
:101D500080F31188BFF36F8FBFF34F8FFEE7000052
:101D60002DE9F0470A9C8246206B16460F46DDE9B6
:101D700008599100A5229846FEF7E6F9206B002F3E
:101D800000EB8600A0F1040020F0070644D038786C
:101D900084F83400D8B3787884F83500B8B3B878CC
:101DA00084F8360098B3F87884F8370078B3387937
:101DB00084F8380058B3787984F8390038B3B879A2
:101DC00084F83A0018B3F87984F83B00F8B1387A0F
:101DD00084F83C00D8B1787A84F83D00B8B1B87A7C
:101DE00084F83E0098B1F87A84F83F0078B1387BE7
:101DF00084F8400058B1787B84F8410038B1B87B52
:101E000084F8420000281CBFF87B84F843000020BF
:101E100084F8430003E000BF002084F8340000276A
:101E2000201D372D28BF3725E562C4E9135700F080
:101E30007FFB04F1180000F07BFBC5F13800A061C6
:101E400030465146424624616462676584F85870A2
:101E500000F024FBB9F1000F206018BFC9F8004062
:101E6000BDE8F08706480068006880F3088862B61D
:101E700061B6BFF34F8FBFF36F8F00DF00BF00006D
:101E800008ED00E081B00020009040F20C00C2F2AA
:101E9000000000684FF0500181F31188BFF36F8F8D
:101EA000BFF34F8F013007D0FEE700BF009830B975
:101EB000009820B9009810B900980028F6D001B019
:101EC0007047000088B040F2880AC2F2000A0DF1A3
:101ED0001009EB46DAF8080005681DB1C06804680F
:101EE00001E000BF002400F0C5FD01F099FADAF826
:101EF00010100646884220D3002DCAF8106051D039
:101F0000B4424FD801F096FBDAF80800C068C76801
:101F10003D1D284600F0D2FA97F82800410745D425
:101F200000F0FA0087F8280082E000BF7860DAF855
:101F3000080029463F6100F0FFFADAF8080001685E
:101F400031B3C068C76804683D1D284600F0B6FA82
:101F5000396A3846884797F828004007EDD5B869B0
:101F60002044A042E2D8DAF80000002800F04081C6
:101F7000002004A991C101F043FADAF800004946B3
:101F80000022002300F002FF0028D6D130E100BF7C
:101F9000DAF80C10CAF81060CAE9021001F04AFB26
:101FA0004FE000BF65B1002210E000BFB8693F619B
:101FB0000119B14279601DD90AF108001FE000BF84
:101FC000DAF80C000068B0FA80F04209DAF8000094
:101FD000A11B00F0E3FB01F02DFB90BB4EF604507B
:101FE000CEF200004FF080510160BFF34F8FBFF37E
:101FF0006F8F26E0311B814206D20AF10C00006887
:10200000294600F099FA13E0DAF80000002800F001
:102010000D81002004A991C101F0F2F9DAF8000065
:1020200049460022002300F0B1FE002800F0FE80A7
:10203000396A3846884704E00AF10C02106800F05B
:102040007BFADAF800005946002200F0FFFF002872
:102050003FF440AF0098B0F1FF3F06DCDDE901201E
:102060000399904700980028EBD4029E706910B144
:10207000301D00F023FA01F0D3F9DAF8101007460A
:1020800088420CD30098CAF8107009283DD9D8E7C7
:102090006860DAF8080021462D6100F04DFADAF8A0
:1020A0000800016841B3C068C568D0F800802C1DE5
:1020B000204600F003FA296A2846884795F8280048
:1020C0004007ECD5A86940444045E1D8DAF8000063
:1020D000002800F083800020CDE90408069501F077
:1020E0008FF9DAF8000049460022002300F04EFE86
:1020F0000028D4D172E000BFDAF80C10CAE902104F
:102100000098CAF8107009289BD8DFE800F0050590
:102110000557415F0505574196F82800B26940F020
:102120000101019886F828101318314641F8043F40
:10213000BB42366108D987420AF10802BFF47EAF7C
:10214000834205D27AE700BF381A9042FFF474AF99
:10215000316A3046884796F8280040077FF571AF0E
:10216000DAF8000000284DD00198B16906960844BD
:102170000021CDE9041001F043F9DAF800004946E6
:102180000022002300F002FE00287FF45AAF39E05D
:1021900096F8280040F00101019886F828100028E0
:1021A000B06139D0384431460AF10C0241F8040FCD
:1021B0003661B84288BF0AF108023FE796F8280066
:1021C00000F0FE0086F828003BE700BF96F82800E4
:1021D0008107F5D4304600F02BFA32E74FF050007B
:1021E00080F31188BFF36F8FBFF34F8FFEE700BFFF
:1021F0004FF0500080F31188BFF36F8FBFF34F8F04
:10220000FEE700BF4FF0500080F31188BFF36F8FDF
:10221000BFF34F8FFEE700BF4FF0500080F31188EF
:10222000BFF36F8FBFF34F8FFEE700BF4FF050003B
:1022300080F31188BFF36F8FBFF34F8FFEE700006D
:10224000F0B581B0044600F0B7F994F94560012E6D
:102250000FDB04F1240500BF286850B1284601F0C7
:10226000AFF9002818BF00F00DFBF0B2013E0128C5
:10227000F2D8FF2684F8456000F0C2F900F09CF91E
:1022800094F94470012F0EDB04F11005286850B159
:10229000284601F095F9002818BF00F0F3FAF8B2CB
:1022A000013F0128F2D884F8446001B0BDE8F04055
:1022B00000F0A6B970B5044600F0DCFB40F2C40C97
:1022C000C2F2000CDCF8042012B19CF8000020E0FF
:1022D00040F2C070C2F20000420700F5406200F117
:1022E000070122F0070218BF21F007000021A2F128
:1022F0000803CCE90601CCF8043042E90211DCF80D
:102300000420191AC0E900210120CCE902118CF83F
:1023100000000025002C4FF0000148BF01215AD0D9
:10232000084058D124F0070000F11003600708BFEF
:1023300004F10803DCF80800591E81424BD26046C4
:1023400050F818EFDEF804509D422CD2DEF8001051
:10235000C1B174464D689D4218D20E68B6B1756819
:102360009D4217D23068A8B145689D4216D20468D4
:10237000A4B165689D4215D22168A6460029E9D11D
:1023800011E000BF0CF118000DE000BF8E462046A2
:1023900009E000BFB646084605E000BF8646304665
:1023A00001E000BFA646964514D00268DEF8004062
:1023B000E91A112904604FD30EEB0305680719D001
:1023C0004FF0500080F31188BFF36F8FBFF34F8F32
:1023D000FEE700BF002501F02DF968075CD04FF043
:1023E000500080F31188BFF36F8FBFF34F8F00BF92
:1023F000FEE700BF0CF118006960CEF8043000BFA2
:102400000168A9420AD20868A8420BD20168A94211
:1024100004D208680B46A842F2D304E003460846FB
:1024200001E000BF0B465C6869681E19AE4202D12C
:1024300021441D4659606C18844201D0044607E0CF
:10244000DCF80440A04203D0D0E9004008446860B2
:10245000AB422C6018BF1D60DEF80400DCE90213FB
:1024600002F10805091A9942CCF8081038BFCCF8D7
:102470000C109CF8001000294FF0000118BF40F02C
:102480000040CEE90010DCF810000130CCF810005C
:1024900001F0D0F86807A2D1284670BD034641F686
:1024A0008560C0F600004FF0807C21F0010103E957
:1024B0000310A3F1400043F8202C70470169D0E9D4
:1024C0000132D1F804C09A608445536008BF4A6065
:1024D000002202610868013808600868704700003F
:1024E00041F2C453C2F20003036041F2C430C2F2AD
:1024F00000000860802010607047000041F6202333
:10250000C2F20003036041F22060C2F200000860E2
:102510004FF48070106070474FF0FF31024642F870
:10252000081F00214260C0E90322016070470000DB
:10253000002101617047000010B5D1F800C01CF106
:10254000010213D000F1080462681368634511D8D2
:1025500053681C68644511D85A68146864450FD8DC
:1025600054682368A6466345EED90BE00269D2F8A9
:1025700004E007E09646224604E000BF9E4601E0E4
:1025800096461A46C1F804E0CEF808108A605160F9
:10259000086101680131016010BD0000D0F800C081
:1025A000436808619A68C1E90132516099600CF191
:1025B00001010160704700004FF0500080F3118866
:1025C000BFF36F8FBFF34F8F40F20C00C2F20000D9
:1025D00001684A1C026009B1704700BF4EF6045002
:1025E000CEF200000068000608BF70474FF05000B0
:1025F00080F31188BFF36F8FBFF34F8FFEE70000AA
:1026000040F20C00C2F20000016839B101390160EA
:1026100018BF7047002080F3118870474FF05000BA
:1026200080F31188BFF36F8FBFF34F8FFEE7000079
:1026300070B5002808BF70BD40F2C404C2F20004A7
:10264000217850F8042C002918BF4FF000411142A6
:102650000ED0A0F108052B68A3B14FF0500080F315
:102660001188BFF36F8FBFF34F8F00BFFEE700BF2E
:102670004FF0500080F31188BFF36F8FBFF34F8F7F
:10268000FEE700BF22EA010140F8041C064600F004
:10269000F1F956F8040CA1680144A16004F1180195
:1026A0000B68AB420AD21968A94213D20B68AB423D
:1026B00004D219681A46A942F2D301E00A46194623
:1026C0005368D618AE420AD02B188B420DD00B4659
:1026D00012E000BF1A465368D618AE42F4D118442F
:1026E000154650602B188B42F1D16368994203D094
:1026F000D1E9003108446860AA422B6018BF156018
:10270000606901306061BDE8704000F093BF000077
:102710004EF21000CEF2000000210160816040F214
:102720000801C2F20001096844F6D352C1F2620204
:10273000A1FB02124FF0FF3101EB92114160072122
:102740000160704741F67C2CC2F2000CDCF80030CE
:1027500003B3634653F8082FEAB1634653F8102FCA
:10276000CAB1634653F8182FAAB1634653F8202F15
:102770008AB1634653F8282F6AB1634653F8302F65
:102780004AB15CF8382F002A634608BFC3E900103D
:10279000704700BF6346C3E90010704770B5154627
:1027A0000E460446FFF708FF94F84400FF2804BFD4
:1027B000002084F8440094F84500FF2804BF00205E
:1027C00084F84500FFF71CFFA06B28B12046BDE848
:1027D0007040FFF735BD00BF04F1240031462A46A2
:1027E00000F092F82046BDE87040FFF729BD0000D8
:1027F00070B588B340F21004C2F20004616949B1B7
:102800004FF0500080F31188BFF36F8FBFF34F8FED
:10281000FEE700BF6169064601316161A569216873
:1028200004310846FFF74AFE2068AD19456005D31C
:10283000206A21680431FFF77FFE08E0E069216823
:102840000431FFF779FEE06A854238BFE56200F0A7
:10285000F1FE002818BF70BD4EF60450CEF2000005
:102860004FF080510160BFF34F8FBFF36F8F70BD8A
:1028700040F21001C2F200018A6B02608969416076
:102880007047000040F21000C2F200000121016315
:102890007047000070B5D8B140F21004C2F20004D5
:1028A0000D4621681831FFF747FEA66920680430FD
:1028B000FFF704FE681C15D02068AD19456019D3D8
:1028C000206A21680431BDE87040FFF735BE00BFC3
:1028D0004FF0500080F31188BFF36F8FBFF34F8F1D
:1028E000FEE700BF54F8500B011D2046BDE87040C4
:1028F000FFF754BEE06921680431FFF71DFEE06A6E
:10290000854238BFE56270BDF0B581B0C0B140F21C
:102910001004C2F200040D46216816461831FFF774
:102920003DFEA76920680430FFF7C8FD96B154F852
:10293000500B011D204601B0BDE8F040FFF72EBE50
:102940004FF0500080F31188BFF36F8FBFF34F8FAC
:10295000FEE700BF2068ED19456007D3206A2168B3
:10296000043101B0BDE8F040FFF7E6BDE069216841
:102970000431FFF7E1FDE06A854238BFE56201B04E
:10298000F0BD000010B588B00020CDE9050006A814
:1029900005A904AAFFF7A4FD059800283ED0069CCF
:1029A000002C45D05C21049A079107995C2949D1F4
:1029B00007992063022084F8590007A80021CDE977
:1029C000001041F6D940C0F6000028A1002302946F
:1029D000FFF7C6F92046FFF739F8079840F21004D0
:1029E000C2F20004A062B0B100F09CFE411C33D0E2
:1029F000012810D14FF0500080F31188BFF36F8F82
:102A0000BFF34F8F4FF0FF30E062012020610020C4
:102A1000A06100F09DF808B010BD00BF4FF050005D
:102A200080F31188BFF36F8FBFF34F8FFEE700BFB6
:102A30004FF0500080F31188BFF36F8FBFF34F8FBB
:102A4000FEE700BF4FF0500080F31188BFF36F8F97
:102A5000BFF34F8FFEE700BF4FF0500080F31188A7
:102A6000BFF36F8FBFF34F8FFEE700BF49444C4564
:102A70000000000040F21000C2F200004169013184
:102A80004161704780B540F2100EC2F2000EDEF8D0
:102A9000141019B10121CEF8301080BD0021CEF8FC
:102AA0003010DEF8241040F2603C01EB8102C2F2EB
:102AB000000C5CF82230002B0CEB82030CD0586821
:102AC000426803F1080082425A6023D0D068CEF8F1
:102AD0000000CEF8241080BD283B19B35A6901EBE1
:102AE0008100002A0CEB800226D101291AD0186837
:102AF00030BB022916D053F8140C28BB032911D07F
:102B000053F8280C04390028A3F15003E5D02833EA
:102B1000D5E700BF52685A60D068CEF80000CEF802
:102B2000241080BD4FF0500080F31188BFF36F8FE9
:102B3000BFF34F8FFEE700BFA2F114030139BEE7D8
:102B4000A2F128030239BAE7A2F13C030339B6E740
:102B5000B0B584B04EF2004CCEF2000C9CF80010E0
:102B60000291FF218CF800109CF800108DF80710DE
:102B70009DF8071001F0500240F2E401C2F200019A
:102B80000A7007224A609DF90720B2F1FF3F61DC1D
:102B9000032200BFD31C4B609DF8070040008DF856
:102BA00007009DF90700B0F1FF3F24DC931C4B6048
:102BB0009DF8070040008DF807009DF90700B0F16F
:102BC000FF3F18DC531C4B609DF8070040008DF858
:102BD00007009DF90700B0F1FF3F0CDC4A609DF84B
:102BE0000700043A40008DF807009DF90700B0F196
:102BF000FF3FCFDD131D032B2CD14FF440704860F5
:102C000002988CF80000DCF8200940F47000CCF841
:102C10002009DCF8200940F07040CCF82009FFF7CB
:102C200077FD40F20C04C2F2000400252560FFF796
:102C300019F9FFF727FF039520684FF0500181F342
:102C40001188BFF36F8FBFF34F8F013012D000BFD9
:102C5000FEE700BF4FF0500080F31188BFF36F8F85
:102C6000BFF34F8FFEE700BF039830B9039820B938
:102C7000039810B903980028F6D0002004B0B0BD26
:102C800080B54FF0500080F31188BFF36F8FBFF312
:102C90004F8F00F0CBFB30B14EF60450CEF2000067
:102CA0004FF080510160002080F3118880BD00004A
:102CB00070B582B060B1ABB1F1B9EAB14FF050007C
:102CC00080F31188BFF36F8FBFF34F8FFEE700BF14
:102CD0004FF0500080F31188BFF36F8FBFF34F8F19
:102CE000FEE700BF4FF0500080F31188BFF36F8FF5
:102CF000BFF34F8FFEE700BF51B14AB94FF050000C
:102D000080F31188BFF36F8FBFF34F8FFEE700BFD3
:102D100050250195019D502D2ED1019C069E012428
:102D200083F84640002908BF1A461A60C3E90F011C
:102D30001C46FFF741FC2068D4E90F12002502FB76
:102D40000103013901FB0201A563C4E90103FF206E
:102D5000E16084F8440084F8450004F11000FFF7B6
:102D6000DBFB04F12400FFF7D7FBFFF749FC20460B
:102D700084F84C6002B070BD4FF0500080F31188B1
:102D8000BFF36F8FBFF34F8FFEE700002DE9F04FC9
:102D900083B00292C0B11D460446F9B1022D02D1A2
:102DA000E06B01285CD116460F4600F029FB18BBEA
:102DB00016B34FF0500080F31188BFF36F8FBFF34D
:102DC0004F8F00BFFEE700BF4FF0500080F3118827
:102DD000BFF36F8FBFF34F8FFEE700BF206C00285B
:102DE000DCD04FF0500080F31188BFF36F8FBFF33A
:102DF0004F8F00BFFEE700BFFFF7DEFBA06B022D89
:102E000065D0E16B884262D30298002800F01881F7
:102E10006846FFF72DFDFFF7F3FBFFF72BFEFFF7EB
:102E2000CBFB94F84400FF2804BF002084F8440042
:102E300094F84500FF2804BF002084F84500FFF700
:102E4000DFFB684602A900F021FA98B12046FFF79F
:102E5000F7F900F0EFFB002003B0BDE8F08F00BFF2
:102E60004FF0500080F31188BFF36F8FBFF34F8F87
:102E7000FEE700BF04F11008FFF79EFBD4F838907E
:102E8000E66BFFF7BDFBB14516D102994046FFF74F
:102E900001FD2046FFF7D4F900F0CCFB88B94EF6CF
:102EA0000450CEF200004FF080510160BFF34F8F0D
:102EB000BFF36F8F05E000BF2046FFF7C1F900F0B8
:102EC000B9FBFFF779FBA06BE16B884266D2A66B7A
:102ED000226CDAB139462DB3E068FDF723F9E168D9
:102EE000206C2268091A9142E16003D2A168404235
:102EF0000844E060A81EB0FA80F040093146002E78
:102F000018BF01210840361A18E000BF2068A8B990
:102F1000A06800F00DFB0021B0FA80F0A16040092C
:102F20000DE000BF6068FDF7FDF8D4E90101226CF7
:102F300010448842606001D3206860600120711CE9
:102F4000A16354F8241FA9B1204600F039FB50B109
:102F50004EF60450CEF200004FF080510160BFF3F6
:102F60004F8FBFF36F8FFFF74BFB012003B0BDE81E
:102F7000F08F00BF0028F6D14EF60450CEF20000CC
:102F80004FF080510160BFF34F8FBFF36F8FFFF79A
:102F900037FB012003B0BDE8F08F00BFE94602AE69
:102FA0000CE000BF2046FFF74BF900F043FBFFF7B2
:102FB00003FBA06BE16B8842FFF489AF0298002805
:102FC0003ED0FFF71DFBFFF755FDFFF7F5FA94F82C
:102FD0004400FF2804BF002084F8440094F8450012
:102FE000FF2804BF002084F84500FFF709FB48468E
:102FF000314600F04BF900287FF428AFFFF7DCFAE8
:10300000D4F838A0D4F83CB0FFF7FAFADA45C9D1C1
:1030100002994046FFF73EFC2046FFF711F900F009
:1030200009FB0028C3D14EF60450CEF200004FF049
:1030300080510160BFF34F8FBFF36F8FB7E700BFC1
:10304000FFF7DEFA002003B0BDE8F08F2DE9F04F66
:1030500083B0029290B115460446002948D00E462E
:1030600000F0CEF9A0B99DB14FF0500080F3118867
:10307000BFF36F8FBFF34F8FFEE700BF4FF05000DD
:1030800080F31188BFF36F8FBFF34F8FFEE700BF50
:10309000FFF792FAD4F838A0BAF1000F36D0226CBC
:1030A00052B1D4E9023130461144E160994224BF63
:1030B0002168E160FDF736F8AAF10100A06354F839
:1030C000100F70B1204600F07BFA50B14EF604505C
:1030D000CEF200004FF080510160BFF34F8FBFF37D
:1030E0006F8F0124FFF78CFA204603B0BDE8F08F04
:1030F000206C0028B3D04FF0500080F31188BFF34C
:103100006F8FBFF34F8F00BFFEE700BF029800280C
:1031100000F0B4806846FFF7ABFBFFF771FAFFF7EA
:10312000A9FCFFF749FA94F8440004F12408FF28A9
:1031300004BF002084F8440094F84500FF2804BF31
:10314000002084F84500FFF75BFA684602A900F00A
:103150009DF878B12046FFF773F800F06BFAFFF79F
:103160002BFAA56BFFF74CFA2DBB0024204603B0C9
:10317000BDE8F08FFFF720FAA56BFFF741FA2DB1FC
:103180002046FFF75DF800F055FA14E0029940463A
:10319000FFF780FB2046FFF753F800F04BFA50B9D9
:1031A0004EF60450CEF200004FF080510160BFF3A4
:1031B0004F8FBFF36F8FFFF7FFF9D4F838A0BAF144
:1031C000000F7FF46CAF4FF00009EB4602AF13E045
:1031D0002046FFF735F800F02DFAFFF7EDF9A56B63
:1031E000FFF70EFA002DC0D0FFF7E6F9D4F838A0AB
:1031F000BAF1000F7FF453AF029800283ED0FFF7DA
:10320000FFF9FFF737FCFFF7D7F994F84400FF28E0
:1032100008BF84F8449094F84500FF2808BF84F85C
:103220004590FFF7EDF95846394600F02FF8002891
:10323000CED1FFF7C1F9A56BFFF7E2F935B1204612
:10324000FEF7FEFF00F0F6F9CEE700BF0299404618
:10325000FFF720FB2046FEF7F3FF00F0EBF9002814
:10326000C2D14EF60450CEF200004FF08051016002
:10327000BFF34F8FBFF36F8FB6E700BF0024FFF798
:10328000BFF9204603B0BDE8F08F0000B0B548B3E9
:103290000C4689B30546FFF78FF940F2100CC2F2D5
:1032A000000CDCF818302268501C2FD0AE4668683D
:1032B0002D68DCF83810A94201D083422ED2181AAA
:1032C000824229D9101A2060DCF838000024CEF898
:1032D0000000DCF81800CEF80400FFF791F9204652
:1032E000B0BD00BF4FF0500080F31188BFF36F8F67
:1032F000BFF34F8FFEE700BF4FF0500080F31188FF
:10330000BFF36F8FBFF34F8FFEE700BF0024FFF7BF
:1033100077F92046B0BD00BF002020600124FFF7F0
:103320006FF92046B0BD00002DE9F04184B007469A
:103330009000984615460E46FEF7BCFFF8B10446CD
:103340005C20FEF7B7FFB8B1DDE90A210023046372
:1033500080F85930CDE900210446384631462A46E6
:1033600043460294FEF7FCFC2046FEF76FFB01206B
:1033700004B0BDE8F08100BF2046FFF759F94FF0D7
:10338000FF3004B0BDE8F08170B586B00B9CCCB1C5
:103390000C9E0EB35C250495049D5C2D26D1049DE6
:1033A000DDF828C0022586F8595005AD3463CDE913
:1033B00000C50296FEF7D4FC3046FEF747FB0598A1
:1033C00006B070BD4FF0500080F31188BFF36F8FCF
:1033D000BFF34F8FFEE700BF4FF0500080F311881E
:1033E000BFF36F8FBFF34F8FFEE700BF4FF050006A
:1033F00080F31188BFF36F8FBFF34F8FFEE700009C
:1034000040F21000C2F20000016900290FBF012044
:103410004069B0FA80F0400918BF400070470000D2
:1034200040F21000C2F20000806970472DE9F043BD
:1034300081B040F21006C2F20006706940B1706BB4
:10344000002401307063204601B0BDE8F08300BF66
:10345000B06910F10109C6F8189020D3F06900682E
:1034600050B14FF0500080F31188BFF36F8FBFF35E
:103470004F8F00BFFEE700BFF069316AF161306233
:10348000B06B0130B063F069006828B1F069C068C2
:10349000C068406802E000BF4FF0FF30F062F06AA1
:1034A00040F260388145C2F2000801D200242EE0CB
:1034B000F0690024006813E0F86A716A884288BFE6
:1034C000706200EB800008EB80002946FFF766F889
:1034D000F86A3168C96AF269884228BF0124106815
:1034E00090B1F069C068C7683D4655F8040F814542
:1034F0000CD32846FEF7E2FFB86A0028DCD007F1BB
:103500001800FEF7DBFFD7E74FF0FF30F0623068BE
:10351000C06A00EB800058F82000012888BF012411
:10352000306B002818BF0124204601B0BDE8F083AD
:1035300070B588B140F21005C2F2000529688842D2
:103540000CD04FF0500080F31188BFF36F8FBFF3A2
:103550004F8F00BFFEE700BF002070BD016D29B393
:10356000013901654FF000011DD1C26AC36C9A4256
:1035700019D0041D06462046FEF7A0FFF06CC0F1EE
:103580003801F062B161696A884240F2603188BFF7
:10359000686200EB8000C2F2000101EB800021466E
:1035A000FEF7FCFF0121084670BD00BF4FF0500040
:1035B00080F31188BFF36F8FBFF34F8FFEE70000DA
:1035C00070B5C068C5686DB105F118042046FEF7F6
:1035D00075FF40F21006C2F20006706960B106F194
:1035E00064001AE04FF0500080F31188BFF36F8F32
:1035F000BFF34F8FFEE700BF2C1D2046FEF75EFF96
:10360000E86A716A884240F2603188BF706200EBFC
:103610008000C2F2000101EB80002146FEF7BEFFF0
:10362000E86A3168C96A884292BF0020012030638D
:1036300070BD00002DE9F04140F21005C2F2000516
:10364000686968B1FEF7B8FF686901386861686940
:1036500080B10024FEF7D4FF2046BDE8F08100BF12
:103660004FF0500080F31188BFF36F8FBFF34F8F7F
:10367000FEE700BFE8680028EBD0686E88B340F230
:103680006036C2F200064FF0010800BF286FC7681D
:1036900007F11800FEF712FF3C1D2046FEF70EFF53
:1036A000F86A696A884288BF686200EB800006EBAE
:1036B00080002146FEF772FFF86A2968C96A8842CD
:1036C00028BFC5F83080686E0028DFD1E86900683F
:1036D00020B1E869C068C068406801E04FF0FF3081
:1036E000E8626C6B4CB10126FFF7A0FE002818BF02
:1036F0002E63013CF8D100206863286B0028A8D015
:103700004EF60450CEF200004FF080510160BFF33E
:103710004F8F0124BFF36F8FFEF772FF2046BDE885
:10372000F081000070B586B0FEF746FF40F28806D3
:10373000C2F20006306808BB06F114042046FEF70A
:10374000EBFE06F128052846FEF7E6FE40F2702261
:1037500040F21033C6E902450025C2F20002C2F26F
:1037600000030A2010210095FFF7A2FA306028B16B
:1037700043F65001C0F60001FEF7E4FFFEF740FFFC
:103780003068D8B10020CDE9040005A804A903AA37
:10379000FEF7B4FEDDE903200221059DCDE900100E
:1037A00041F6C560C0F6000009A100230295FFF7AD
:1037B000EBFD706010B1012006B070BD4FF05000FD
:1037C00080F31188BFF36F8FBFF34F8FFEE700BF09
:1037D000546D72205376630002E008C8121F08C1BE
:1037E000002AFAD170477047002001E001C1121F82
:1037F000002AFBD170470000000000000000010219
:103800000304060708090000000001020304010286
:1038100002030405060708090A0B0C0D0E0F101011
:103820004438000800000000000000000000000014
:10383000000000000002000018000000000000006E
:103840000000000064656661756C745461736B0000
:10385000546D72510000000078380008000000200C
:1038600010000000D8370008883800081000002039
:10387000B01E0000E8370008010000001000000042
:0838800000127A00AAAAAAAA0C
:04000005080000ED02
:00000001FF
