:020000040800F2
:10000000885D0020F15A0008092600080B26000828
:100010000F2600081326000817260008000000001D
:100020000000000000000000000000001B26000887
:100030001D260008000000001F26000821260008D9
:100040000B5B00080B5B00080B5B00080B5B0008F8
:100050000B5B00080B5B00080B5B00080B5B0008E8
:100060000B5B00080B5B00080B5B00080B5B0008D8
:100070000B5B00080B5B00080B5B00080B5B0008C8
:100080000B5B00080B5B00080B5B00080B5B0008B8
:100090000B5B00080B5B00080B5B00080B5B0008A8
:1000A0000B5B00080B5B00080B5B00080B5B000898
:1000B000AD270008E1270008152800080B5B0008A1
:1000C0000B5B00080B5B00080B5B00080B5B000878
:1000D0000B5B0008292600088D260008ED26000885
:1000E0000B5B00080B5B00080B5B00080B5B000858
:1000F0000B5B00080B5B00080B5B00080B5B000848
:100100000B5B00080B5B00080B5B00080B5B000837
:100110004D2700080B5B00080B5B00080B5B000819
:100120000B5B00080B5B00080B5B00080B5B000817
:10013000DFF80CD006F00AF90048004795020008E5
:10014000885D002010B500F0AAFA00F01DFC00F058
:10015000BDF85B48007820B100F0C7FE0020584988
:1001600008705848007820B100F00BFF0020554976
:10017000087010BD10B5C2B001A902A801F01DFEA3
:100180009DF80800012801D042B010BD9DF809007B
:1001900018B9002000F05FFF38E09DF80900012841
:1001A00009D19DF80B409DF80A0040EA042420463E
:1001B00000F097FF2AE09DF80900022803D10120F2
:1001C00000F0A6FF22E09DF80900302803D10120AD
:1001D0003C4908701AE09DF80900312803D101203C
:1001E0003749087012E09DF80900F02807D19DF802
:1001F0000A00012802D13449087007E006E09DF8A2
:100200000900F12802D100202F49087000BFBBE788
:1002100010B5FFF7AFFF10BD10B500F0C4F80A200D
:1002200000F024F910BD10B502F02CFB4FF47A70E9
:1002300002F067FB4FF480724FF4E131012002F0CD
:10024000F9FC4FF480724FF4E131022002F0F2FC2D
:100250000A2002F081FBAFF23F0002F0F5FB4FF401
:10026000FA7002F0FFFBAFF2570002F061FC4FF4AE
:100270007A7002F06BFCAFF2331002F0CDFC7C2000
:1002800001F0BEF9782001F0A1FA00F09BFF01F027
:1002900015F810BDFFF7C7FF02F027FC00F0A0F82B
:1002A00002F0A2FB02F095FC08E000F035FC03E050
:1002B00000F04FFC00B100E0FAE700BFF5E70000F6
:1002C0000200002003000020010000202DE9F04F73
:1002D00089B0F749086A05F01BFF07460022F54B75
:1002E00005F0DCFDCDE90201F149886905F010FF58
:1002F00007460022EF4B05F0D1FDCDE90001DDE915
:10030000022305F03DFE05460022EB4B05F0C6FD3D
:10031000CDE9040105F0E3FE1FFA80F9484605F037
:10032000BDFE82460022E54B05F02AFECDE906011E
:1003300005F0D5FEC4B2782001F048FA032C02DBA8
:10034000082001F004FA022C02DB102001F0FFF972
:10035000012C02DB202001F0FAF9002C02DB402006
:1003600001F0F5F9D6480078012802D1402001F0CB
:100370002DFA09B0BDE8F08F2DE9F0470446D14EC3
:10038000204600F0E2FEA0F11F09484605F067FE96
:100390008046314605F06BFC074605F08CFE85B2C1
:1003A0002846BDE8F08770B500F022FE0546C64835
:1003B000854200D90025BE480560002409E0611C83
:1003C000C8B200F026FEBA49083121F81400601CBA
:1003D000C4B2052CF3DB00F033FEB549488270BD92
:1003E0002DE9F05FFFF7DFFF00F0A1FEB049888242
:1003F00000F086FE054605F03BFEAD490862084662
:10040000B0F8089001240BE0A948083030F8140037
:10041000484503DAA648083030F81490601CC4B28E
:10042000052CF1DB4846FFF7A7FFA149C880C88823
:1004300005F01EFE83469E48016A584605F017FCEB
:10044000824605F065FE07460022A04B05F098FDA8
:10045000054605F085FE96498861FFF737FF0020C5
:100460009B4908609B490870BDE8F09F2DE9F14F5A
:1004700086B098480078022852D1069805F00EFE02
:10048000CDE902018A49086805F008FE0646002207
:10049000884B05F003FDCDE90001DDE9022305F0FD
:1004A000FDFC804600228C4B05F06AFDCDE904017D
:1004B0007F49886905F02CFE0446DDE9042305F038
:1004C000E7FC824605F04CFE79498861069805F004
:1004D000E5FDCDE902017649086805F0DFFD8246B9
:1004E0000022744B05F0DAFCCDE90001DDE90223BE
:1004F00005F0D4FC0022784BCDE9040105F040FD65
:1005000006460F467248006805F002FE80463246F5
:100510003B4605F01CFC044605F022FE6C490860D1
:1005200007B0BDE8F08F2DE9F14F84B06548029027
:10053000029805F0EDFD06460F46049805F0AEFD65
:10054000804600225B4B05F0A9FC32463B46CDE9D4
:10055000000105F015FD04460022604B05F0F7FB95
:10056000824605F0BCFD80B20490049800F0E6FDE0
:100570000390039805B0BDE8F08F2DE9F04F8DB0E2
:100580004B4AD188508A00F07FFD07464848808C4E
:10059000B84202DD4FF07E5519E04549888C05F0E0
:1005A0007DFDCDE90801384605F078FD0022414B7C
:1005B000CDE9040105F072FCCDE90601DDE908236F
:1005C00005F0DEFCCDE90A0105F0CAFD0546002470
:1005D00034E02046FFF7A7FF80463549488A214688
:1005E00000F052FD8146484605F042FD29460B9039
:1005F00005F03DFB834605F05EFD1FFA80F92C49AE
:10060000096801FB09F005F049FD354A354BCDE994
:10061000060105F043FC344A344BCDE9080105F0EE
:100620003DFCCDE90A0105F05AFD1FFA80FA0AF6F1
:10063000B830804500DB04E0601C84B2B4F57A7FFA
:10064000C7DD00BF204605F013FD01901848016A80
:10065000019805F00CFB834605F05AFD0022154B6E
:10066000CDE9020105F01AFC0022184BCDE9040186
:1006700005F086FCCDE908010D49886905F048FDC3
:10068000CDE90601DDE9082305F002FCCDE90A0108
:1006900005F066FD064630460DB0BDE8F08F2DE949
:1006A000F04F89B00248B0F8089001242AE0000019
:1006B000700800200000F03F000059400000394061
:1006C000010000204E18843FE022020000408F40CD
:1006D0000C0000200600002040774B4100003F4006
:1006E0007B14AE47E17A843FFCA9F1D24D62503FC2
:1006F000FB4830F81400484502DAF94830F8149005
:10070000601CC4B2052CF3DB0020F5490839888051
:1007100000240BE0F24808388188083030F81400D3
:100720000844EF4908398880601CC4B2052CF1DB0D
:1007300000F0E6FC074605F09BFCE9490839086231
:10074000E848007802284AD1E7480068401CE6499A
:100750000860E34A083A116A906905F0BAFA8046DF
:10076000E24905F084FA074605F0A5FC1FFA80FA75
:10077000DB4A083AD188508A00F086FCD84908390B
:10078000096800FB01FB584605F088FCD84AD94BA4
:10079000CDE9000105F082FB07460022D64B05F0AB
:1007A000EFFBCDE90401484605F078FC074600223E
:1007B000D24B05F073FBCDE90201DDE9042305F01E
:1007C000C6FACDE9060105F08AFC86B23046FFF78D
:1007D000D3FD0890C2480838A0F806A038E0C84801
:1007E0000088002815DDC6480088401EC4490880DE
:1007F000BB4A083A116A906905F06BFA8046BB491A
:1008000005F035FA074605F056FCB5490839C880A9
:100810001EE04846FFF7B0FDB1490839C880C888D6
:1008200005F026FC0590AE480838016A059805F0E9
:100830001EFA834605F06CFC0022B24BCDE906019E
:1008400005F09EFB074605F08BFCA5490839886139
:10085000A4480078022853D1A1490839C888FFF775
:1008600062FE06469E490839086805F017FCCDE986
:100870000401A6EB0901642251434FF47A7201FB93
:1008800002F005F0FAFB00229C4BCDE9000105F0D7
:1008900005FBCDE90201DDE9042305F071FB00222F
:1008A000994BCDE9060105F0F9FA074605F017FC6A
:1008B00005469648008820BB89480838408A9449F4
:1008C000924A128821F8320085480838C0888F4A39
:1008D000128801EBC20148808D488C49098800EBE1
:1008E000C10045608A488949098800EBC1008088B9
:1008F0007B490839888485480088401C83490880E2
:100900002FE077480838C18880480088401E804A18
:1009100002EBC0004088814223D071480838408AE9
:1009200011467A4A128821F832006D480838C0888A
:10093000764A128801EBC2014880754873490988DC
:1009400000EBC100456072487049098800EBC100A6
:1009500080886349083988846C480088401C6B494A
:10096000088060480078022805D1FFF706FE5C4940
:100970000839C86105E05A4808388069584908397B
:10098000C86109B0BDE8F08F70B58EB0342101A800
:1009900005F00AF9A5208DF804005A208DF805000D
:1009A00026208DF8060001208DF807008DF808003C
:1009B0004B48083880798DF8090049480838C088C4
:1009C00000128DF80A0046490839886905F073FB62
:1009D00084B2E0B28DF80B0020128DF80C00404973
:1009E0000839C86905F067FB84B2E0B28DF80D00E4
:1009F00020128DF80E003A48083800798DF80F0063
:100A000037480838808800128DF8100034480838BC
:100A10000668F0B28DF81100300A8DF81200300C23
:100A20008DF81300300E8DF8140000250FE02C48CF
:100A300010F815106800113001AA1154284830F838
:100A400015000112680012301154681CC5B2052D42
:100A5000EDDB23480838007D8DF81F00204808385A
:100A6000808A00128DF820001D480838807C8DF89F
:100A700021001B480838408A00128DF822001848CF
:100A8000083890F824008DF8230015480838808C29
:100A900000128DF824001F48006805F00CFB84B29A
:100AA000E0B28DF8250020128DF826000C49083997
:100AB000086A05F000FB84B2E0B28DF8270020122E
:100AC0008DF82800252101A801F044F98DF82900AE
:100AD000262201A9012002F0D8F80EB070BD000056
:100AE00078080020060000201400002000007A444E
:100AF000FCA9F1D24D62503F000059400000F03F88
:100B00000800002000408F40000014400400002036
:100B1000A00800200C00002010B5F84B1A8915E041
:100B2000F64B1968188902F16403984203DD01232A
:100B3000F34C23700BE0B1F5FA7F07D90223F04C98
:100B40002370EE4BDB88EF4C238000E0E8E700BF2A
:100B500010BD2DE9FF5F4FF000094FF07E5BE748C5
:100B6000068901240BE0E548083030F81400B04253
:100B700003DAE248083030F81460601C84B2052CB7
:100B8000F1DBDF48007802287ED1DC480068B0F550
:100B9000FA7F03D340F6B830864275DC4FF0010986
:100BA0000020D9490860D948007801286DD10A2071
:100BB00001F0B3FE3046FFF7DFFBD5490880CF498F
:100BC000086A05F0A5FA0022D24BCDE9000105F034
:100BD00065F907468846D048006805F099FA3A4614
:100BE0004346CDE9020105F0A7FA23D2C348D0F865
:100BF00020A0C4490988C64A1288881A05F02FFA2D
:100C000080464146C448006805F063F80746C3497A
:100C100005F02DF8B94908620846016A504605F00A
:100C200058F88346B549086A05F045FA87B2384650
:100C300000F057FA002497E0B9490988491EB94ADB
:100C400002EBC1014988AF4A1288501A05F007FA31
:100C50005946029005F00BF88046AA48008805F036
:100C600007FA4146039004F0FCFF074605F023FA1B
:100C700080B2A0420DDDAA480088401EA94901EBC0
:100C8000C0008088A84901E081E07DE021F81400DF
:100C900068E0A44949889B4A1288501A05F0DFF998
:100CA0005946029004F0E3FF80469648008805F01C
:100CB000DFF94146039004F0D4FF074605F0FBF945
:100CC00080B2A04205DA97488088974921F814003D
:100CD00048E0002541E0934901EBC5014988894A74
:100CE0001288501A05F0BBF95946029004F0BFFF74
:100CF00080468448008805F0BBF94146039004F023
:100D0000B0FF074605F0D7F980B2A04223DB854A41
:100D1000691C02EBC10149887A4A1288501A05F011
:100D20009EF95946029004F0A2FF8046754800885B
:100D300005F09EF94146039004F093FF074605F045
:100D4000BAF980B2A04206DC764800EBC500808884
:100D5000754921F81400681C85B271480088401E4E
:100D6000A842B8DC601C84B2B4F57A7F7FF764AF28
:100D700000206B49088040F2E9316B4800F073F9BC
:100D800000206249087002E00A20684908805C4837
:100D9000007801280FD15948008941F25E0188424C
:100DA00009DD5648808A401C54498882888A00F0B0
:100DB000AFF94FF00109B9F1010F02D100205049FC
:100DC0000870484604B0BDE8F09F2DE9F04F85B0AB
:100DD0004FF07E595249088800EBD0714C104DE01D
:100DE000504830F83400142800DA45E04D4A02EB50
:100DF000C40251884B4A32F8340000F045F904909F
:100E0000484605F085F905460E46049805F046F972
:100E1000CDE90201434901EBC401486805F03EF900
:100E200007460022424B05F039F8CDE90001DDE923
:100E3000022305F0A5F882462A46334605F07CF9E0
:100E400019D2049805F02AF907468846354901EB7E
:100E5000C401486805F022F90022354BCDE90201B2
:100E600005F01CF882463A46434605F089F80546E7
:100E700005F076F9814600BF601C84B228480088DE
:100E80008442ADDB002412E02146FA2000F0FCF899
:100E9000074605F0EDF80646494604F0E8FE05462B
:100EA00005F009F9204921F81400601C84B2B4F55A
:100EB0007A7FE9DD40F2E9311B4800F0D4F805B053
:100EC000BDE8F08F70B540F2E935002406E04FF43C
:100ED0007A70154921F81400601C84B2AC42F6DB2C
:100EE0002946114800F0BFF870BD70B511A005F09B
:100EF0006FFA13A005F06CFA002432E070080020AD
:100F00000600002010000020140000200100002036
:100F1000120000200000E03F0C00002000007A4496
:100F200004000020A0080020E8270020080000207E
:100F30000000F03F52695F5368656574000000006F
:100F4000090A00002146FA2000F09EF805462146D5
:100F500020A005F03DFA29461FA005F039FA601CD3
:100F600084B2B4F57A7FEDDDAFF22C0005F030FAF3
:100F7000AFF2340005F02CFAAFF23C0005F028FA8D
:100F800070BD70B516A005F023FAAFF24C0005F065
:100F90001FFA00240DE02046FFF7C5FA054621465A
:100FA0000CA005F015FA29460BA005F011FA601CFB
:100FB00084B2B4F57A7FEEDDAFF27C0005F008FA7A
:100FC000AFF2840005F004FAAFF28C0005F000FAED
:100FD00070BD0000256409002564090A00000000B6
:100FE0004F43565F534F435F53686565740000007D
:100FF00070B5012000F0F4F80446B4F57A6F01DD15
:10100000002070BDA4F51670322100FB01F52846C2
:10101000F7E72DE9F0410446204600F0EBF9022005
:1010200000F0DEF80746042000F0DAF806463A46FB
:101030003146204600F0FDF905462846BDE8F0811E
:10104000FA20704770B5504D284601F027F8044645
:1010500000BF204670BD70B504464B4D2146284662
:1010600000F0EEFF70BD70B504460D462A462146DD
:10107000464800F0F5FFFFF7E5FF064646F001069B
:101080003046FFF7E8FF70BD2DE9F04104460D46FC
:101090003E48022101FB0507C82C03DB384600F05F
:1010A000FDFF06463046BDE8F08170B505460E46A8
:1010B000FFF7C8FF044644F002042046FFF7CBFFC9
:1010C00070BD2DE9B04381460022314B28463146A0
:1010D00004F0E4FE074605F002F884B22046BDE8BD
:1010E000B08370B5044621462A4800F0A9FFFFF7F7
:1010F000A9FF054645F004052846FFF7ACFF70BD83
:1011000070B5244C204600F0C9FF0546284670BD46
:1011100070B504462146204800F092FFFFF792FF89
:10112000054645F008052846FFF795FF70BD10B548
:10113000194800F0B3FF0446204610BD0146C1F532
:101140007A72164B33F81200704730B5044600220D
:101150004FF4806312E0D01800EBD075C5F34F0157
:101160000E4830F81100A04201DA0B4600E00A46B2
:10117000934202DD981A012800D100E0EBE700BF9E
:10118000C1F57A7080B230BD00780308000803080A
:1011900000002440006003080068030818000020D5
:1011A00070B504460D46E1B2054804F0E5F900BF0C
:1011B0004021034804F04EFA0028F9D0204670BDC3
:1011C0000038014010B580213B4801F05BF8012256
:1011D0008021394801F095F8012001F0AFF810BDE9
:1011E00038B5044600228021334801F08AF81E20D9
:1011F00001F075FB012C04D19421012001F0ABF822
:1012000016E0022C04D1D421012001F0A4F80FE053
:10121000032C04D1A421012001F09DF808E0042C46
:1012200004D1E421012001F096F801E0002038BD4E
:101230000021012001F08FF88DF80000002101202D
:1012400001F089F88DF801000021012001F083F8F8
:101250008DF80200FF21012001F07DF8FF2101201F
:1012600001F079F801228021134801F04AF89DF835
:1012700000000121B1EBE03F09D09DF80100B1EB86
:10128000E03F04D09DF80200B1EBE03F02D14FF601
:10129000FF750FE09DF8000040029DF8011040EA44
:1012A00041009DF8021040EAE11000034FF6FF7183
:1012B00001EA10452846BAE700100140F8B50725B5
:1012C000012002F01FF800222021012002F023F863
:1012D00001222421104602F01EF8072225210120B8
:1012E00002F019F801236A463721184602F020F867
:1012F0009DF80000C009BD4988719DF80000C0F349
:10130000801008709DF80000C0F34011B748C1710B
:101310009DF80000C0F30010B449487001236A46EC
:101320003821184602F004F8002416E09DF8000069
:10133000284100F00102AD48801DA11C4254681EE6
:10134000C5B29DF80000284100F00101A74AA01C89
:101350001154681EC5B2601CC4B2042CE6DB012324
:101360006A463B21184601F0E3FF9DF8000000F0BB
:1013700001009E4908769DF80000C0F340004876C1
:101380009DF80000C0F38000887601236A46302172
:10139000184601F0CDFF9DF8000000F00F009349C2
:1013A000C8769DF80000000908771126002417E090
:1013B00046F0200101236A46184601F0B9FF9DF866
:1013C000000000F00F0189480C3001559DF8000025
:1013D0000109864812300155701CC6B2601CC4B2A7
:1013E000062CE5DBF8BD10B516222121012001F005
:1013F00092FF10BD70B50546012D01D1102412E0F9
:10140000022D01D111240EE0032D01D112240AE096
:10141000042D01D1132406E0052D01D1142402E08E
:10142000062D00D1152422462121012001F073FF51
:1014300070BD2DE9F74F92B083464FF033316C48C1
:10144000CDE90C10ABF10100C4B26848005D68B989
:1014500066490C31085D04F021FE664A664BCDE911
:101460000A0104F01BFD05460E460FE05F490C31F2
:10147000095DC1F11001484204F0FFFD5D4A5E4B79
:10148000CDE90A0104F00AFD05460E465748801DC5
:10149000005D68B955491231085D04F0FFFD554AF9
:1014A000554BCDE90A0104F0F9FC074688460FE0E8
:1014B0004E491231095DC1F11001484204F0DDFDD1
:1014C0004C4A4D4BCDE90A0104F0E8FC074688463A
:1014D0004648007E20B94548C07E4FFA80F906E0B4
:1014E0004248C07EC0F1100040424FFA80F93F48A8
:1014F000807E40B93D48007F3C49497E00EB0110A9
:101500004FFA80FA0AE03948007F3849497E00EBFB
:101510000110C0F1200040424FFA80FA149804F004
:10152000BDFDCDE90601504604F0A7FD314A324B1E
:10153000CDE9020104F0B2FCCDE90401DDE90623A6
:1015400004F01EFDCDE90A01484604F096FD294A43
:10155000294BCDE9040104F0A1FC0022274BCDE981
:10156000060104F0F4FBCDE90801DDE90A2304F0EB
:10157000EEFBCDE90E012A46334600201F4904F058
:10158000E6FBCDE90801139804F088FDCDE90001E0
:10159000DDE90E2304F082FC3A464346CDE9020120
:1015A00004F0D5FBCDE90401DDE90C2304F0E8FCEF
:1015B000CDE90601DDE9082304F070FCCDE90A015C
:1015C00004F08DFD80B21090109815B0BDE8F08F3A
:1015D00010B580222521012001F09DFE10BD10B51F
:1015E00000222021012001F096FE10BDBA2F00201C
:1015F0003333E33FFCA9F1D24D62503F0000F03F8E
:1016000038B5044604F0010080B10121082002F041
:10161000FFFD10208DF8030003208DF8020020202C
:10162000ADF800006946DB4802F036FBC4F3400029
:1016300080B10121082002F0EBFD10208DF803009D
:1016400003208DF802004020ADF800006946D14823
:1016500002F022FBC4F3800080B10121082002F0D7
:10166000D7FD10208DF8030003208DF802008020A4
:10167000ADF800006946C74802F00EFBC4F3C00095
:1016800088B10121102002F0C3FD10208DF8030065
:1016900003208DF802004FF40060ADF800006946A9
:1016A000BD4802F0F9FAC4F3401088B101211020BE
:1016B00002F0AEFD10208DF8030003208DF802002B
:1016C0004FF48050ADF800006946B34802F0E4FAE8
:1016D000C4F3401088B10121102002F099FD1020C0
:1016E0008DF8030003208DF802004FF40050ADF890
:1016F00000006946A84802F0CFFAC4F3801088B110
:101700000121102002F084FD10208DF80300032039
:101710008DF802004FF48040ADF8000069469E4805
:1017200002F0BAFAE00988B10121102002F070FD40
:1017300010208DF8030003208DF802004FF4804044
:10174000ADF800006946944802F0A6FA38BD10B51D
:10175000044604F0010018B120218E4802F04BFB32
:10176000C4F3400018B140218A4802F044FBC4F39E
:10177000800018B18021874802F03DFBC4F3C0000F
:1017800020B14FF40061844802F035FBC4F300102F
:1017900020B14FF48051804802F02DFBC4F340107B
:1017A00020B14FF400517C4802F025FBC4F38010B7
:1017B00020B14FF48041784802F01DFBE00920B1D0
:1017C0004FF48041744802F016FB10BD10B504467A
:1017D00004F0010018B120216E4802F00AFBC4F3A6
:1017E000400018B140216B4802F003FBC4F38000B5
:1017F00018B18021674802F0FCFAC4F3C00020B1A0
:101800004FF40061644802F0F4FAC4F3001020B110
:101810004FF48051604802F0ECFAC4F3401020B15C
:101820004FF400515C4802F0E4FAC4F3801020B198
:101830004FF48041584802F0DCFAE00920B14FF43F
:101840008041554802F0D5FA10BD70B5054605F047
:10185000010078B120214F4802F0BEFA0446012C65
:1018600004D120214B4802F0C6FA03E02021494868
:1018700002F0BFFAC5F3400078B14021454802F0BC
:10188000ABFA0446012C04D14021424802F0B3FADD
:1018900003E040213F4802F0ACFAC5F3800078B184
:1018A00080213C4802F098FA0446012C04D18021A2
:1018B000384802F0A0FA03E08021364802F099FA95
:1018C000C5F3C00088B14FF40061334802F084FAD8
:1018D0000446012C04D1C1022F4802F08CFA04E026
:1018E0004FF400612C4802F084FAC5F3001088B16F
:1018F0004FF48051284802F06FFA0446012C04D1BD
:101900000103254802F077FA04E04FF480512248A1
:1019100002F06FFAC5F3401088B14FF400511E4831
:1019200002F05AFA0446012C04D141031A4802F08D
:1019300062FA04E04FF40051174802F05AFAC5F376
:10194000801088B14FF48041134802F045FA0446F4
:10195000012C04D18103104802F04DFA04E04FF449
:1019600080410D4802F045FAE80988B14FF4804102
:10197000094802F031FA0446012C04D181030648DB
:1019800002F039FA04E04FF48041034802F031FAE2
:1019900070BD0000000C0140001001403D4800688F
:1019A000704701463C4A3B4B1B68D018394A1268C5
:1019B0000A44384B1A601A46126842F210739A426F
:1019C00001D900BFFEE77047F0B5034600200024B0
:1019D00011E011F814700546461CB0B25F559042F4
:1019E00000D10AE031F814502F0A0546461CB0B267
:1019F0005F55651CACB29042EBDB00BFF0BDF0B5AB
:101A000003460020002427E011F824700546461CF8
:101A1000B0B25F55904200D120E031F82450C5F3B8
:101A200007270546461CB0B25F55904200D115E02D
:101A300051F82450C5F307470546461CB0B25F5520
:101A4000904200D10AE051F824502D0E0646471C62
:101A5000B8B29D55651CACB29042D5DB00BFF0BD5D
:101A600010B50A46014600240C60D3780C6804EBDC
:101A700003640C6093780C6804EB03440C605378A7
:101A80000C6804EB03240C6013780C681C440C6095
:101A900010BD000018080020D72F00208168491CC5
:101AA0008160D0E90121914203D3D0E90121891A53
:101AB0008160704770B504460D460020A060E0606C
:101AC00065602846FFF76DFF206070BD00218160D2
:101AD000C160704710B5044600206060206804F0C3
:101AE00041FD10BD30B503460D46D3E9020144184F
:101AF0005868A04201D85868241A186805555968D2
:101B0000D868884204D11846FFF7C8FF012030BDCD
:101B1000D868401CD8600020F9E72DE9F04105465F
:101B20000E4617464FF00008E86808B94FF0010864
:101B3000002405E0315D2846FFF7D4FF601C84B225
:101B4000BC42F7DB4046BDE8F08130B503460C46A9
:101B5000D86858B199681868455C1846FFF79EFF29
:101B6000D868401ED8602570012030BD0020FCE7F9
:101B700038B505460C4669462846FFF7E6FF0128BA
:101B800004D19DF800002070012038BD0020FCE742
:101B90002DE9F04104460D46A08986B2E06810B9EF
:101BA0000020BDE8F081D4E9020108446168884260
:101BB00007D2A3682068C1182846E26803F0DBFF5B
:101BC00012E0D4E90103C21A2068C118284603F0C4
:101BD000D2FF6768E368DB1BA768DA196368DB1B61
:101BE0005819216803F0C7FF0020E060A06030466C
:101BF000D7E710B502460B46D06898420AD99068DC
:101C0000C1185068884201D85068091A1068445CAD
:101C1000204610BD0020FCE710B504466820FFF701
:101C2000C0FE20600020A080012010BD10B502463B
:101C30009088401C1A2390FBF3F403FB140090805F
:101C40009388106840F82310012010BD30B502467B
:101C500000230DE09088401C1A2490FBF4F504FB4F
:101C6000150090809488106840F82410581CC3B266
:101C70001A2BEFDB012030BD10B503460C469888C7
:101C8000801A01B2002902DA01F11A0001B21868C3
:101C900040F8214010BD02460B469088C01A01B2A0
:101CA000002902DA01F11A0001B2106850F821008F
:101CB000704710B504466820FFF773FE20600020CF
:101CC000A08010BD10B502469088401C1A2390FBDE
:101CD000F3F403FB140090809388106840F82310FD
:101CE00010BD10B503460C469888801A01B2002931
:101CF00002DA01F11A0001B2186840F8214010BD63
:101D000002460B469088C01A01B2002902DA01F19E
:101D10001A0001B2106850F8210070472DE9F04117
:101D200006460C4600210F468846002500BF06E007
:101D300036F81500C71948F10008681C85B2A5429D
:101D4000F6DB224600233846414603F0E3FE80B22C
:101D5000BDE8F08110B502460B460021002000BF0F
:101D600004E0545C0444E0B24C1CE1B29942F8DB5C
:101D700010BD70B503460024A5250D705A254D7081
:101D80001D7B8D700D784E7835448E783544ECB2DD
:101D9000002009E01D682E5CC51C4E551D682D5C99
:101DA0002544ECB2451CE8B2384D2D78A842F1DB51
:101DB000C51C4C55051D158070BD2DE9F0438046AE
:101DC00089460024002600255BE03048007805287D
:101DD00000DA57E000240BE02D48005DA52805D16E
:101DE0002B49601C085C5A2800D106E0601CC4B274
:101DF00026480078401EA042EEDC00BF2348007851
:101E0000001B22490870002605E0A0192049085C43
:101E10008855701CC6B21D4800788642F5DB1B4809
:101E20000078022801DD1A488578E81EC5B21748F7
:101E30000178E81C814224DBA81CC1B21448FFF7DA
:101E400089FFE91C124A515C88420DD1002706E047
:101E5000F81C0F49085C08F80700781CC7B2681E18
:101E6000B842F5DCA9F80000002405E00849601C30
:101E7000085C0855601CC4B204480078401EA042AB
:101E8000F4DCA2E700BFBDE8F08300003C080020BE
:101E9000385700202DE9FC5F04460E46174604EB38
:101EA000870800200090814600254FF0010B01F0CB
:101EB000C8FBA8EB04000090352001F06AFE042066
:101EC000019000BF07E0012101FB094001F0FEFB8A
:101ED000019009F101090098814503D29DF80400A1
:101EE0000428F0D025464FF0000A09E050460AF1D8
:101EF000010A56F82010284601F0BEFC01902D1D65
:101F0000454503D29DF804000428EFD025464FF044
:101F1000000A0DE02A6850460AF1010A56F820002E
:101F2000824204D04FF0000B0120BDE8FC9F2D1D24
:101F3000454502D2BBF1000FECD10020F5E72DE9B9
:101F4000F04103460C4603EB8205012600210027E1
:101F5000194606E0D1F8008038467F1C44F82080FE
:101F6000091DA94201D2002EF4D10020BDE8F08164
:101F700070B504460D461646324629462046FFF700
:101F800089FF70BD70B504460D4616463246294697
:101F90002046FFF7D4FF70BD70474248006940F00B
:101FA00080004049086170473E48C16801F0010067
:101FB00008B10120704701F0040008B10220F9E7E0
:101FC00001F0100008B10320F4E70020F2E770B53B
:101FD000044600BFFFF7E8FF0546012D00D006E0EC
:101FE000012000F07CFC601E84B2002CF2D100BF06
:101FF00004B9FF25284670BD70B50546002445F696
:10200000FF70FFF7E4FF0446C4B92648006940F0BA
:1020100002002449086108464561006940F040001B
:10202000086145F6FF70FFF7D2FF0446012C05D08A
:102030001C48006920F002001A490861204670BD62
:1020400070B504460D4601F0FCFA352001F0A1FD03
:10205000204601F03BFB2946204601F044FC70BDC0
:102060002DE9F04105460E46174601F0EAFA352003
:1020700001F08FFD284601F029FB0020044609E00D
:1020800036F81410022202FB045001F02CFC601CF4
:1020900080B20446BC42F3DBBDE8F081014608880B
:1020A000704700000020024000B585B001216F4854
:1020B00002F0BBF8C020ADF8000003208DF802004C
:1020C0001C208DF803006946694801F0E5FD0020F9
:1020D000ADF808004BF6FF70ADF80A003020ADF8FF
:1020E0000C004FF48060ADF80E000001ADF8100058
:1020F0006048019001A9604803F01FFB01215E4880
:1021000003F099FB01215C4803F0D1FB05B000BD51
:1021100070B506460D46144600BF4FF400315648D0
:1021200003F0A2FC0028F8D10121534803F0BFFBC3
:102130000121514803F0A3FB00BF50494E4803F072
:1021400071FC0028F9D07006010E01224A4803F004
:10215000ECFB00BF4949491C474803F063FC0028D9
:10216000F8D018E0012C07D10021434803F09FFB71
:102170000121414803F08FFB00BF40493F313E48F9
:1021800003F050FC0028F8D03B4803F0CAFB28704D
:102190006D1C601E84B2002CE4D10121364803F08E
:1021A00086FB70BD70B505460E4657E0002406E07C
:1021B000601C84B242F21070844200DD06E04FF4ED
:1021C00000312D4803F050FC0028F1D100BF01215F
:1021D000294803F054FB06E0601C84B242F2107000
:1021E000844200DD05E02549234803F01BFC00285C
:1021F000F2D000BF6806010E00221F4803F095FBD5
:1022000006E0601C84B242F21070844200DD05E0FA
:102210001B49194803F006FC0028F2D000BF3146E4
:10222000154803F07CFB06E0601C84B242F210709B
:10223000844200DD06E01249891C0F4803F0F2FBDE
:102240000028F1D000BF42F21070844205DD0A4838
:1022500003F05AFAFFF728FF00E000E0A6E700BF0E
:102260000121054803F017FB70BD000008002000A5
:10227000000C0140A0860100005400400100030052
:102280008200070038B504460D462648844204D132
:102290000121042001F0BCFF26E02348844204D140
:1022A0000121082001F0B4FF1EE02048844204D13F
:1022B0000121102001F0ACFF16E01D48844204D13A
:1022C0000121202001F0A4FF0EE01A48844204D12D
:1022D0000121402001F09CFF06E01748844203D111
:1022E0000121802001F094FF10208DF803000320CD
:1022F0008DF80200ADF800506946204601F0CCFC94
:1023000038BD70B505460E46144624B931462846F8
:1023100001F071FD03E03146284601F06AFD70BD11
:102320007047000000080140000C0140001001400F
:102330000014014000180140001C014010B5044683
:10234000012C02D100F016F803E0022C01D001208C
:1023500010BD0120FCE770B504460D460026012C97
:1023600004D1284600F0DDF8064600E000BFF0B2D8
:1023700070BD000000B587B0012141F2040001F0FA
:1023800047FF0121102001F043FF10208DF81B00B2
:1023900003208DF81A008020ADF8180006A9964891
:1023A00001F07AFC10208DF81B0003208DF81A0034
:1023B0004020ADF8180006A98F4801F06DFC1020F0
:1023C0008DF81B0003208DF81A000420ADF81800CA
:1023D00006A9894801F060FC10208DF81B0003203D
:1023E0008DF81A004FF40070ADF8180006A9824865
:1023F00001F052FC10208DF81B0003208DF81A000C
:102400001020ADF8180006A97B4801F045FC10200B
:102410008DF81B0003208DF81A002020ADF818005D
:1024200006A9754801F038FC18208DF81B00032020
:102430008DF81A002020ADF8180006A96F4801F0A9
:102440002BFC18208DF81B0003208DF81A0080202B
:10245000ADF8180006A9694801F01EFC04208DF8AB
:102460001B004020ADF8180006A9644801F014FCD8
:102470000020ADF804004FF48270ADF80600002093
:10248000ADF808000220ADF80A000120ADF80C00FC
:102490004002ADF80E001020ADF810000020ADF89D
:1024A00012000720ADF8140001A9554801F03AFFC9
:1024B0000121534801F0DBFF07B000BD014605E0F4
:1024C000002001E0421CD0B2FA28FBDB0A00A1F197
:1024D000010399B2F4D1704770B50446002500BFDE
:1024E0000221474802F047F80028F9D0002521468C
:1024F000434801F0EDFF70BD10B5002406E0204612
:10250000641C4049884201D9002010BD01213C488B
:1025100002F031F80028F2D0394801F0DBFFC0B2F8
:10252000F3E710B5044600BF0221354802F023F856
:102530000028F9D02146324801F0CAFF00BF01212E
:102540002F4802F018F80028F9D02D4801F0C2FFFA
:10255000C0B210BD70B505460C46012D0AD124B994
:102560008021254801F047FC45E08021224801F008
:1025700040FC40E0022D0AD124B940211E4801F060
:102580003AFC38E040211C4801F033FC33E0032DD5
:102590000AD124B90421184801F02DFC2BE00421B4
:1025A000154801F026FC26E0042D0BD124B9E901E1
:1025B000114801F020FC1EE04FF400710E4801F0BC
:1025C00018FC18E0052D0AD124B910210A4801F0A1
:1025D00012FC10E01021084801F00BFC0BE0062D66
:1025E00009D124B92021044801F005FC03E0202191
:1025F000014801F0FEFB70BD0010014000080140E1
:102600000030014080969800704700BFFEE700BF91
:10261000FEE700BFFEE700BFFEE770477047704768
:1026200010B500F086F910BD08B540F22551864876
:1026300003F026F801280CD1834802F0A1FFC0B2B4
:1026400000908248006820B1804801689DF8000031
:10265000884740F227717C4803F012F8012814D112
:102660007A48806988B17948816968468847012835
:1026700005D19DF80010744802F07EFF05E00022AD
:1026800040F22771704802F016FF08BD08B540F20D
:1026900025516F4802F0F4FF60B16D4802F070FF01
:1026A000C0B200906948406820B1684841689DF810
:1026B0000000884740F22771654802F0E1FFA0B1B1
:1026C0006248C06988B16148C16968468847012885
:1026D00005D19DF800105E4802F04EFF05E0002293
:1026E00040F227715A4802F0E6FE08BD08B540F2F4
:1026F0002551584802F0C4FF60B1564802F040FF2F
:10270000C0B200905148806820B1504881689DF85F
:102710000000884740F227714E4802F0B1FFA0B197
:102720004A48006A88B14948016A684688470128D2
:1027300005D19DF80010474802F01EFF05E0002279
:1027400040F22771434802F0B6FE08BD08B540F2DA
:102750002551414802F094FF60B13F4802F010FF5C
:10276000C0B200903948C06820B13848C1689DF8AF
:102770000000884740F22771374802F081FFA0B17E
:102780003248406A88B13148416A68468847012822
:1027900005D19DF80010304802F0EEFE05E0002261
:1027A00040F227712C4802F086FE08BD10B50121C9
:1027B000880702F090FD90B10121880702F09CFD8E
:1027C00000F03CF900F02BF9044600F040F9844297
:1027D00005D3002000F020F91C49486B804710BD4C
:1027E00010B501211D4802F076FD90B101211B4872
:1027F00002F082FD00F096F900F091F9044600F035
:1028000026F9844205D3002000F086F90F49886B31
:10281000804710BD10B50121114802F05CFD90B158
:1028200001210F4802F068FD00F0F0F900F0EBF92B
:10283000044600F0F4F9844205D3002000F0E0F9EA
:102840000249C86B804710BD00380140E85600209F
:102850000044004000480040004C0040000400409C
:102860000008004010B5002807DA0A07140E354AA0
:1028700000F00F031B1FD45403E00A07130E324A63
:10288000135410BD10B5314800683149B0FBF1F464
:10289000B4F1807F01D3012011E024F07F40401E7D
:1028A0004FF0E02148610F214FF0FF30FFF7DAFFD2
:1028B00000204FF0E021886107200861002008B166
:1028C00000BFFEE74FF0E020006920F001004FF06C
:1028D000E02108610021481EFFF7C4FF10BD01B5CB
:1028E0001C49009808604FF0E020006940F00100AA
:1028F0004FF0E021086100BF164800680028FBD1B6
:1029000008BD01B5002204E04FF47A70FFF7E7FF3D
:10291000521C00988242F7D308BD11B5002404E090
:102920004FF47A70FFF7EDFF641C00988442F7D3F0
:1029300018BD0848006820B106480068401E0549D7
:102940000860704718ED00E000E400E04008002057
:1029500040420F001C0800201FB504460121084614
:1029600001F063FC4FF0804001F03CFE40F2E730A4
:10297000ADF808004720ADF804000020ADF80A00CB
:10298000ADF8060001A94FF0804001F0FFFE4FF4C2
:10299000806000F0C9FD1C208DF8000001208DF83A
:1029A000010000208DF8020001208DF80300684628
:1029B00000F0BFFD0121880702F08AFC01221146C8
:1029C000900702F0D6F90121880702F0B7F900213B
:1029D000012001F02AFC00201E4908601E48046006
:1029E00000201E4908601FBD10B50020194908606D
:1029F0000121084601F019FC0121880702F09EF927
:102A000010BD10B500214FF0804002F097F9002171
:102A1000012001F00AFC10BD0E49086070470D4806
:102A2000006870470D49086070470C48006870479F
:102A30000A480068401C094908607047054800685A
:102A4000401C0449086070470549486370470248C4
:102A50000068704720080020240800202808002073
:102A6000E85600201FB504460121022001F0DDFBDD
:102A7000324801F0B7FD40F2E730ADF808004720DA
:102A8000ADF804000020ADF80A00ADF8060001A979
:102A90002A4801F07BFE4FF4806000F045FD1D20C8
:102AA0008DF8000003208DF8010000208DF8020051
:102AB00001208DF80300684600F03BFD01211F480E
:102AC00002F006FC012211461C4802F052F90121D5
:102AD0001A4802F033F90021022001F0A6FB002081
:102AE00017490860174804601FBD10B5002014493D
:102AF00008600121022001F098FB01210F4802F03B
:102B00001DF910BD10B500210C4802F017F9002185
:102B1000022001F08AFB10BD09490860704708488F
:102B20000068704706480068401C05490860704707
:102B300005498863704703480068704700040040F7
:102B40002C08002030080020E85600201FB504465D
:102B50000121042001F069FB324801F043FD40F2FD
:102B6000E730ADF808004720ADF804000020ADF8CC
:102B70000A00ADF8060001A92A4801F007FE4FF44B
:102B8000806000F0D1FC1E208DF8000002208DF83E
:102B9000010000208DF8020001208DF80300684636
:102BA00000F0C7FC01211F4802F092FB01221146F0
:102BB0001C4802F0DEF801211A4802F0BFF800219B
:102BC000042001F032FB0020174908601748046018
:102BD0001FBD10B50020144908600121042001F038
:102BE00024FB01210F4802F0A9F810BD10B5002107
:102BF0000C4802F0A3F80021042001F016FB10BDE0
:102C0000094908607047084800687047064800682E
:102C1000401C0549086070470549C8637047034870
:102C20000068704700080040340800203808002081
:102C3000E856002070B504460D461646012C09D111
:102C4000284600F074F8304600F0FDF8304600F0F9
:102C500001F919E0022C06D1284600F031F930467E
:102C600000F0B1F910E0032C06D1284600F0DEF99F
:102C7000304600F05AFA07E0042C05D1284600F04F
:102C80008FFA304600F014FB70BD70B504460D4657
:102C90001646012C04D13146284600F0E3F813E033
:102CA000022C04D13146284600F096F90CE0032CA2
:102CB00004D13146284600F041FA05E0042C03D146
:102CC0003146284600F0FDFA70BD70B504460D4649
:102CD000012C03D1284600F01DF810E0022C03D18E
:102CE000284600F08EF90AE0032C03D1284600F0B4
:102CF0003AFA04E0042C02D1284600F0F7FA70BD3D
:102D00006349644A1278885462490978491C614AC7
:102D10001170704760490860704710B5044621463D
:102D20005E48FEF725FF10BD5B498861704710B50E
:102D300088B004460121880301F06AFA01210420C9
:102D400001F066FA4FF40070ADF81C0003208DF816
:102D50001E0018208DF81F0007A9514800F09CFFA5
:102D60004FF48060ADF81C0048208DF81F0007A9C3
:102D70004B4800F091FF03940020ADF81000ADF82F
:102D80001200ADF81400ADF818000C20ADF81600D4
:102D900003A9444802F0F7FA684602F07AFB694654
:102DA000404802F065FB4FF4806000F0BDFB252039
:102DB0008DF8080000208DF809008DF80A00012028
:102DC0008DF80B0002A800F0B4FB012240F225515F
:102DD000344802F070FB0121324802F060FBAFF290
:102DE000C500FFF7A1FFAFF2E700FFF793FF08B0C0
:102DF00010BD1FB5044600940020ADF80400ADF8E6
:102E00000600ADF80800ADF80C000C20ADF80A0083
:102E10006946244802F0B7FA1FBD38B50446802140
:102E2000204802F017FC01280CD16846A0479DF805
:102E300000101C4802F0A0FB012240F22771194843
:102E400002F039FB38BD10B5044621461348FEF7A1
:102E500031FE10BD05210F4A117070470F487047B1
:102E60001148704770B505460C4600260CB9002085
:102E700070BD224629460948FEF74FFE0646012E40
:102E800003D1AFF26910FFF7C8FF0120F0E700009F
:102E9000385700203C080020E85600203859002010
:102EA00000080140003801404859002010B5044690
:102EB00021465548FEF75CFE10BD5449C861704775
:102EC00010B588B004460121480401F0AEF9012193
:102ED000042001F09DF90420ADF81C0003208DF8BA
:102EE0001E0018208DF81F0007A9494800F0D4FEE5
:102EF0000820ADF81C0048208DF81F0007A94448A1
:102F000000F0CAFE03940020ADF81000ADF81200E6
:102F1000ADF81400ADF818000C20ADF8160003A9A8
:102F20003C4802F030FA684602F0B3FA6946394884
:102F300002F09EFA26208DF8080005208DF8090081
:102F400000208DF80A0001208DF80B0002A800F087
:102F5000F0FA01212F4802F0A2FA012240F2255195
:102F60002C4802F0A8FAAFF2BB00FFF7A6FF08B0AA
:102F700010BD1FB5044600940020ADF80400ADF864
:102F80000600ADF80800ADF80C000C20ADF80A0002
:102F90006946204802F0F7F91FBD38B50446802184
:102FA0001C4802F057FB01280CD16846A0479DF849
:102FB0000010184802F0E0FA012240F2277115488B
:102FC00002F079FA38BD10B5044621460E48FEF7E6
:102FD00071FD10BD0C48704770B505460C460026C3
:102FE0000CB9002070BD224629460748FEF795FD22
:102FF0000646012E03D1AFF24B10FFF7CEFF0120A2
:10300000F0E702494860704758590020E856002010
:10301000000801400044004010B5044621465748CE
:10302000FEF7A6FD10BD56490862704710B588B07E
:1030300004460121880401F0F8F80121082001F07C
:10304000E7F827208DF8080001208DF809000020FE
:103050008DF80A0001208DF80B0002A800F069FA33
:103060004FF48060ADF81C0003208DF81E0018207E
:103070008DF81F0007A9434800F00EFE4FF40060D2
:10308000ADF81C0048208DF81F0007A93D4800F04E
:1030900003FE03940020ADF81000ADF81200ADF867
:1030A0001400ADF818000C20ADF8160003A936483E
:1030B00002F069F9684602F0ECF96946324802F01C
:1030C000D7F90121304802F0EAF9AFF2B300FFF777
:1030D000AAFF08B010BD1FB5044600940020ADF84B
:1030E0000400ADF80600ADF80800ADF80C000C20A7
:1030F000ADF80A006946244802F045F91FBD38B50D
:1031000004468021204802F0A5FA01280CD1684627
:10311000A0479DF800101C4802F02EFA012240F250
:103120002771194802F0C7F938BD10B50446214689
:103130001248FEF7BFFC10BD1048704770B5054639
:103140000C4600260CB9002070BD224629460B48CB
:10315000FEF7E3FC0646012E03D1AFF24310FFF762
:10316000CEFF0120F0E710B5044605488460012237
:1031700040F22551044802F09EF910BD6859002024
:10318000E8560020000C01400048004010B50446FD
:1031900021465848FEF7ECFC10BD5749486270477D
:1031A00010B588B004460121C80401F03EF80121A1
:1031B000102001F02DF84FF48060ADF81C000320C2
:1031C0008DF81E0018208DF81F0007A94B4800F04D
:1031D00063FD4FF40060ADF81C0003208DF81E0065
:1031E00048208DF81F0007A9444800F055FD0394BE
:1031F0000020ADF81000ADF81200ADF81400ADF8E5
:1032000018000C20ADF8160003A93D4802F0BBF8E9
:10321000684602F03EF96946394802F029F934203F
:103220008DF8080004208DF8090000208DF80A00B0
:1032300001208DF80B0002A800F07BF90121304835
:1032400002F02DF9012240F225512D4802F033F908
:10325000AFF2C700FFF7A1FF08B010BD1FB50446CD
:1032600000940020ADF80400ADF80600ADF80800A9
:10327000ADF80C000C20ADF80A006946204802F0B9
:1032800082F81FBD38B5044680211D4802F0E2F9DE
:1032900001280CD16846A0479DF80010184802F09C
:1032A0006BF9012240F22771154802F004F938BD8C
:1032B00010B5044621460F48FEF7FCFB10BD0D4833
:1032C000704770B505460C4600260CB9002070BD4D
:1032D000224629460748FEF720FC0646012E03D168
:1032E000AFF25710FFF7CEFF0120F0E70249C860A8
:1032F0007047000078590020E85600200010014077
:10330000004C004010B50446012C02D1FEF7CCFE63
:1033100000E000BF10BD70B506460C461546012EF4
:1033200004D129462046FEF73DFF00E000BF70BDF6
:103330002DE9F04107460C4615461E46012F05D1E2
:10334000324629462046FEF7E3FE00E000BFBDE816
:10335000F08100000CB50020019000906A480068E0
:1033600040F480306849086000BF6748006800F496
:10337000003000900198401C0190009818B9019805
:10338000B0F5A06FF1D16048006800F4003010B1D2
:103390000120009001E0002000900098012843D116
:1033A0005A48006840F01000584908600846006814
:1033B00020F0030008600846006840F00200086042
:1033C000514840685049486008464068486008468F
:1033D000406840F4806048600846406820F47C10F3
:1033E00048600846406840F4E810486008460068B5
:1033F00040F08070086000BF4348006800F0007033
:103400000028F9D04048406820F003003E49486059
:103410000846406840F00200486000BF3A484068F3
:1034200000F00C000828F9D10CBD10B5FFF792FF91
:1034300010BD10B53448006840F001003249086002
:1034400008464068324908402F49486008460068ED
:10345000304908402C4908600846006820F4802064
:1034600008600846406820F4FE0048604FF41F00E2
:103470008860FFF7DAFF10BD10B5002100200022A0
:10348000214B5B6803F00C0121B1042906D0082907
:1034900028D107E0204B214C236027E01E4B1F4C16
:1034A000236023E0184B5B6803F47010164B5B68D5
:1034B00003F48032022303EB904022B9184B4343BC
:1034C000164C23600DE0104B5B6803F4003323B10E
:1034D000134B4343114C236003E00F4B43430F4C0A
:1034E000236003E00C4B0D4C236000BF00BF064B74
:1034F0005B68C3F303130B4CE15C084B1B68CB40C8
:10350000064C236010BD0000001002400020024065
:103510000000FFF8FFFFF6FE00127A0040080020CE
:1035200000093D004408002031490143314A11603F
:10353000704770B5002100230F22C47804B32D4CCE
:10354000246804F4E064C4F5E064210AC1F10403D2
:10355000CA40447804FA03F18478144021430901F5
:10356000254C0678A155047804F01F050124AC40D1
:1035700005786D11AD0005F1E025C5F8004109E0C1
:10358000047804F01F050124AC401C4D0678761128
:1035900045F8264070BD1A4A0A400243154B1B1FCE
:1035A0001A60704739B1134A121D12680243114B59
:1035B0001B1D1A6006E00F4A121D126882430D4B54
:1035C0001B1D1A607047042808D14FF0E0210969DB
:1035D00041F004014FF0E022116107E04FF0E021DB
:1035E000096921F004014FF0E022116170470000E9
:1035F0000000FA050CED00E000E400E080E100E0EE
:1036000080FFFF1F01460020FE4A106800F03800CE
:10361000084310607047FB49096821F00801F94A26
:10362000116011460968014311607047F549096846
:1036300021F01001F34A116011460968014311603D
:103640007047F148EF494860F04848607047EE48DD
:10365000EC494860ED4848607047EA48006940F02E
:103660008000E84908617047E648006940F0800042
:10367000E449086170470420E249C96801F001018A
:1036800009B101200EE0DF49C96801F0040109B168
:10369000022007E0DB49C96801F0100109B10320ED
:1036A00000E00420704700B502460423FFF7E3FF63
:1036B000034603E0FFF7DFFF0346521E012B01D153
:1036C000002AF7D102B90523184600BD30B50546DA
:1036D00004244FF43020FFF7E6FF0446042C19D1F0
:1036E000C848006940F00200C649086108464561C3
:1036F000006940F0400008614FF43020FFF7D3FF2D
:103700000446052C06D0BF48006941F6FD7108400B
:10371000BC490861204630BD10B504244FF4302068
:10372000FFF7C1FF0446042C18D1B648006940F0E9
:103730000400B44908610846006940F0400008618F
:103740004FF43020FFF7AFFF0446052C06D0AD48FC
:10375000006941F6FB710840AA490861204610BD86
:1037600000B502460423FFF786FF034603E0FFF798
:1037700082FF0346521E012B01D1002AF7D102B964
:103780000523184600BD10B504244FF43020FFF780
:10379000E7FF0446042C18D19A48006940F0040061
:1037A000984908610846006940F0400008614FF4FC
:1037B0003020FFF7D5FF0446052C06D0914800695C
:1037C00041F6FB7108408F490861204610BD00207A
:1037D0008C49C96901F0020109B1012000E0002013
:1037E000704730B5A5250424FFF7F1FF00B100258F
:1037F0004FF43020FFF757FF0446042C3AD182489B
:1038000080498860814888600846006940F020004F
:1038100008610846006940F0400008614FF430201C
:10382000FFF741FF0446042C1BD17648006941F69E
:10383000DF710840734908610846006940F01000D4
:10384000086173480580E002FFF72DFF0446052C50
:1038500010D06C48006941F6EF7108406949086171
:1038600008E0052C06D06748006941F6EF71084072
:1038700064490861204630BD78B506460D460424EB
:1038800000200090E002FFF70EFF0446042C28D130
:103890005C48006940F001005A4908613580E00247
:1038A000FFF701FF0446042C12D1B01C0090280C35
:1038B00000990880E002FFF7F6FE0446052C10D0C0
:1038C0005048006941F6FE7108404E49086108E021
:1038D000052C06D04B48006941F6FE710840494965
:1038E0000861204678BD70B505460E460424E00206
:1038F000FFF7D9FE0446042C13D14248006940F07A
:103900000100404908612E80E002FFF7CCFE04462A
:10391000052C06D03B48006941F6FE710840394944
:103920000861204670BD70B505460E460424E002CD
:10393000FFF7B9FE0446042C17D13348314988609B
:10394000324888600846006940F0100008612E8007
:10395000E002FFF7A8FE0446052C06D029480069BE
:1039600041F6EF71084027490861204670BD2DE9F6
:10397000F04304464FF6FF763746B046B14604257D
:10398000E443E6B2C4F30727C4F307484FEA1469D7
:10399000E802FFF788FE0546042D4AD11A48194966
:1039A00088601A4888600846006940F01000086185
:1039B000FF2E06D0164808300680E802FFF773FE97
:1039C0000546042D08D1FF2F06D011480A30078084
:1039D000E802FFF768FE0546042D0AD1B8F1FF0F93
:1039E00007D00B480C30A0F80080E802FFF75BFE20
:1039F0000546042D14D1B9F1FF0F11D004480E3043
:103A000008E000000020024023016745AB89EFCDAC
:103A100000F8FF1FA0F80090E802FFF744FE0546FB
:103A2000052D06D06848006941F6EF7108406649E7
:103A300008612846BDE8F08330B5054604244FF4FC
:103A40003020FFF730FE0446042C41D15F485E4928
:103A500088605F4888600846006940F0200008617F
:103A60000846006940F0400008614FF43020FFF73D
:103A70001AFE0446042C22D15348006941F6DF7136
:103A80000840514908610846006940F0100008618B
:103A90001DB100204F49088002E0A5204D49088053
:103AA0004FF43020FFF7FFFD0446052C10D04648A8
:103AB000006941F6EF7108404349086108E0052CB0
:103AC00006D04148006941F6DF7108403E4908616F
:103AD000204630BDF0B505460E46174604243B4847
:103AE000394988603A488860E002FFF7DCFD044607
:103AF000042C19D13448006940F0100032490861A3
:103B000047F0F800304328433249891C0880E0021E
:103B1000FFF7C9FD0446052C06D02B48006941F685
:103B2000EF710840284908612046F0BD2648C06969
:103B3000800870472448006A7047002022490968BD
:103B400001F0200109B1012000E00020704729B1F7
:103B50001D4A126902431C4B1A6104E01A4A126999
:103B60008243194B1A61704701460020012908D190
:103B7000154AD26902F001020AB1012008E00020D2
:103B800006E0114AD2680A400AB1012000E0002094
:103B900070470D49C860704704200B49C96801F09F
:103BA000010109B101200EE00749C96801F00401D3
:103BB00009B1022007E00449C96801F0100109B108
:103BC000032000E0042070470020024023016745E5
:103BD000AB89EFCD00F8FF1F10B50446CC488442F6
:103BE00008D10121042000F02DFB0021042000F069
:103BF00029FB46E0C748844208D10121082000F093
:103C000021FB0021082000F01DFB3AE0C24884425D
:103C100008D10121102000F015FB0021102000F038
:103C200011FB2EE0BD48844208D10121202000F084
:103C300009FB0021202000F005FB22E0B848844267
:103C400008D10121402000F0FDFA0021402000F0C1
:103C5000F9FA16E0B348844208D10121802000F02F
:103C6000F1FA0021802000F0EDFA0AE0AE4884422B
:103C700007D10121801500F0E5FA0021A01500F020
:103C8000E1FA10BD10B50121084600F0DBFA002171
:103C9000012000F0D7FA10BD2DE9F04102460025C1
:103CA0000026002000230024002791F803C00CF018
:103CB0000F0591F803C00CF0100CBCF1000F03D0FD
:103CC00091F802C04CEA050591F800C0BCF1000F64
:103CD00031D0146800202BE04FF0010C0CFA00F3F7
:103CE000B1F800C00CEA03069E4220D183004FF0D9
:103CF0000F0C0CFA03F7BC4305FA03FC4CEA04046E
:103D000091F803C0BCF1280F06D14FF0010C0CFA5A
:103D100000FCC2F814C00AE091F803C0BCF1480FDF
:103D200005D14FF0010C0CFA00FCC2F810C0401C89
:103D30000828D1D31460B1F800C0BCF1FF0F34DD06
:103D4000546800202EE000F1080C4FF0010808FA3A
:103D50000CF3B1F800C00CEA03069E4221D18300A7
:103D60004FF00F0C0CFA03F7BC4305FA03FC4CEAC6
:103D7000040491F803C0BCF1280F05D100F1080C30
:103D800008FA0CF8C2F8148091F803C0BCF1480F8F
:103D900007D100F1080C4FF0010808FA0CF8C2F83E
:103DA0001080401C0828CED35460BDE8F0814FF647
:103DB000FF710180022181700421C17070470246A9
:103DC000002093680B400BB1012000E000207047F9
:103DD0000146886880B2704702460020D3680B40D5
:103DE0000BB1012000E0002070470146C86880B296
:103DF000704701617047416170470AB1016100E09D
:103E000041617047C16070474FF480320A4382615C
:103E10008161826182698269704702460020434B5A
:103E200018684FF68073184040EA021008433F4B71
:103E3000186070473E49C8617047F0B50A460023D4
:103E400000240021002500F00046B6F1004F02D109
:103E5000364EF16901E0354E7168C0F3034583B217
:103E600000F44016B6F5401F08D121F070612F4EC6
:103E7000766826F070662D4F7E6012E000F48016A2
:103E8000B6F5801F06D1032606FA05F4A14341F0DA
:103E9000706106E0460D360103FA06F6B14341F0C3
:103EA000706122B1460D360103FA06F6314300F087
:103EB0000046B6F1004F02D11C4EF16101E01B4EED
:103EC0007160F0BD30B500228B071C0F0F2303FA81
:103ED00004F2164B08338C1053F824309343134CE0
:103EE00008348D1044F8253023468C1053F82430C4
:103EF0008C07240F00FA04F423430C4C08348D1073
:103F000044F8253030BD0A49DC31086070470000B4
:103F100000080140000C0140001001400014014065
:103F200000180140001C0140002001400000014039
:103F300000002042DF48006840F00100DD490860D1
:103F400008464068DC490840DA494860084600688D
:103F5000DA490840D74908600846006820F4802004
:103F600008600846406820F4FE0048604FF41F00D7
:103F700088607047CF49096821F48031CD4A1160CB
:103F80001146096821F480211160B0F5803F03D00B
:103F9000B0F5802F0ED106E0C649096841F48031A2
:103FA000C44A116007E0C349096841F4A021C14A2D
:103FB000116000E000BF00BF704710B5014600224D
:103FC000002300204A11012A02D1BA4C236806E0DE
:103FD000022A02D1B74C236A01E0B64C636A01F0B1
:103FE0001F02012494401C400CB1012000E000207D
:103FF00010BD38B5002000900024002500BF3120FE
:10400000FFF7DBFF05460098401C00900098B0F5D4
:10401000A06F01D0002DF2D03120FFF7CEFF08B104
:10402000012400E00024204638BD01460020A14ABA
:10403000106820F0F80040EAC10010607047A04905
:1040400008607047024600209A4B586820F47C10A4
:1040500042EA01031843974B586070479849086635
:10406000704701460020934A506820F0030008433F
:10407000506070478F48406800F00C007047014660
:1040800000208C4A506820F0F000084350607047D0
:1040900001460020874A506820F4E06008435060E1
:1040A000704701460020834A506820F4605040EA7F
:1040B000C1005060704729B17E4A527A02437D4B5D
:1040C0005A7204E07B4A527A82437A4B5A727047A2
:1040D0007B49D8310860704701460020754A506816
:1040E00020F440400843506070470021714A20325C
:1040F0001170704A82F82010012802D004280AD1D9
:1041000004E001216B4A2032117005E00521694A63
:104110002032117000E000BF00BF7047694908609D
:1041200070476449096A0143624A116270476549F0
:1041300044390860704730B5002100220024002374
:104140005C4D6D6805F00C0121B1042905D00829EA
:1041500023D105E05C4D056022E05B4D05601FE06A
:10416000544D6D6805F47012524D6D6805F480343D
:10417000022505EB92421CB9544D554305600BE0F6
:104180004C4D6D6805F400351DB1504D554305602B
:1041900002E04D4D5543056002E04B4D056000BF08
:1041A00000BF444D6D6805F0F0010909484D6B5C96
:1041B0000568DD4045603F4D6D6805F4E061090A22
:1041C000434D6B5C4568DD4085603A4D6D6805F494
:1041D0006051C90A3E4D6B5C4568DD40C560354D98
:1041E0006D6805F44041890B3A4D6B5CC568B5FBC1
:1041F000F3F5056130BD29B12E4A526902432D4BBA
:104200005A6104E02B4A526982432A4B5A61704733
:1042100029B1284A92690243264B9A6104E0254A53
:1042200092698243234B9A61704729B1214AD2692E
:104230000243204BDA6104E01E4AD26982431D4BDF
:10424000DA61704729B11B4AD2680243194BDA6020
:1042500004E0184AD2688243164BDA60704729B1ED
:10426000144A12690243134B1A6104E0114A12699D
:104270008243104B1A6170471249403908607047F9
:104280000F49C86470470B49C87170470948406AB4
:1042900040F0807007494862704701460020054A97
:1042A00092680A400AB1012000E0002070470149ED
:1042B00088727047001002400000FFF8FFFFF6FE12
:1042C000000042428004424200127A0000093D0090
:1042D000540800206408002010B50446BE488442FB
:1042E00008D101218014FFF7ADFF0021A014FFF7D2
:1042F000A9FF16E0B948844208D101210014FFF754
:10430000AEFF00212014FFF7AAFF0AE0B448844260
:1043100007D10121C013FFF7A2FF0021E013FFF72F
:104320009EFF10BD10B50022028802F441520B8896
:104330004C8823438C882343CC8823430C89234314
:104340004C8923438C892343CC8923431A4302801D
:10435000838B4FF2FF74234083830B8A038210BD4B
:104360002DE9F04F85B005460C464FF000090227B5
:104370004FF000084FF0010B0026B246A88B4FF219
:1043800040010840A88302202884B5F81C90A0684A
:10439000022801D100BF38E0A08810B94FF0010B0E
:1043A00001E04FF0020B8D48854200D100E000BFD4
:1043B0006846FFF7C0FEDDF800A0E088B0F5007F9A
:1043C0000AD14FEA1A2000EB80004000A168B0FB40
:1043D000F1F0401D86B20BE04FEA4B10BAFBF0F053
:1043E00000EB80004000A168B0FBF1F0401D86B2F8
:1043F0000A20B6FBF0F606F00108A6EB0800C0F3B1
:104400004F074FF6FF7000EA0828022F01DBFF2F4D
:1044100002DD02274FF00008E08840EA0800384338
:104420002884A088A189084361880843218808431B
:1044300040F4006040EA0909A5F81C9005B0BDE809
:10444000F08F0021018041808180C1800181418104
:104450008181C18107210182704700210180418053
:104460008180C1800221816000218181704721B15A
:10447000028842F04002028004E002884FF6BF73D7
:104480001A400280704721B1828B42F4806282839D
:1044900004E0828B4FF6FF331A408283704730B5B9
:1044A000002400230C110125A540ABB21AB1858868
:1044B0001D43858002E085889D43858030BD1AB10B
:1044C00083880B43838002E083888B43838070471B
:1044D000818170470146888970474FF6FF6291429B
:1044E00004D0028842F48072028004E002884FF611
:1044F000FF631A400280704721B1828842F00402B3
:10450000828004E082884FF6FB731A4082807047F5
:1045100002884FF2FF731A40028002880A43028029
:104520007047018841F480510180704721B10288B1
:1045300042F40052028004E002884DF6FF731A40F4
:104540000280704702460020012901D0108B00E054
:10455000908A70470146088A7047B1F5804F04D1B0
:10456000028842F48042028004E002884BF6FF7326
:104570001A40028070470246002013890B400BB19D
:10458000012000E000207047CA4302817047F0B567
:104590000246002000240023002501F00F07012619
:1045A000BE40B4B20B1101269E40B3B2968806EA13
:1045B00003051689264016B10DB1012000E0002048
:1045C000F0BD10B5002201F00F040123A3409AB200
:1045D000D343038110BD000000300140003800408B
:1045E000003C004010B50446FE48844208D1012139
:1045F000C014FFF727FE0021E014FFF723FEC4E0FC
:10460000B4F1804F08D101210846FFF728FE0021B0
:104610000120FFF724FEB8E0F348844208D10121CD
:104620000220FFF71CFE00210220FFF718FEACE07D
:10463000EE48844208D101210420FFF710FE00213A
:104640000420FFF70CFEA0E0E948844208D10121D4
:104650000820FFF704FE00210820FFF700FE94E089
:10466000E448844208D101211020FFF7F8FD002121
:104670001020FFF7F4FD88E0DF48844208D10121D3
:104680002020FFF7ECFD00212020FFF7E8FD7CE073
:10469000DA48844208D101214014FFF7D3FD0021FC
:1046A0006014FFF7CFFD70E0D548844209D10121A5
:1046B000C804FFF7C7FD00214FF40020FFF7C2FD3B
:1046C00063E0D048844209D101210805FFF7BAFD13
:1046D00000214FF48010FFF7B5FD56E0CA48844230
:1046E00009D101214805FFF7ADFD00214FF400106D
:1046F000FFF7A8FD49E0C548844208D101214020C8
:10470000FFF7ADFD00214020FFF7A9FD3DE0C048C7
:10471000844208D101218020FFF7A1FD00218020E3
:10472000FFF79DFD31E0BB48844208D1012180158F
:10473000FFF795FD0021A015FFF791FD25E0B64894
:10474000844209D101210804FFF77CFD00214FF4C8
:104750008030FFF777FD18E0B048844209D101218D
:104760004804FFF76FFD00214FF40030FFF76AFDAA
:104770000BE0AB48844208D101218804FFF762FDB9
:1047800000214FF48020FFF75DFD10BD002202885C
:10479000944B98420ED0994B98420BD0B0F1804F79
:1047A00008D0914B984205D0904B984202D0904B44
:1047B000984204D14FF68F731A404B881A438D4BA1
:1047C000984207D08C4B984204D04FF6FF431A40D2
:1047D000CB881A4302808B8883850B880385814BA5
:1047E00098420BD0854B984208D08B4B984205D00D
:1047F0008A4B984202D08A4B984201D10B7A0386A9
:1048000001238382704770B5002400220023058CA9
:104810004FF6FE7635400584028C8388048B4FF674
:104820008F752C40B51E2C400D882C43751E2A40D8
:104830000D892A434D882A436A4DA8420BD06F4DFB
:10484000A84208D0744DA84205D0744DA84202D0A9
:10485000734DA84213D14FF6F7752A404D892A436C
:104860004FF6FB752A408D882A434FF6FF652B4093
:104870004FF6FF552B408D892B43CD892B438380E9
:104880000483CD888586028470BD70B50024002223
:104890000023058C4FF6EF7635400584028C838823
:1048A000048B48F6FF752C404FF6FF452C400D88D1
:1048B0004FF6FF7606EA05252C434FF6DF752A40B2
:1048C0000D8906EA05152A434D8806EA05152A438F
:1048D000444DA84202D0494DA8421DD14FF67F75E4
:1048E0002A404D894FF6FF7606EA05152A434FF612
:1048F000BF752A408D8806EA05152A434FF6FF3515
:104900002B404FF2FF752B408D8906EA85052B431E
:10491000CD8906EA85052B4383800483CD880587EE
:10492000028470BD70B5002400220023058C4FF670
:10493000FF6635400584028C8388848B4FF68F7523
:104940002C404FF6FC752C400D882C434FF6FF553C
:104950002A400D894FF6FF7606EA05252A434D8841
:1049600006EA05252A431F4DA84202D0234DA8423E
:104970001DD14FF2FF752A404D894FF6FF7606EAAA
:1049800005252A434FF6FF352A408D8806EA05257E
:104990002A434EF6FF752B404DF6FF752B408D894F
:1049A00006EA05152B43CD8906EA05152B438380BE
:1049B0008483CD888587028470BD70B50022002372
:1049C0000024058C4EF6FF7635400584038C8488E0
:1049D000828B48F6FF752A404FF6FF452A400D8826
:1049E00020E00000002C01400004004000080040CE
:1049F000000C004000100040001400400034014052
:104A0000004C01400050014000540140001800409B
:104A1000001C0040002000400040014000440140D4
:104A2000004801404FF6FF7606EA05252A434DF679
:104A3000FF752B400D8906EA05352B434D8806EAA4
:104A400005352B43FB4DA84202D0FB4DA84208D1AF
:104A50004BF6FF752C408D894FF6FF7606EA8515DB
:104A60002C4384808283CD88A0F84050038470BD9D
:104A7000828B4FF2FF331A408283828B4FF6FF7393
:104A800003EA01231A4382837047F0B50C461546AA
:104A9000002100220026078C4EF6FF7C07EA0C0757
:104AA0000784818B028C4FF6FF7707EA043640F6C5
:104AB000FF4739404FF6FF7707EA052739434FF69E
:104AC000FF7707EA033739434DF6FF773A4046F45C
:104AD00080573A4381830284F0BD828B4FF6F37393
:104AE0001A408283828B0A4382837047F0B50C465A
:104AF0001546002100220026078C4FF6FF6C07EABE
:104B00000C070784818B028C4FF6FF7707EA042697
:104B10004FF60C7739404FF6FF7707EA03172F431C
:104B200039434FF6FF573A4046F480773A43818342
:104B30000284F0BD028B4FF2FF331A400283028BD6
:104B40004FF6FF7303EA01231A4302837047F0B55F
:104B50000C461546002100220026078C4FF6EF7CFC
:104B600007EA0C070784018B028C4FF6FF7707EAF0
:104B7000041640F6FF4739404FF6FF7707EA033740
:104B800039434FF6FF7707EA052739434FF6DF77BA
:104B90003A4046F010073A4301830284F0BD028B8D
:104BA0004FF6F3731A400283028B0A430283704765
:104BB000F0B50C46154600210022068C4FF6FE7714
:104BC0003E400684018B028C4FF60C7631407E1CF1
:104BD00006EA03162E4331437E1E324044F001069E
:104BE000324301830284F0BD70B505460C4620882F
:104BF00050B92389A28861882846FFF7D9FFE18848
:104C00002846FFF7CCFF25E0208804280AD1238915
:104C1000A28861882846FFF79AFFE1882846FFF7B7
:104C200089FF17E0208808280AD12389A288618893
:104C30002846FFF75BFFE1882846FFF74EFF09E0B3
:104C40002389A28861882846FFF71FFFE18828464C
:104C5000FFF70EFF70BD2DE9F04105460C4600261A
:104C60000127608808B9022600E00026A0880128F4
:104C700001D1022700E001272088A0B92389A2885A
:104C800061882846FFF794FFE1882846FFF787FFF1
:104C900023893A4631462846FFF759FFE1882846DE
:104CA000FFF748FF13E02389A28861882846FFF7B1
:104CB0004EFFE1882846FFF73DFF23893A463146FB
:104CC0002846FFF775FFE1882846FFF768FFBDE833
:104CD000F0810A884B881A438B881A43CB881A4381
:104CE0000B891A434B891A438B891A43A0F8442035
:104CF00070474FF6FF71818000210180C1804180A3
:104D0000017270470021018041808180C180018152
:104D100041818181C1817047002101804180012151
:104D200081800021C1800181704700210180418084
:104D30008180C180018141818181704721B10288D8
:104D400042F00102028004E002884FF6FE731A402E
:104D50000280704731B1B0F8442042F40042A0F81C
:104D6000442005E0B0F84420C2F30E02A0F844202D
:104D700070471AB183890B43838102E083898B4397
:104D8000838170478182704741EA0203A0F848306E
:104D900070471AB183890B43838102E083898B4377
:104DA0008381704701894FF6F87211400181704785
:104DB0000A46002101894FF68F7319401143018182
:104DC000704730B504460D4629462046FFF7F0FFF0
:104DD000208940F00700208130BD2DE9F0410446D4
:104DE0000D4616461F46602D06D13B460122314630
:104DF0002046FFF7ACFE05E03B4601223146204647
:104E0000FFF7D6FE29462046FFF7D2FF208940F063
:104E100007002081BDE8F08130B50C4600210189F2
:104E2000C9B24FF6FF7505EA03251543254329430B
:104E3000018130BD002C0140003401402DE9F041DA
:104E400005460E4617469846002443463A463146E4
:104E50002846FFF7E1FF2C894FF6F870044044F034
:104E600007044FF68F70044044F070042C81BDE8B5
:104E7000F081F0B504460D4616461F463B463246C5
:104E800029462046FFF7C8FF208940F48040208152
:104E9000F0BD0185828270470A46002101884FF6E5
:104EA0008F731940114301807047F0B50C461546C9
:104EB0001E460021002200230189028B038C4FF63D
:104EC000F877394021434FF6FC473A4040F201174A
:104ED0003A434FF6DD773B404FF6FF7707EA061778
:104EE0002F433B43018102830384F0BD0A46002126
:104EF000018B4FF68F7319401143018370470A46A7
:104F00000021018B48F6FF7319404FF6FF7303EA47
:104F100002231943018370470A460021818B4FF613
:104F20008F7319401143818370470A460021818B9A
:104F300048F6FF7319404FF6FF7303EA0223194343
:104F40008183704721B1028842F08002028004E030
:104F500002884FF67F731A400280704721B1828821
:104F600042F00402828004E082884FF6FB731A400C
:104F70008280704721B1828842F00802828004E07A
:104F800082884FF6F7731A408280704721B1828879
:104F900042F00102828004E082884FF6FE731A40DC
:104FA000828070470A460021018B4FF6F773194043
:104FB0001143018370470A460021018B4FF2FF73B2
:104FC00019404FF6FF7303EA022319430183704728
:104FD0000A460021818B4FF6F773194011438183F4
:104FE00070470A460021818B4FF2FF7319404FF63C
:104FF000FF7303EA02231943818370470A460021A5
:10500000018B4FF6FB7319401143018370470A4629
:105010000021018B4FF6FF3319404FF6FF7303EA6F
:1050200002231943018370470A460021818B4FF602
:10503000FB7319401143818370470A460021818B1D
:105040004FF6FF3319404FF6FF7303EA022319436B
:10505000818370470A460021018B4FF67F73194008
:105060001143018370470A460021018BC1F30E01F1
:105070004FF6FF7303EA02231943018370470A4680
:105080000021818B4FF67F73194011438183704754
:105090000A460021818BC1F30E014FF6FF7303EA2C
:1050A00002231943818370470A460021018C4FF681
:1050B000FD7319401143018470470A460021018C99
:1050C0004FF6F77319401143018470470A460021D7
:1050D000018C4FF6DF7319404FF6FF7303EA02139A
:1050E0001943018470470A460021018C4FF67F73F3
:1050F00019404FF6FF7303EA021319430184704706
:105100000A460021018C4FF6FF5319404FF6FF73FA
:1051100003EA02231943018470470A460021018CE7
:105120004FF2FF7319404FF6FF7303EA022319434E
:10513000018470470A460021018C4DF6FF73194027
:105140004FF6FF7303EA023319430184704730B509
:10515000002301248C40A3B2048C9C430484048C5F
:1051600002FA01F5ADB22C43048430BD30B5002302
:1051700004248C40A3B2048C9C430484048C02FA63
:1051800001F5ADB22C43048430BD70B50346002058
:1051900000241846183001258D40ACB21D8CA54363
:1051A0001D8409B1082909D100EB6100056825F0CB
:1051B000700505600568154305600EE00D1FC5F319
:1051C0004E052844056825F4E045056005684FF65E
:1051D000FF7606EA02263543056070BD21B10288DC
:1051E00042F00202028004E002884FF6FD731A408A
:1051F0000280704721B1028842F00402028004E07C
:1052000002884FF6FB731A400280704721B18288F2
:1052100042F08002828004E082884FF67F731A4059
:105220008280704702884FF6F7731A400280028826
:105230000A430280704782884FF68F731A4082803B
:1052400082880A438280704702894FF6F8731A40B9
:10525000028102890A430281704702894FF67F73F7
:105260001A40028102890A43028170478184704793
:1052700081857047818670470187704781877047B5
:10528000A0F84010704702884FF6FF431A40028092
:1052900002880A43028070470146888E70470146A3
:1052A000088F70470146888F70470146B1F840006B
:1052B00070470146888C70470146088D704702464A
:1052C0000020138A0B400BB1012000E00020704742
:1052D000CA430282704730B50246002000230024F2
:1052E000158A05EA0103958905EA010413B10CB199
:1052F000012000E0002030BDCA4302827047000058
:1053000010B50446FB48844209D101218803FEF709
:1053100099FF00214FF48040FEF794FF32E0F648F9
:10532000844209D101214804FEF799FF00214FF47E
:105330000030FEF794FF25E0F048844209D10121B6
:105340008804FEF78CFF00214FF48020FEF787FFD2
:1053500018E0EB48844209D10121C804FEF77FFF21
:1053600000214FF40020FEF77AFF0BE0E54884426D
:1053700008D101210805FEF772FF00214FF48010CB
:10538000FEF76DFF10BD2DE9F04786B005460E46CD
:105390000024A24600BFA1460027B08900B100BF8B
:1053A0002F462C8A4CF6FF700440F08804432C8270
:1053B000AC894EF6F3100440B088318908437189F6
:1053C00008430443AC81AC8A4FF6FF400440B089E7
:1053D0000443AC8201A8FEF7AEFEC648874202D164
:1053E000DDF810A001E0DDF80CA0A88900F4004071
:1053F00040B10AEBCA0000EB0A1031684900B0FB6B
:10540000F1F807E00AEBCA0000EB0A1031688900E6
:10541000B0FBF1F86420B8FBF0F00401200964212E
:1054200001FB1089A88900F4004040B1322000EB54
:10543000C900B0FBF1F000F00700044308E032209F
:1054400000EB09106421B0FBF1F000F00F00044301
:105450002C8106B0BDE8F0874FF4165101600021A1
:105460008180C18001810C214181002181817047AF
:1054700010B502460020108A4FF2FF0318400B8837
:105480004C8823438C882343CC88234318431082C1
:1054900010BD0021018041808180C180704721B111
:1054A000828942F40052828104E082894DF6FF73C2
:1054B0001A4082817047F0B503460024002600257B
:1054C000002040F66A17B94200D100BF1846C1F368
:1054D000421401F01F06012707FA06F5012C01D13D
:1054E0000C3004E0022C01D1103000E014301AB16D
:1054F00007682F43076002E00768AF430760F0BD0D
:105500001AB1838A0B43838202E0838A8B438382AE
:105510007047028A4FF6F0731A400282028A0A43E9
:105520000282704782894FF2FF731A40828182891A
:105530000A438281704721B1828942F0020282814E
:1055400004E082894FF6FD731A4082817047028A17
:105550004FF6DF731A400282028A0A4302827047C2
:1055600021B1028A42F48042028204E0028A4BF6B0
:10557000FF731A4002827047C1F3080282807047AD
:1055800001468888C0F308007047818941F0010115
:1055900081817047028BD2B20283028B42EA0122E0
:1055A00002837047028B02F47F420283028B0A431C
:1055B0000283704721B1828A42F02002828204E095
:1055C000828A4FF6DF731A408282704721B1828A45
:1055D00042F01002828204E0828A4FF6EF731A4092
:1055E0008282704721B1828A42F00802828204E0FE
:1055F000828A4FF6F7731A408282704721B18289FE
:1056000042F40042828103E08289C2F30E02828169
:10561000704721B1828A42F40062828204E0828A69
:105620004FF2FF731A4082827047828A4FF6FB73F3
:105630001A408282828A0A438282704721B1828A1A
:1056400042F00202828204E0828A4FF6FD731A4021
:105650008282704702460020B1F5007F00D100BF72
:1056600013880B400BB1012000E00020704701F4CB
:105670000072B2F5007F00D100BFCA4302807047BC
:1056800070B50246002400230025002040F66A166B
:10569000B14200D100BFC1F3421501F01F03012642
:1056A00006FA03F3012D02D19689334006E0022D5C
:1056B00002D1168A334001E0968A33400C1201264B
:1056C00006FA04F41688344013B10CB1012000E04E
:1056D000002070BD10B50022002340F66A14A142DC
:1056E00000D100BF0A1201249440A3B2DC4304801D
:1056F00010BD000000380140004400400048004058
:10570000004C00400050004010B50446F44884426C
:1057100009D101214805FEF7A2FD00214FF4001038
:10572000FEF79DFD08E001218805FEF798FD0021A8
:105730004FF48000FEF793FD10BD2DE9F04385B0D6
:1057400004460D460026B1460427DFF89883A68854
:105750004FF6C07006406846FEF7EDFCDDF80880A5
:10576000E148B8FBF0F01FFA80F946EA0906A68086
:1057700020884FF6FE71084020800026DB4928680B
:1057800088420CD828684000B8FBF0F087B2042F9C
:1057900000DA04273E4309F10100208427E0E8886D
:1057A0004BF6FF71884206D1286800EB4000B8FB39
:1057B000F0F087B209E0286800EBC00101EB0010AF
:1057C000B8FBF0F087B247F48047C7F30B0008B985
:1057D00047F0010747F4004006434FF4967009FB79
:1057E00000F04FF47A7190FBF1F0401C2084A68306
:1057F000208840F00100208026884FF6F5300640D2
:10580000A8886989084306432680A889298908430E
:10581000208105B0BDE8F08341F2883101600021AC
:1058200081804BF6FF71C1800021018141814FF4DD
:1058300080418181704721B1028842F001020280DB
:1058400004E002884FF6FE731A400280704721B1CF
:10585000828842F40062828004E082884FF2FF7303
:105860001A408280704721B1828842F4805282803F
:1058700004E082884EF6FF731A408280704721B19F
:10588000028842F48072028004E002884FF6FF63CF
:105890001A400280704721B1028842F400720280EF
:1058A00004E002884FF6FF531A400280704721B18E
:1058B000028842F48062028004E002884FF6FF33DF
:1058C0001A40028070470A46002181894FF6017311
:1058D000194002F0FE0319438181704721B182898A
:1058E00042F00102828104E082894FF6FE731A4081
:1058F0008281704721B1028842F04002028004E0B8
:1059000002884FF6BF731A40028070471AB183882D
:105910000B43838002E083888B438380704701823E
:1059200070470146088AC0B2704712B141F00101C8
:1059300002E04FF6FE7319400182704708B5024637
:105940000020009000920098084400900098008881
:1059500008BD21B1028842F40042028003E00288BF
:10596000C2F30E0202807047B1F5005F04D10288D5
:1059700042F40052028004E002884DF6FF731A40A0
:105980000280704721B1028842F48052028004E014
:1059900002884EF6FF731A4002807047B1F5006F1F
:1059A00004D1028842F40062028004E002884FF2CF
:1059B000FF731A400280704721B1028842F0200232
:1059C000028004E002884FF6DF731A4002807047BD
:1059D0000146088B0012704721B1028842F0100284
:1059E000028004E002884FF6EF731A40028070478D
:1059F00021B9028842F08002028004E002884FF65A
:105A00007F731A4002807047B1F5804F05D0828BBA
:105A10004BF6FF731A40828303E0828B42F480428C
:105A20008283704770B502460024002500230020C1
:105A3000958A138B1B0445EA030626F07F4404EA8B
:105A400001068E4201D1012000E0002070BD10B59A
:105A500001460020002300228B8A0A8B120443EAAD
:105A6000020424F07F4010BD0CB502460020002344
:105A70000193009300920B0F019321F07F41019B52
:105A80001BB1009B1433009303E0090C009B1833F7
:105A90000093009B1B680B400BB1012000E000202D
:105AA0000CBD002221F07F42D3438382704730B582
:105AB000024600200023948801F0E06504EA1543C3
:105AC00021F07F41948A0C4014B10BB1012000E019
:105AD000002030BD002221F07F42D34383827047F3
