:020000040800F2
:10000000A80E002005010008650600086706000824
:100010006B0600086F060008730600080000000069
:10002000000000000000000000000000770600084B
:1000300079060008000000007B0600087D06000825
:100040001F0100081F0100081F0100081F01000810
:100050001F0100081F0100081F0100081F01000800
:100060001F0100081F0100081F0100081F010008F0
:100070001F0100081F0100081F0100081F010008E0
:100080001F0100081F0100081F0100081F010008D0
:100090001F0100081F0100081F0100081F010008C0
:1000A0001F0100081F0100081F0100081F010008B0
:1000B000C50600081F0100081F0100081F010008F5
:1000C0001F0100081F0100081F0100081F01000890
:1000D0001F0100088F0600081F0100081F0100080B
:1000E0001F0100081F0100081F010008DFF810D0E1
:1000F00006F064FB00480047F3020008AFF30080FD
:10010000A80E00200648804706480047FEE7FEE7A5
:10011000FEE7FEE7FEE7FEE7FEE7FEE7FEE7FEE7B7
:10012000F3310008ED00000870B504460D4601F0FB
:1001300080F8204601F0C2F82946204601F08EF9E9
:1001400001F083F870BD01460888704710B505F0CE
:100150001AFC01287ED1FE48007801280DD1FC4808
:100160004078022809D1FA488078552805D1052021
:1001700003F01DF90120F7490870F54800780128BF
:100180000DD1F3484078032809D1F14880785528EB
:1001900005D1052003F00BF90020EE490870EC486A
:1001A000007801280CD1EA484078042808D1E848B2
:1001B0008078552804D1052003F0F9F804F001FCFB
:1001C000E348007801280CD1E1484078052808D19F
:1001D000DF488078552804D1052003F0E8F804F0C2
:1001E00000FCDB48007801280CD1D948407806286B
:1001F00008D1D7488078552804D1052003F0D7F8D6
:1002000004F0BFFBD248007801280CD1D0484078D8
:10021000072808D1CE488078552804D1052003F05E
:10022000C6F804F0BEFBCA480078012816D1C848B9
:100230004078122812D1C648807855280ED1052062
:1002400003F0B5F8C2480079C14AD27800EB022128
:10025000C14800E049E00068FFF766FFBC4800784D
:10026000012814D1BA484078132810D1B8488078B2
:1002700055280CD1052003F09AF8B5480079B44A06
:10028000D27800EB0221B5480068FFF74DFFB04877
:100290000078012829D1AE484078142825D1AC48EF
:1002A0008078552821D1052003F081F8AA480068FC
:1002B000FFF749FF000AAA498870A7480068FFF7BE
:1002C00042FFA749C870A5480068FFF73CFF000A35
:1002D000A3490871A1480068FFF735FFA04948719C
:1002E000002232219E4805F091FA002005F048FBDB
:1002F00010BD08B503F08CF84FF4A06000F014FABC
:100300004FF47A7003F0B9F84FF4E13003F002FBD8
:1003100005F03CFB02F0EEFF05F0EAF804F0A2FE67
:100320000020042308220721009005F067FD03F058
:10033000DDFB0122D1038B4801F04BFB41F61F414D
:10034000632005F0AFF988A003F0CFFA4FF47A707C
:1003500003F093F891A003F0C8FA40F2E2410620BE
:1003600005F000FA74E105F00FFA012003F01FF820
:100370008D4805F0DEFD8D4908700846007888B18B
:1003800000208B49087007E0012003F010F888482E
:100390000078401C864908708548007883490978B0
:1003A0008842F1DBFFF7D2FE04F0B8FC8148006818
:1003B00041F2680188421FDC7E48406888421BDCAD
:1003C0007C480069884217DC7A484069884213DC1F
:1003D0007848806988420FDC7648406A88420BDCA6
:1003E0007448806A884207DC7248C06A884203DC2D
:1003F0007048806B884208DD04F0D3FAFF210020AA
:1004000004F0D5FF01206C4908706B480078012882
:100410002ED16848006841F20401884228DA654814
:100420004068884224DA63480069884220DA6148DB
:10043000406988421CDA5F488069884218DA5D4862
:10044000406A884214DA5B48806A884210DA594868
:10045000C06A88420CDA5748806B884208DA04F098
:1004600090FAFF21002004F0A2FF002052490870FA
:1004700050480068B0F52F6F27DB4E484068B0F554
:100480002F6F22DB4B480069B0F52F6F1DDB494809
:100490004069B0F52F6F18DB46488069B0F52F6FC3
:1004A00013DB4448406AB0F52F6F0EDB4148806A89
:1004B000B0F52F6F09DB3F48C06AB0F52F6F04DB42
:1004C0003C48806BB0F52F6F08DA04F08AFAFF2100
:1004D000002004F06CFF012038490870374800788C
:1004E00001286FD133480068B0F52F6F6ADD3148BD
:1004F0004068B0F52F6F65DD2E480069B0F52F6FAD
:1005000060DD2C484069B0F52F6F5BDD29488069BC
:10051000B0F52F6F56DD2748406AB0F52F6F51DDDB
:100520002448806AB0F52F6F4CDD2248C06AB0F5D0
:100530002F6F47DD1F48806BB0F52F6F42DD04F051
:1005400040FAFF21002004F032FF00201B4938E070
:100550008C050020FC010020000000200400002089
:1005600008000020000C01404D4F44455F434647C2
:100570002831293B4449522831293B4653494D47AC
:1005800028323039373135322C302C302C32323061
:100590002C3137362C30293B0D0A0000434C5228B1
:1005A0003631293B0D0A0000FF010020FD0100202B
:1005B000FE010020DC0900200A0200200B020020BE
:1005C00000E008702348406CB0F5FA6F08DD04F0D5
:1005D0001EFAFF21002004F0EAFE01201E490870E7
:1005E0001D48007801280DD11A48406CB0F5FA6F0B
:1005F00008DA04F006FAFF21002004F0D8FE0020FB
:100600001549087015480068FFF79DFD1149896C70
:10061000884208D204F0FBF9FF21002004F0C7FE55
:1006200001200F4908700E480078012810D10B48AE
:100630000068FFF788FD0749896C884208D904F0F3
:10064000E0F9FF21002004F0B2FE00200449087008
:1006500089E60000DC0900200C02002004000020D4
:1006600009020020704700BFFEE700BFFEE700BFA1
:10067000FEE700BFFEE770477047704725480088D7
:1006800020B124480088401E22490880704710B5D8
:100690004FF4806440F225511F4802F0F7FC80B10E
:1006A0001E480088B0F5806F0BDA1B48001D0088DB
:1006B000C1B21A4802880088401C184B188018489C
:1006C000815410BD10B50121880702F00AFBF8B172
:1006D0000121880702F016FB10480088002803DD7E
:1006E00005F051F9012800D110BD0C4800880D49D2
:1006F0000988884208D1012005F042F90020074905
:1007000008800849088003E00448008805490880FB
:1007100000BFE9E714020020003801401802002061
:100720008C0500201A02002031490143314A116032
:10073000704770B5002100230F22C47804B32D4CFC
:10074000246804F4E064C4F5E064210AC1F1040300
:10075000CA40447804FA03F1847814402143090123
:10076000254C0678A155047804F01F050124AC40FF
:1007700005786D11AD0005F1E025C5F8004109E0EF
:10078000047804F01F050124AC401C4D0678761156
:1007900045F8264070BD1A4A0A400243154B1B1FFC
:1007A0001A60704739B1134A121D12680243114B87
:1007B0001B1D1A6006E00F4A121D126882430D4B82
:1007C0001B1D1A607047042808D14FF0E021096909
:1007D00041F004014FF0E022116107E04FF0E02109
:1007E000096921F004014FF0E02211617047000017
:1007F0000000FA050CED00E000E400E080E100E01C
:1008000080FFFF1F10B50446FE48844209D1012134
:10081000480601F030FB00214FF0007001F02BFB87
:1008200008E00121880601F026FB00214FF08060DE
:1008300001F021FB10BD30B50246002000231468F2
:1008400024F002041460146844F00104146000E011
:100850005B1C546804F001041CB94FF6FF74A342FA
:10086000F6D1546804F001040CB900206CE08C79D6
:10087000012C04D1146844F08004146003E014686F
:1008800024F080041460CC79012C04D1146844F065
:100890004004146003E0146824F0400414600C7AEF
:1008A000012C04D1146844F02004146003E014689F
:1008B00024F0200414604C7A012C04D1146844F014
:1008C0001004146003E0146824F0100414608C7A9F
:1008D000012C04D1146844F00804146003E0146887
:1008E00024F008041460CC7A012C04D1146844F07C
:1008F0000404146003E0146824F0040414608C7889
:10090000A407CD7844EA05640D7944EA05444D799D
:1009100044EA05540D886D1E2C43D461146824F0FC
:1009200001041460002300E05B1C546804F001041F
:100930001CB14FF6FF74A342F6D1546804F00104D1
:100940000CB1002000E0012030BD10B50021837AF9
:10095000012202FA03F1AC4A126842F00102AA4BEA
:100960001A60A94A1C3212688A43A74B1C331A60CA
:10097000027BCAB9A44A0C3212688A43A24B0C33D8
:100980001A604288C38842EA03439F4A4032847A0D
:1009900042F834300288838842EA03439A4A40325C
:1009A000847A02EBC4025360027B012A19D1964A71
:1009B0000C3212680A43944B0C331A604288038845
:1009C00042EA0343904A4032847A42F83430C28883
:1009D000838842EA03438C4A4032847A02EBC402A1
:1009E0005360C27A3AB9884A121D12688A43864B0C
:1009F0001B1D1A6006E0844A121D12680A43824BCE
:100A00001B1D1A60028932B97F4A143212688A4368
:100A10007D4B14331A600289012A06D17A4A1432B6
:100A200012680A43784B14331A60427B012A06D1BC
:100A3000754A1C3212680A43734B1C331A60724A9F
:100A4000126822F00102704B1A6010BD0021817102
:100A5000C171017241728172C1728170C1700321D2
:100A600001710221417101210180704766490968C5
:100A700041F00101644A11601146096843F60E72A3
:100A80009143614A11601146096841EA00211160F1
:100A90001146096821F001011160704721B1026817
:100AA00042F48032026003E0026822F48032026085
:100AB0007047E1B1026842F0800202604FF4C272F6
:100AC000125842F480734FF4C27213504FF4CA723A
:100AD000125842F480734FF4CA7213504FF4D2721A
:100AE000125842F480734FF4D27213501BE0026824
:100AF00022F0800202604FF4C272125822F4807316
:100B00004FF4C27213504FF4CA72125822F4807319
:100B10004FF4CA7213504FF4D272125822F48073F9
:100B20004FF4D2721350704710B5024600209368FC
:100B300003F08063B3F1806F00D110E0936803F09D
:100B40000063B3F1006F01D1012008E0936803F066
:100B50008053B3F1805F01D1022000E0042004281B
:100B600079D002F5C07303EB00131B6803F0010496
:100B700002F5C07303EB00131C600B7A7BB94B7A50
:100B80000C8843EA445302F5C07404EB0014246853
:100B9000234302F5C07404EB0014236010E00B7AC9
:100BA0004C6843EAC4034C7A234302F5C07404EB57
:100BB00000142468234302F5C07404EB001423607E
:100BC0008B7A03F00F038B7202F5C07303EB0013F3
:100BD0005B6823F00F0402F5C07303EB00135C6045
:100BE00002F5C07303EB00135B688C7A234302F5B4
:100BF000C07404EB001463608B7B1C064B7B44EADF
:100C0000034403E000640040006600400B7B44EABC
:100C10000323CC7A234302F5C07404EB0014A360D1
:100C20008B7C1C064B7C44EA03440B7C44EA032384
:100C3000CC7B234302F5C07404EB0014E36002F59F
:100C4000C07303EB00131B6843F0010402F5C0738B
:100C500003EB00131C6010BD10B50246002321B148
:100C6000012907D002290FD109E09068F94C00EA68
:100C700004030BE09068F84C00EA040306E0906877
:100C8000F64C00EA040301E0002300BF00BFF44C6F
:100C9000181BA34216D007DC83B16FF080601844A4
:100CA00070B1022818D111E0B0F5007F10D0ED4CE2
:100CB000204448B1B0F5003F0ED10BE002230DE017
:100CC00000230BE0002309E0002307E0012305E0F7
:100CD000012303E0012301E0002300BF00BFD8B2DD
:100CE00010BD21B1012907D002290FD109E0826886
:100CF00042F0800282600AE0826842F40042826030
:100D000005E0826842F40002826000E000BF00BF9C
:100D1000704710B500F5D87303EB01131B6803F09F
:100D200004031372137A53B900F5D87303EB01135C
:100D30001B6840F2FF7404EA5353136009E000F5A6
:100D4000D87303EB01131B686FF0604404EAD3030C
:100D5000536000F5D87303EB01131B6803F0020323
:100D6000537200F5D87303EB01135B6803F00F03B4
:100D7000937200F5D87303EB01135B681B0AD374FD
:100D800000F5D87303EB01139B68D37200F5D87399
:100D900003EB01139B681C0A147300F5D87303EB73
:100DA00001139B681C0C547300F5D87303EB0113FB
:100DB0009B681B0E937300F5D87303EB0113DB687C
:100DC000D37300F5D87303EB0113DB681C0A1474AA
:100DD00000F5D87303EB0113DB681C0C547400F5A9
:100DE000D87303EB0113DB681B0E937421B9C3683E
:100DF00043F02003C36003E0036943F02003036171
:100E000010BD21B9C26842F02002C26003E002694D
:100E100042F02002026170470246002019B9D368EF
:100E200003F0030006E0012903D1136903F0030076
:100E300000E00020704710B502460B4600204FF638
:100E4000FF71BBB9146824F0020444F0010414607B
:100E500000E0491E546804F00304012C01D000296D
:100E6000F7D1546804F00304012C01D0002032E0D3
:100E7000012030E0012B13D1146824F00304146026
:100E800000E0491E546804F003040CB10029F8D1B5
:100E9000546804F003040CB100201CE001201AE0A7
:100EA000022B17D1146824F0010444F002041460EA
:100EB00000E0491E546804F00304022C01D000290C
:100EC000F7D1546804F00304022C01D0002002E0A2
:100ED000012000E0002010BD014600200A6822F039
:100EE000010242F002020A604A6802F00302022A8A
:100EF00000D10120704701464FF6FF7200200B68B9
:100F000023F002030B6000E0521E4B6803F0020363
:100F1000022B01D1002AF7D14B6803F00203022B08
:100F200000D001207047014600208A6902F070005D
:100F30007047014600208A69100E70470146002064
:100F40008A69C2F3074070471AB143690B43436192
:100F500002E043698B434361704710B502460020AD
:100F600001F4700343B19369C1F3130423400BB13F
:100F700001202DE000202BE001F0807343B1536885
:100F8000C1F3130423400BB1012021E000201FE036
:100F900001F0006343B19368C1F3130423400BB124
:100FA000012015E0002013E001F0007343B1D36885
:100FB000C1F3130423400BB1012009E0002007E036
:100FC0001369C1F3130423400BB1012000E000209A
:100FD00010BD0022244B994202D10023836111E00D
:100FE000C1F3130201F000730BB1C2600AE001F01B
:100FF00080630BB1026105E001F000630BB1826018
:1010000000E0426070470246002002EA01030BB193
:10101000012000E00020704770B504460D46002610
:1010200060692840002872D0B5F5807F69D01DDC4A
:10103000082D42D006DC012D2DD0022D31D0042DFB
:101040007FD134E0102D3ED0202D42D0402D78D1DC
:1010500045E0000003000004000300080000031046
:10106000000100080001FFF77000F030B5F5004FF7
:1010700061D009DCB5F5007F4AD0B5F5806F4DD061
:10108000B5F5006F5DD150E0B5F5803F2DD0B5F5D9
:10109000003F56D12FE0A0685549FFF7B4FF064640
:1010A00051E0E0680321FFF7AEFF06464BE0E06841
:1010B0000821FFF7A8FF064645E0E0681021FFF78A
:1010C000A2FF06463FE020690321FFF79CFF06468A
:1010D00039E020690821FFF796FF064633E02069D2
:1010E0001021FFF790FF06462DE060680821FFF70A
:1010F0008AFF064627E060681021FFF784FF064656
:1011000021E0A0690121FFF77EFF06461BE01BE0FE
:10111000A0690221FFF777FF064614E0A0690421C9
:10112000FFF771FF06460EE00BE0A0697021FFF7A4
:101130006AFF064607E060680421FFF764FF064681
:1011400001E0002600BF00E00026304670BDB1F58A
:10115000007F3AD00FDC202928D006DC01291CD0E2
:1011600004291DD0082940D11DE0402921D0B1F526
:10117000807F3AD126E0B1F5004F31D006DCB1F5E1
:10118000806F25D0B1F5006F2FD124E0B1F5803FFD
:1011900012D0B1F5003F28D111E0154A826025E058
:1011A0000822C26022E01022C2601FE00822026111
:1011B0001CE01022026119E00822426016E01022B1
:1011C000426013E00422426010E0042242600DE01D
:1011D000042242600AE0002282610422426005E0AB
:1011E000002282610422426000E000BF00BF70471D
:1011F0000101010001460020FE4A106800F038009D
:10120000084310607047FB49096821F00801F94A5A
:10121000116011460968014311607047F54909687A
:1012200021F01001F34A1160114609680143116071
:101230007047F148EF494860F04848607047EE4811
:10124000EC494860ED4848607047EA48006940F062
:101250008000E84908617047E648006940F0800076
:10126000E449086170470420E249C96801F00101BE
:1012700009B101200EE0DF49C96801F0040109B19C
:10128000022007E0DB49C96801F0100109B1032021
:1012900000E00420704700B502460423FFF7E3FF97
:1012A000034603E0FFF7DFFF0346521E012B01D187
:1012B000002AF7D102B90523184600BD30B504460F
:1012C00004254FF43020FFF7E6FF0546042D17D123
:1012D000C848006940F00200C649086108464461F8
:1012E000006940F0400008614FF43020FFF7D3FF61
:1012F0000546C048006941F6FD710840BD490861D6
:10130000284630BD10B504244FF43020FFF7C3FF4A
:101310000446042C16D1B748006940F00400B549D2
:1013200008610846006940F0400008614FF4302031
:10133000FFF7B1FF0446AF48006941F6FB71084072
:10134000AC490861204610BD00B502460423FFF7F2
:101350008AFF034603E0FFF786FF0346521E012B78
:1013600001D1002AF7D102B90523184600BD10B5F6
:1013700004244FF43020FFF7E7FF0446042C16D175
:101380009C48006940F004009A49086108460069D9
:1013900040F0400008614FF43020FFF7D5FF0446CD
:1013A0009448006941F6FB71084092490861204663
:1013B00010BD00208F49C96901F0020109B1012067
:1013C00000E00020704730B5A5250424FFF7F1FFA9
:1013D00000B100254FF43020FFF75DFF0446042CD8
:1013E0003AD1854883498860844888600846006906
:1013F00040F0200008610846006940F040000861A4
:101400004FF43020FFF747FF0446042C1BD17948E6
:10141000006941F6DF7108407649086108460069B5
:1014200040F01000086176480580E002FFF733FFC6
:101430000446052C10D06F48006941F6EF71084052
:101440006C49086108E0052C06D06A48006941F63D
:10145000EF71084067490861204630BD78B50646FF
:101460000C46042500200090E802FFF714FF054613
:10147000042D24D15F48006940F001005D490861F6
:101480003480E802FFF707FF0546042D10D1B01C99
:101490000090200C00990880E802FFF7FCFE05464A
:1014A0005448006941F6FE7108405249086106E05F
:1014B0005048006941F6FE7108404E4908612846CF
:1014C00078BD70B504460D460426F002FFF7E3FE32
:1014D0000646042E11D14748006940F001004549F5
:1014E00008612580F002FFF7D6FE064641480069F4
:1014F00041F6FE7108403F490861304670BD70B545
:1015000005460E460424E002FFF7C5FE0446042CFF
:1015100017D13948374988603848886008460069DB
:1015200040F0100008612E80E002FFF7B4FE044690
:10153000052C06D02F48006941F6EF7108402D496F
:101540000861204670BD2DE9F04304464FF6FF7652
:101550003746B046B1460425E443E6B2C4F3072754
:10156000C4F307484FEA1469E802FFF794FE054602
:10157000042D49D120481F498860204888600846CA
:10158000006940F010000861FF2E06D01C480830AA
:101590000680E802FFF77FFE0546042D08D1FF2FE5
:1015A00006D017480A300780E802FFF774FE0546A8
:1015B000042D0AD1B8F1FF0F07D011480C30A0F864
:1015C0000080E802FFF767FE0546042D0AD1B9F155
:1015D000FF0F07D00A480E30A0F80090E802FFF78E
:1015E0005AFE0546052D0FD00248006941F6EF71FD
:1015F000084007E00020024023016745AB89EFCD9A
:1016000000F8FF1F664908612846BDE8F08330B541
:10161000054604244FF43020FFF73DFE0446042C19
:1016200041D160485E4988605F488860084600692B
:1016300040F0200008610846006940F04000086161
:101640004FF43020FFF727FE0446042C22D15448E3
:10165000006941F6DF710840514908610846006998
:1016600040F0100008611DB100205049088002E0E0
:10167000A5204E4908804FF43020FFF70CFE0446A9
:10168000052C10D04648006941F6EF7108404449E6
:10169000086108E0052C06D04148006941F6DF7179
:1016A00008403F490861204630BDF0B505460E466A
:1016B000174604243B483A4988603B488860E0026A
:1016C000FFF7E9FD0446042C19D13548006940F0C4
:1016D00010003349086147F0F8003043284333498C
:1016E000891C0880E002FFF7D6FD0446052C06D0D1
:1016F0002B48006941F6EF710840294908612046EE
:10170000F0BD2748C069800870472548006A7047C7
:1017100000202349096801F0200109B1012000E0FF
:101720000020704729B11E4A126902431C4B1A61FE
:1017300004E01B4A12698243194B1A617047014643
:101740000020012908D1164AD26902F001020AB12B
:10175000012008E0002006E0114AD2680A400AB1E0
:10176000012000E0002070470D49C8607047042048
:101770000B49C96801F0010109B101200EE00849D7
:10178000C96801F0040109B1022007E00449C968F1
:1017900001F0100109B1032000E0042070470000AF
:1017A0000020024023016745AB89EFCD00F8FF1F01
:1017B00010B50446CC48844208D10121042000F031
:1017C0004DFB0021042000F049FB46E0C74884425D
:1017D00008D10121082000F041FB0021082000F081
:1017E0003DFB3AE0C248844208D10121102000F0BC
:1017F00035FB0021102000F031FB2EE0BD48844273
:1018000008D10121202000F029FB0021202000F038
:1018100025FB22E0B848844208D10121402000F095
:101820001DFB0021402000F019FB16E0B348844264
:1018300008D10121802000F011FB0021802000F060
:101840000DFB0AE0AE48844207D10121801500F06B
:1018500005FB0021A01500F001FB10BD10B5012112
:10186000084600F0FBFA0021012000F0F7FA10BD55
:101870002DE9F04102460025002600200023002427
:10188000002791F803C00CF00F0591F803C00CF08D
:10189000100CBCF1000F03D091F802C04CEA050512
:1018A00091F800C0BCF1000F31D0146800202BE08B
:1018B0004FF0010C0CFA00F3B1F800C00CEA03067B
:1018C0009E4220D183004FF00F0C0CFA03F7BC436B
:1018D00005FA03FC4CEA040491F803C0BCF1280F9C
:1018E00006D14FF0010C0CFA00FCC2F814C00AE05B
:1018F00091F803C0BCF1480F05D14FF0010C0CFA70
:1019000000FCC2F810C0401C0828D1D31460B1F804
:1019100000C0BCF1FF0F34DD546800202EE000F160
:10192000080C4FF0010808FA0CF3B1F800C00CEAFB
:1019300003069E4221D183004FF00F0C0CFA03F7EF
:10194000BC4305FA03FC4CEA040491F803C0BCF163
:10195000280F05D100F1080C08FA0CF8C2F8148021
:1019600091F803C0BCF1480F07D100F1080C4FF00B
:10197000010808FA0CF8C2F81080401C0828CED3E1
:101980005460BDE8F0814FF6FF7101800221817043
:101990000421C17070470246002093680B400BB1D0
:1019A000012000E0002070470146886880B270473F
:1019B00002460020D3680B400BB1012000E000205C
:1019C00070470146C86880B2704701617047416145
:1019D00070470AB1016100E041617047C160704722
:1019E0004FF480320A438261816182618269826937
:1019F000704702460020434B18684FF6807318402A
:101A000040EA021008433F4B186070473E49C861E6
:101A10007047F0B50A46002300240021002500F09D
:101A20000046B6F1004F02D1364EF16901E0354E65
:101A30007168C0F3034583B200F44016B6F5401F49
:101A400008D121F070612F4E766826F070662D4F18
:101A50007E6012E000F48016B6F5801F06D10326E2
:101A600006FA05F4A14341F0706106E0460D360127
:101A700003FA06F6B14341F0706122B1460D36011A
:101A800003FA06F6314300F00046B6F1004F02D1EA
:101A90001C4EF16101E01B4E7160F0BD30B50022BB
:101AA0008B071C0F0F2303FA04F2164B08338C101C
:101AB00053F824309343134C08348D1044F82530E8
:101AC00023468C1053F824308C07240F00FA04F4BA
:101AD00023430C4C08348D1044F8253030BD0A499E
:101AE000DC3108607047000000080140000C014034
:101AF000001001400014014000180140001C01408A
:101B00000020014000000140000020420E49086012
:101B100070470D49486070470B49886070474AF626
:101B2000AA200949086070474CF6CC400649086075
:101B3000704701460020044AD2680A400AB10120D9
:101B400000E000207047000000300040DF480068DF
:101B500040F00100DD49086008464068DC49084063
:101B6000DA49486008460068DA490840D749086001
:101B70000846006820F4802008600846406820F489
:101B8000FE0048604FF41F0088607047CF49096825
:101B900021F48031CD4A11601146096821F4802179
:101BA0001160B0F5803F03D0B0F5802F0ED106E074
:101BB000C649096841F48031C44A116007E0C3494D
:101BC000096841F4A021C14A116000E000BF00BFD4
:101BD000704710B501460022002300204A11012A57
:101BE00002D1BA4C236806E0022A02D1B74C236A1C
:101BF00001E0B64C636A01F01F02012494401C40CE
:101C00000CB1012000E0002010BD38B5002000908C
:101C10000024002500BF3120FFF7DBFF05460098B8
:101C2000401C00900098B0F5A06F01D0002DF2D0BC
:101C30003120FFF7CEFF08B1012400E00024204648
:101C400038BD01460020A14A106820F0F80040EAA3
:101C5000C10010607047A04908607047024600202C
:101C60009A4B586820F47C1042EA01031843974BC2
:101C70005860704798490866704701460020934AAB
:101C8000506820F003000843506070478F48406858
:101C900000F00C007047014600208C4A506820F08C
:101CA000F00008435060704701460020874A5068A2
:101CB00020F4E06008435060704701460020834AEA
:101CC000506820F4605040EAC1005060704729B16C
:101CD0007E4A527A02437D4B5A7204E07B4A527A22
:101CE00082437A4B5A7270477B49D83108607047FB
:101CF00001460020754A506820F440400843506077
:101D000070470021714A20321170704A82F8201009
:101D1000012802D004280AD104E001216B4A2032B4
:101D2000117005E00521694A2032117000E000BF02
:101D300000BF70476949086070476449096A0143F8
:101D4000624A11627047654944390860704730B58E
:101D500000210022002400235C4D6D6805F00C0179
:101D600021B1042905D0082923D105E05C4D056087
:101D700022E05B4D05601FE0544D6D6805F4701264
:101D8000524D6D6805F48034022505EB92421CB972
:101D9000544D554305600BE04C4D6D6805F400351E
:101DA0001DB1504D5543056002E04D4D5543056052
:101DB00002E04B4D056000BF00BF444D6D6805F06B
:101DC000F0010909484D6B5C0568DD4045603F4DF9
:101DD0006D6805F4E061090A434D6B5C4568DD40C0
:101DE00085603A4D6D6805F46051C90A3E4D6B5CE3
:101DF0004568DD40C560354D6D6805F44041890B8F
:101E00003A4D6B5CC568B5FBF3F5056130BD29B192
:101E10002E4A526902432D4B5A6104E02B4A526903
:101E200082432A4B5A61704729B1284A926902437A
:101E3000264B9A6104E0254A92698243234B9A61BA
:101E4000704729B1214AD2690243204BDA6104E08C
:101E50001E4AD26982431D4BDA61704729B11B4A81
:101E6000D2680243194BDA6004E0184AD268824310
:101E7000164BDA60704729B1144A12690243134BBA
:101E80001A6104E0114A12698243104B1A617047CB
:101E900012494039086070470F49C86470470B49C0
:101EA000C87170470948406A40F08070074948622D
:101EB000704701460020054A92680A400AB1012095
:101EC00000E000207047014988727047001002400E
:101ED0000000FFF8FFFFF6FE00004242800442428D
:101EE00000127A0000093D00320200204202002068
:101EF00010B50446FE48844208D10121C014FFF702
:101F0000ADFF0021E014FFF7A9FFC4E0B4F1804F5A
:101F100008D101210846FFF7AEFF00210120FFF79D
:101F2000AAFFB8E0F348844208D101210220FFF75C
:101F3000A2FF00210220FFF79EFFACE0EE488442A2
:101F400008D101210420FFF796FF00210420FFF7AC
:101F500092FFA0E0E948844208D101210820FFF760
:101F60008AFF00210820FFF786FF94E0E4488442BE
:101F700008D101211020FFF77EFF00211020FFF77C
:101F80007AFF88E0DF48844208D101212020FFF752
:101F900072FF00212020FFF76EFF7CE0DA488442C8
:101FA00008D101214014FFF759FF00216014FFF709
:101FB00055FF70E0D548844209D10121C804FFF7DC
:101FC0004DFF00214FF40020FFF748FF63E0D048A9
:101FD000844209D101210805FFF740FF00214FF499
:101FE0008010FFF73BFF56E0CA48844209D1012127
:101FF0004805FFF733FF00214FF40010FFF72EFFD5
:1020000049E0C548844208D101214020FFF733FF51
:1020100000214020FFF72FFF3DE0C048844208D157
:1020200001218020FFF727FF00218020FFF723FFF9
:1020300031E0BB48844208D101218015FFF71BFF26
:102040000021A015FFF717FF25E0B648844209D10B
:1020500001210804FFF702FF00214FF48030FFF751
:10206000FDFE18E0B048844209D101214804FFF781
:10207000F5FE00214FF40030FFF7F0FE0BE0AB4817
:10208000844208D101218804FFF7E8FE00214FF4C3
:102090008020FFF7E3FE10BD00220288944B984297
:1020A0000ED0994B98420BD0B0F1804F08D0914B95
:1020B000984205D0904B984202D0904B984204D160
:1020C0004FF68F731A404B881A438D4B984207D0B6
:1020D0008C4B984204D04FF6FF431A40CB881A43EA
:1020E00002808B8883850B880385814B98420BD0B7
:1020F000854B984208D08B4B984205D08A4B98422A
:1021000002D08A4B984201D10B7A03860123838245
:10211000704770B5002400220023058C4FF6FE7630
:1021200035400584028C8388048B4FF68F752C40D4
:10213000B51E2C400D882C43751E2A400D892A435C
:102140004D882A436A4DA8420BD06F4DA84208D053
:10215000744DA84205D0744DA84202D0734DA842D8
:1021600013D14FF6F7752A404D892A434FF6FB7578
:102170002A408D882A434FF6FF652B404FF6FF55C6
:102180002B408D892B43CD892B4383800483CD88BD
:102190008586028470BD70B5002400220023058C62
:1021A0004FF6EF7635400584028C8388048B48F621
:1021B000FF752C404FF6FF452C400D884FF6FF76FB
:1021C00006EA05252C434FF6DF752A400D8906EAFD
:1021D00005152A434D8806EA05152A43444DA842B1
:1021E00002D0494DA8421DD14FF67F752A404D8936
:1021F0004FF6FF7606EA05152A434FF6BF752A40CB
:102200008D8806EA05152A434FF6FF352B404FF21D
:10221000FF752B408D8906EA85052B43CD8906EA9B
:1022200085052B4383800483CD880587028470BD98
:1022300070B5002400220023058C4FF6FF66354060
:102240000584028C8388848B4FF68F752C404FF663
:10225000FC752C400D882C434FF6FF552A400D8904
:102260004FF6FF7606EA05252A434D8806EA05253E
:102270002A431F4DA84202D0234DA8421DD14FF240
:10228000FF752A404D894FF6FF7606EA05252A4359
:102290004FF6FF352A408D8806EA05252A434EF67B
:1022A000FF752B404DF6FF752B408D8906EA05150D
:1022B0002B43CD8906EA05152B4383808483CD8883
:1022C0008587028470BD70B5002200230024058C30
:1022D0004EF6FF7635400584038C8488828B48F661
:1022E000FF752A404FF6FF452A400D8820E0000088
:1022F000002C01400004004000080040000C004099
:10230000001000400014004000340140004C014027
:10231000005001400054014000180040001C0040E3
:1023200000200040004001400044014000480140BE
:102330004FF6FF7606EA05252A434DF6FF752B403A
:102340000D8906EA05352B434D8806EA05352B43F2
:10235000FA4DA84202D0FA4DA84208D14BF6FF75BB
:102360002C408D894FF6FF7606EA85152C43848034
:102370008283CD88A0F84050038470BD828B4FF2D9
:10238000FF331A408283828B4FF6FF7303EA0123E7
:102390001A4382837047F0B50C461546002200218F
:1023A0000026078C4EF6FF7C07EA0C070784828B19
:1023B000018C4FF6FF7707EA043640F6FF473A40B4
:1023C0004FF6FF7707EA05273A434FF6FF7707EA0C
:1023D00003373A43D94FB8420ED0D94FB8420BD049
:1023E000B0F1804F08D0D74FB84205D0D64FB84291
:1023F00002D0D64FB84206D14DF6FF77394046F4A9
:102400008057394305E047F6FF57394044F4805779
:10241000394382830184F0BD828B4FF6F3731A40F7
:102420008283828B0A4382837047F0B50C4615463F
:10243000002200210026078C4FF6FF6C07EA0C07EC
:102440000784828B018C4FF6FF7707EA04264FF64C
:102450000C773A404FF6FF7707EA03172F433A43CA
:10246000B64FB8420ED0B64FB8420BD0B0F1804F45
:1024700008D0B44FB84205D0B34FB84202D0B34FE2
:10248000B84206D14FF6FF57394046F480773943BA
:1024900005E04FF2FF57394044F480773943828397
:1024A0000184F0BD028B4FF2FF331A400283028B8E
:1024B0004FF6FF7303EA01231A4302837047F0B516
:1024C0000C461546002200210026078C4FF6EF7CB3
:1024D00007EA0C070784028B018C4FF6FF7707EAA7
:1024E000041640F6FF473A404FF6FF7707EA0337F6
:1024F0003A434FF6FF7707EA05273A438F4FB84232
:102500000ED08F4FB8420BD0B0F1804F08D08D4F16
:10251000B84205D08C4FB84202D08C4FB84206D199
:102520004FF6DF77394046F01007394305E04FF6A4
:102530005F77394044F01007394302830184F0BDCE
:10254000028B4FF6F3731A400283028B0A43028315
:102550007047F0B50C46154600220021068C4FF658
:10256000FE773E400684028B018C4FF60C7632409B
:102570007E1C06EA03162E433243704EB0420ED044
:102580006F4EB0420BD0B0F1804F08D06D4EB042CC
:1025900005D06D4EB04202D06C4EB04206D14FF61F
:1025A000FD76314044F00106314305E04FF6F57603
:1025B000314044F00106314302830184F0BD70B51F
:1025C00005460C465D4885420ED05D4885420BD0DD
:1025D000B5F1804F08D05B48854205D05A48854206
:1025E00002D05A48854200D100E000BF208850B98F
:1025F0002389A28861882846FFF7ABFFE188284637
:10260000FFF79EFF25E0208804280AD12389A288AD
:1026100061882846FFF753FFE1882846FFF742FF0D
:1026200017E0208808280AD12389A28861882846D3
:10263000FFF7FBFEE1882846FFF7EEFE09E023895D
:10264000A28861882846FFF7A6FEE1882846FFF7A2
:1026500095FE70BD2DE9F04105460C460026012788
:10266000608808B9022600E00026A088012801D170
:10267000022700E001272088A0B92389A288618869
:102680002846FFF766FFE1882846FFF759FF2389B0
:102690003A4631462846FFF712FFE1882846FFF701
:1026A00001FF13E02389A28861882846FFF707FF0E
:1026B000E1882846FFF7F6FE23893A463146284648
:1026C000FFF747FFE1882846FFF73AFFBDE8F081B2
:1026D0000A884B881A438B881A43CB881A430B8984
:1026E0001A434B891A438B891A43A0F84420704738
:1026F0004FF6FF71818000210180C180418001720D
:1027000070470021018041808180C1800181418129
:102710008181C18170470021018041800121818038
:102720000021C180018170470021018041808180AA
:10273000C18001814181818170470000002C0140EE
:10274000003401400004004000080040000C00403C
:1027500021B1028842F00102028004E002884FF6B3
:10276000FE731A400280704731B1B0F8442042F441
:102770000042A0F8442005E0B0F84420C2F30E0265
:10278000A0F8442070471AB183890B43838102E08B
:1027900083898B43838170478182704741EA0203BA
:1027A000A0F8483070471AB183890B43838102E057
:1027B00083898B438381704701894FF6F8721140FA
:1027C000018170470A46002101894FF68F73194035
:1027D00011430181704730B504460D462946204615
:1027E000FFF7F0FF208940F00700208130BD2DE980
:1027F000F04104460D4616461F46602D06D13B4665
:10280000012231462046FFF75AFE05E03B460122F1
:1028100031462046FFF79DFE29462046FFF7D2FFAE
:10282000208940F007002081BDE8F08130B50C46DA
:1028300000210189C9B24FF6FF7505EA032515434A
:1028400025432943018130BD2DE9F04105460E465F
:1028500017469846002443463A4631462846FFF735
:10286000E5FF2C894FF6F870044044F007044FF65A
:102870008F70044044F070042C81BDE8F081F0B505
:1028800004460D4616461F463B463246294620461C
:10289000FFF7CCFF208940F480402081F0BD018506
:1028A000828270470A46002101884FF68F731940D3
:1028B000114301807047F0B50C4615461E460021B5
:1028C000002200230189028B038C4FF6F8773940F0
:1028D00021434FF6FC473A4040F201173A434FF686
:1028E000DD773B404FF6FF7707EA06172F433B4360
:1028F000018102830384F0BD0A460021018B4FF65B
:102900008F7319401143018370470A460021018BE0
:1029100048F6FF7319404FF6FF7303EA0223194389
:10292000018370470A460021818B4FF68F7319404F
:102930001143818370470A460021818B48F6FF735B
:1029400019404FF6FF7303EA02231943818370474E
:1029500021B1028842F08002028004E002884FF632
:102960007F731A400280704721B1828842F00402CE
:10297000828004E082884FF6FB731A4082807047A1
:1029800021B1828842F00802828004E082884FF6FA
:10299000F7731A408280704721B1828842F00102A9
:1029A000828004E082884FF6FE731A40828070476E
:1029B0000A460021018B4FF6F7731940114301833A
:1029C00070470A460021018B4FF2FF7319404FF602
:1029D000FF7303EA02231943018370470A4600216B
:1029E000818B4FF6F77319401143818370470A4674
:1029F0000021818B4FF2FF7319404FF6FF7303EAFA
:102A000002231943818370470A460021018B4FF648
:102A1000FB7319401143018370470A460021018B63
:102A20004FF6FF3319404FF6FF7303EA02231943B1
:102A3000018370470A460021818B4FF6FB731940D2
:102A40001143818370470A460021818B4FF6FF3383
:102A500019404FF6FF7303EA02231943818370473D
:102A60000A460021018B4FF67F7319401143018301
:102A700070470A460021018BC1F30E014FF6FF7328
:102A800003EA02231943018370470A460021818B20
:102A90004FF67F7319401143818370470A46002126
:102AA000818BC1F30E014FF6FF7303EA0223194332
:102AB000818370470A460021018C4FF6FD7319404F
:102AC0001143018470470A460021018C4FF6F773C9
:102AD00019401143018470470A460021018C4FF6CA
:102AE000DF7319404FF6FF7303EA021319430184A1
:102AF00070470A460021018C4FF67F7319404FF64C
:102B0000FF7303EA02131943018470470A46002148
:102B1000018C4FF6FF5319404FF6FF7303EA02236F
:102B20001943018470470A460021018C4FF2FF735C
:102B300019404FF6FF7303EA0223194301847047DB
:102B40000A460021018C4DF6FF7319404FF6FF73C2
:102B500003EA023319430184704730B5002301248E
:102B60008C40A3B2048C9C430484048C02FA01F5CB
:102B7000ADB22C43048430BD30B5002304248C4016
:102B8000A3B2048C9C430484048C02FA01F5ADB218
:102B90002C43048430BD70B5034600200024184641
:102BA000183001258D40ACB21D8CA5431D8409B1A0
:102BB000082909D100EB6100056825F07005056062
:102BC0000568154305600EE00D1FC5F34E0528444A
:102BD000056825F4E045056005684FF6FF7606EACE
:102BE00002263543056070BD21B1028842F0020221
:102BF000028004E002884FF6FD731A40028070479D
:102C000021B1028842F00402028004E002884FF6FB
:102C1000FB731A400280704721B1828842F0800223
:102C2000828004E082884FF67F731A40828070476A
:102C300002884FF6F7731A40028002880A43028026
:102C4000704782884FF68F731A40828082880A43C9
:102C50008280704702894FF6F8731A400281028918
:102C60000A430281704702894FF67F731A4002813E
:102C700002890A43028170478184704781857047C9
:102C8000818670470187704781877047A0F84010A0
:102C9000704702884FF6FF431A40028002880A43B9
:102CA000028070470146888E70470146088F704742
:102CB0000146888F70470146B1F8400070470146D1
:102CC000888C70470146088D704702460020138AA1
:102CD0000B400BB1012000E000207047CA43028284
:102CE000704730B50246002000230024158A05EA0B
:102CF0000103958905EA010413B10CB1012000E03C
:102D0000002030BDCA4302827047000010B504465F
:102D1000FB48844209D101218803FFF79FF8002175
:102D20004FF48040FFF79AF832E0F648844209D128
:102D300001214804FFF79FF800214FF40030FFF70E
:102D40009AF825E0F048844209D101218804FFF770
:102D500092F800214FF48020FFF78DF818E0EB483F
:102D6000844209D10121C804FFF785F800214FF4FE
:102D70000020FFF780F80BE0E548844208D10121EC
:102D80000805FFF778F800214FF48010FFF773F87B
:102D900010BD2DE9F04786B005460E460024A24638
:102DA00000BFA1460027B08900B100BF2F462C8A82
:102DB0004CF6FF700440F08804432C82AC894EF638
:102DC000F3100440B08831890843718908430443F3
:102DD000AC81AC8A4FF6FF400440B0890443AC821A
:102DE00001A8FEF7B4FFC648874202D1DDF810A063
:102DF00001E0DDF80CA0A88900F4004040B10AEB26
:102E0000CA0000EB0A1031684900B0FBF1F807E096
:102E10000AEBCA0000EB0A1031688900B0FBF1F838
:102E20006420B8FBF0F004012009642101FB108943
:102E3000A88900F4004040B1322000EBC900B0FB8B
:102E4000F1F000F00700044308E0322000EB091025
:102E50006421B0FBF1F000F00F0004432C8106B0B8
:102E6000BDE8F0874FF41651016000218180C180D8
:102E700001810C21418100218181704710B50246FA
:102E80000020108A4FF2FF0318400B884C88234320
:102E90008C882343CC8823431843108210BD002123
:102EA000018041808180C180704721B1828942F4D4
:102EB0000052828104E082894DF6FF731A408281BC
:102EC0007047F0B50346002400260025002040F698
:102ED0006A17B94200D100BF1846C1F3421401F08D
:102EE0001F06012707FA06F5012C01D10C3004E07A
:102EF000022C01D1103000E014301AB107682F43C2
:102F0000076002E00768AF430760F0BD1AB1838A2B
:102F10000B43838202E0838A8B4383827047028A59
:102F20004FF6F0731A400282028A0A430282704707
:102F300082894FF2FF731A40828182890A4382811B
:102F4000704721B1828942F00202828104E08289C5
:102F50004FF6FD731A4082817047028A4FF6DF7385
:102F60001A400282028A0A430282704721B1028A11
:102F700042F48042028204E0028A4BF6FF731A4058
:102F800002827047C1F30802828070470146888838
:102F9000C0F308007047818941F0010181817047C9
:102FA000028BD2B20283028B42EA01220283704773
:102FB000028B02F47F420283028B0A430283704732
:102FC00021B1828A42F02002828204E0828A4FF696
:102FD000DF731A408282704721B1828A42F0100268
:102FE000828204E0828A4FF6EF731A408282704731
:102FF00021B1828A42F00802828204E0828A4FF67E
:10300000F7731A408282704721B1828942F40042EC
:10301000828103E08289C2F30E028281704721B16E
:10302000828A42F40062828204E0828A4FF2FF7355
:103030001A4082827047828A4FF6FB731A4082825E
:10304000828A0A438282704721B1828A42F0020258
:10305000828204E0828A4FF6FD731A4082827047B2
:1030600002460020B1F5007F00D100BF13880B405D
:103070000BB1012000E00020704701F40072B2F5AE
:10308000007F00D100BFCA430280704770B502467E
:10309000002400230025002040F66A16B14200D12A
:1030A00000BFC1F3421501F01F03012606FA03F326
:1030B000012D02D19689334006E0022D02D1168AF5
:1030C000334001E0968A33400C12012606FA04F4DC
:1030D0001688344013B10CB1012000E0002070BD0F
:1030E00010B50022002340F66A14A14200D100BFAF
:1030F0000A1201249440A3B2DC43048010BD0000F6
:10310000003801400044004000480040004C0040AE
:10311000005000400CB50020019000906C48006801
:1031200040F480306A49086000BF6948006800F4D4
:10313000003000900198401C0190009818B9019847
:10314000B0F5A06FF1D16248006800F4003010B112
:103150000120009001E0002000900098012843D158
:103160005C48006840F010005A4908600846006852
:1031700020F0030008600846006840F00200086084
:1031800053484068524948600846406848600846CD
:10319000406840F4806048600846406820F47C1035
:1031A00048600846406840F4E810486008460068F7
:1031B00040F08070086000BF4548006800F0007073
:1031C0000028F9D04248406820F003004049486098
:1031D0000846406840F00200486000BF3C48406834
:1031E00000F00C000828F9D10CBD10B5FFF792FFD4
:1031F00010BD10B53648006840F001003449086041
:10320000084640683449084031494860084600682B
:10321000324908402E4908600846006820F48020A2
:1032200008600846406820F4FE0048604FF41F0024
:103230008860FFF7DAFF4FF000602949086010BD91
:1032400010B5002100200022214B5B6803F00C0127
:1032500021B1042906D0082928D107E0214B224CAE
:10326000236027E01F4B204C236023E0184B5B6852
:1032700003F47010164B5B6803F48032022303EBF7
:10328000904022B9194B4343174C23600DE0104B7B
:103290005B6803F4003323B1144B4343124C2360A7
:1032A00003E0104B4343104C236003E00D4B0E4CE6
:1032B000236000BF00BF064B5B68C3F303130C4CD5
:1032C000E15C094B1B68CB40074C236010BD00003C
:1032D00000100240002002400000FFF8FFFFF6FE51
:1032E00008ED00E000127A004802002000093D00CD
:1032F0004C02002008B501210820FEF795FD0121B0
:103300000846FEF791FD01213E48FEF782FB4FF48F
:103310000040ADF8000010208DF8030003208DF868
:10332000020069463848FEF7A3FA0122D103364865
:10333000FEF74FFB4FF40050ADF8000010208DF861
:10334000030003208DF8020069463048FEF790FA2A
:1033500000224FF400512D48FEF73BFB4FF4804014
:10336000ADF8000010208DF8030003208DF8020056
:1033700069462648FEF77CFA00224FF48041234834
:10338000FEF727FB4FF40040ADF8000010208DF849
:10339000030003208DF8020069461C48FEF768FA16
:1033A00000224FF400411948FEF713FB08BD012825
:1033B00008D115490C31096881F40041124A0C32D8
:1033C00011601DE0022808D110490C31096881F410
:1033D00000510E4A0C32116012E0032808D10B494B
:1033E0000C31096881F48041084A0C32116007E011
:1033F00006490C31096881F40041044A0C3211601D
:10340000704700000002300000080140000C01403D
:1034100030B500BF1F4800681F4AB0FBF2F1B1F1A0
:10342000807F01D301201DE021F07F40401E4FF03E
:10343000E022506150170F22002807DA13071D0EF3
:10344000164B00F00F04241F1D5503E013071C0E3C
:10345000134B1C5400BF00204FF0E0229061072066
:10346000106100200028D5D130BD0E49088000BF72
:103470000C4909880029FBD1704700B5024603E0DA
:103480004FF47A70FFF7F1FF101EA2F101018AB22A
:10349000F6D100BD4802002040420F0018ED00E0C8
:1034A00000E400E014020020014600BF704700BFA6
:1034B000F94A128802F04002002AF9D0C2B2F64B53
:1034C0001B1D1A80704700BFF348008800F02000E1
:1034D0000028F9D0F048001D0088C0F308007047AC
:1034E00004E0EE4800780F2800D100E0F9E700BFC3
:1034F0000020EA490870704700BFE9490978562959
:10350000FBD1E74949784129F7D1E5498978522922
:10351000F3D10021E24A1170517091701146C978BF
:10352000017011460979417011464979817011463F
:103530008979C1700021DB4A1170DB4A117000BF2C
:1035400000BF704700217B2807D100BF0122D74B65
:103550001A700022D64B1A7047E07D2806D100224F
:10356000D24B1A700122D34B1A703EE03A2801D098
:103570002C2806D1CE4A1278521CCD4B1A7000214D
:1035800033E0CA4A1278012A0BD1032906DAC84A65
:10359000127802EB4202C84B1A4450544A1CD1B272
:1035A00023E04F2803D10122BC4B1A701DE04B28A9
:1035B00007D1BA4A127802F00D02921CB74B1A706A
:1035C00013E00D2807D1B54A127802F00B02121D44
:1035D000B24B1A7009E00A2807D1B04A127802F0FB
:1035E000070242F00802AD4B1A70704710B519E19E
:1035F000B04800780128FAD1AF4800785628F6D1B3
:10360000AD4840784128F2D1AB4880785228EED1BD
:10361000A9484079302816DBA7484079392812DCC0
:10362000A548C078303864235843A34B1B79303BFE
:1036300003EB830300EB43039F4840793038184481
:103640009E4B187021E09C480079302810DB9A4886
:10365000007939280CDC984800793038964BDB78B3
:10366000303B03EB830300EB4300944B18700CE0FA
:103670009148C078302808DB8F48C078392804DCAE
:103680008D48C07830388D4B18708B48007A3028C0
:1036900016DB8948007A392812DC8748807930386F
:1036A00064235843844BDB79303B03EB830300EB0B
:1036B00043038148007A30381844804B587021E029
:1036C0007D48C079302810DB7B48C07939280CDC74
:1036D0007948C0793038784B9B79303B03EB8303D2
:1036E00000EB4300754B58700CE07348807930282C
:1036F00008DB71488079392804DC6F4880793038DC
:103700006E4B58706C48C07A302816DB6A48C07A15
:10371000392812DC6848407A303864235843664BB5
:103720009B7A303B03EB830300EB43036248C07A90
:1037300030381844614B987021E05F48807A302817
:1037400010DB5D48807A39280CDC5B48807A3038A1
:10375000594B5B7A303B03EB830300EB4300574B41
:1037600098700CE05448407A302808DB5248407A80
:10377000392804DC5048407A3038504B98704E4815
:10378000807B302816DB4C48807B392812DC4A4885
:10379000007B303864235843474B5B7B303B03EB63
:1037A000830300EB43034448807B30381844434B89
:1037B000D87021E04048407B302810DB3E48407BF9
:1037C00039280CDC3C48407B30383B4B1B7B303B82
:1037D00003EB830300EB4300384BD8700CE0364812
:1037E000007B302808DB3448007B392804DC324871
:1037F000007B3038314BD87000210DE0002207E00B
:10380000002001EB41032C4C23449854501CC2B2BD
:10381000032AF5DB481CC1B20529EFDB0020254B4C
:10382000187000E0E4E600BF10BD30B5034659E073
:1038300020480078012855D11F48007855281CD110
:103840001D484078502818D1012018700020194CCC
:10385000207000210EE0002207E0002001EB41046F
:10386000154D2C44A054501CC2B2032AF5DB481C51
:10387000C0B201460529EEDB35E00F480078442848
:1038800030D10D4840784E282CD100201870094CBA
:103890002070002123E00000003801406302002076
:1038A000690200206D0200206E02002061020020EB
:1038B00060020020620200208C09002064020020C7
:1038C000002207E0002001EB4104394D2C44A054B4
:1038D000501CC2B2032AF5DB481CC0B201460529C0
:1038E000EEDB00E0A4E700BF30BD70B50446002564
:1038F0000FE0207860B121782E48FFF743FB00BF2E
:1039000080212C48FFF7ACFB0028F9D0641C00E0B4
:1039100070BDEEE710B586B00446012144F2050003
:10392000FEF782FA4FF40070ADF8140003208DF812
:10393000160018208DF8170005A91F48FDF798FFFD
:103940004FF48060ADF8140004208DF8170005A92D
:103950001948FDF78DFF25208DF8000000208DF817
:10396000010003208DF8020001208DF80300684655
:10397000FCF7DFFE01940020ADF80800ADF80A0066
:10398000ADF80C00ADF810000C20ADF80E0001A948
:103990000848FFF7FEF9012240F225510548FFF7DC
:1039A00090FA01210348FFF780FA06B010BD00002D
:1039B0008C090020003801400008014038B5502033
:1039C00001F085FC8DF80000592001F080FC8DF895
:1039D00001009DF8001001F00C0149009DF8012044
:1039E00001EB521002F0F6FCFE490860512001F094
:1039F0006EFCFD490860FB480168FC4802F0CCFA07
:103A0000044602F0FDFCFA49086038BD10B5FF21FC
:103A1000062001F0CCFCFF21072001F0C8FC10BDFE
:103A20002DE9F84FDFF8CCA3EF49096841F23012D5
:103A3000501A02F0CFFC5146009002F005FB83467D
:103A400002F010FD07460022EB4B02F03BFB05465F
:103A500002F0EFFCC0F30714E3490968C1F51660F2
:103A600002F0B8FC5146009002F0EEFA834602F0F4
:103A7000F9FC07460022E04B02F024FB054602F069
:103A8000D8FCC0F307192146092001F090FC4946F3
:103A90000A2001F08CFCBDE8F88F10B5FFF7C0FFDD
:103AA00010BD10B500240AE00A20FFF7E6FCD34A57
:103AB000115DD34A105D01F07AFC601CC4B20C2C7D
:103AC000F2DB10BD10B5FFF7ECFF10BD10B5012201
:103AD0001102CC48FDF77DFF6420FFF7CEFC0022E9
:103AE0004FF48071C748FDF774FF10BD10B5FFF7A4
:103AF000EDFFFFF7E7FFFFF761FFFFF7CEFFFFF7EF
:103B000085FFFF21002001F052FC10BD10B5FF2100
:103B1000002001F04CFC10BD1FB50C2001F0D7FBBC
:103B200003900D2001F0D3FB0290039804B2029899
:103B300040EA042004B2AE48006860434FF47A7152
:103B400090FBF1F0A8490988084404B2AE4804602B
:103B5000C4F307200190E0B20090AC49019888704E
:103B60000098C870AA49019888700098C870A9493F
:103B7000019888700098C8701FBD1CB50E2001F018
:103B8000A6FB8DF805000F2001F0A1FB8DF80400C5
:103B90009DF805409DF8040040EA0424944800681C
:103BA00060434FF47A7190FBF1F08F490968441833
:103BB00095484460C4F30720ADF80200E0B2ADF8C8
:103BC0000000BDF8020091490871BDF8000048717D
:103BD000BDF802008E490871BDF800004871BDF8BB
:103BE00002008C490871BDF8000048711CBD1CB56D
:103BF000102001F06CFB8DF80500112001F067FB2F
:103C00008DF804009DF805409DF8040040EA042466
:103C10007748006860434FF47A7190FBF1F0724985
:103C200009684418200A8DF80100E0B28DF8000000
:103C3000754884609DF80100744988719DF8000002
:103C4000C8719DF80100724988719DF80000C87123
:103C50009DF801006F4988719DF80000C8711CBD76
:103C60001CB5122001F033FB8DF80500132001F084
:103C70002EFB8DF804009DF805409DF8040040EAF5
:103C800004245B48006860434FF47A7190FBF1F0C4
:103C9000554909684418200A8DF80100E0B28DF8F2
:103CA00000005948C4609DF80100584908729DF809
:103CB000000048729DF80100554908729DF8000007
:103CC00048729DF80100544988709DF80000C87042
:103CD0001CBD1CB5142001F0FAFA8DF80500152062
:103CE00001F0F5FA8DF804009DF805409DF80400F8
:103CF00040EA042004B23E48006860434FF47A7101
:103D000090FBF1F038490988084404B23E48046148
:103D1000200A8DF80100E0B28DF800009DF8010046
:103D20003A4988729DF80000C8729DF80100384930
:103D300088729DF80000C8729DF80100364908712C
:103D40009DF8000048711CBD1CB5162001F0BFFA9B
:103D50008DF80500172001F0BAFA8DF804009DF8DF
:103D600005409DF8040040EA042004B220480068A1
:103D700060434FF47A7190FBF1F01B4909880844C5
:103D800004B221484461200A8DF80100E0B28DF8A8
:103D900000009DF801001D4908739DF8000048735C
:103DA0009DF801001A4908739DF8000048739DF8BA
:103DB0000100194988719DF80000C8711CBD1CB52F
:103DC000182001F084FA8DF80500192001F07FFA1F
:103DD0008DF804009DF805409DF8040040EA042099
:103DE00004B21BE078020020700200200080B6437D
:103DF000740200202506C13E0000E03F500500206F
:103E00004405002000080140DC0900207C0200205D
:103E100070040020060500200E050020FE48006802
:103E200060434FF47A7190FBF1F0FC490988084433
:103E300004B2FB488461200A8DF80100E0B28DF8DD
:103E400000009DF80100F74988739DF80000C873D1
:103E50009DF80100F44988739DF80000C8739DF82F
:103E60000100F24988709DF80000C8701CBD1CB5A7
:103E70001A2001F02CFA8DF805001B2001F027FA1A
:103E80008DF804009DF805409DF8040040EA0424E4
:103E9000E148006860434FF47A7190FBF1F0DF492C
:103EA00009684418200A8DF80100E0B28DF800007E
:103EB000DB48C4619DF80100DA4908749DF80000F0
:103EC00048749DF80100D84908749DF800004874B2
:103ED0009DF80100D54908719DF8000048711CBD8E
:103EE0001CB51C2001F0F3F98DF805001D2001F030
:103EF000EEF98DF804009DF805409DF8040040EAB5
:103F0000042004B2C448006860434FF47A7190FB07
:103F1000F1F0C2490988084404B2200A8DF8010072
:103F2000E0B28DF80000BE4804629DF80100BD4972
:103F300088749DF80000C8749DF80100BA4988741F
:103F40009DF80000C8749DF80100B84988719DF87B
:103F50000000C8711CBD1CB51E2001F0B8F98DF819
:103F600005001F2001F0B3F98DF804009DF805400D
:103F70009DF8040040EA042004B2A74800686043AA
:103F80004FF47A7190FBF1F0A4490988084404B217
:103F9000A3484462200A8DF80100E0B28DF80000C9
:103FA0009DF801009F4908759DF8000048759DF82F
:103FB00001009F4988709DF80000C8709DF80100BD
:103FC0009C4988709DF80000C8701CBD1CB520205D
:103FD00001F07DF98DF80500212001F078F98DF8C8
:103FE00004009DF805409DF8040040EA042004B256
:103FF0008948006860434FF47A7190FBF1F087497B
:104000000988084404B286488462200A8DF80100B9
:10401000E0B28DF800009DF80100824988759DF896
:104020000000C8759DF80100814908719DF80000E5
:1040300048719DF801007F4908719DF800004871A2
:104040001CBD1CB5222001F042F98DF8050023208B
:1040500001F03DF98DF804009DF805409DF804003D
:1040600040EA042004B26C48006860434FF47A715F
:1040700090FBF1F069490988084404B26848C462B9
:10408000200A8DF80100E0B28DF800009DF80100D3
:10409000644908769DF8000048769DF8010064495F
:1040A00088719DF80000C8719DF801006149887110
:1040B0009DF80000C8711CBD1CB5242001F007F953
:1040C0008DF80500252001F002F98DF804009DF817
:1040D00005409DF8040040EA042004B24E48006800
:1040E00060434FF47A7190FBF1F04C490988084421
:1040F00004B24B480463200A8DF80100E0B28DF849
:1041000000009DF80100474988769DF80000C876B8
:104110009DF80100464908729DF8000048729DF81C
:104120000100454988709DF80000C8701CBD1CB591
:10413000262001F0CCF88DF80500272001F0C7F803
:104140008DF804009DF805409DF8040040EA042025
:1041500004B23148006860434FF47A7190FBF1F08B
:104160002E490988084404B22D484463200A8DF87A
:104170000100E0B28DF800009DF8010029490877A0
:104180009DF8000048779DF80100294988729DF844
:104190000000C8729DF80100274908719DF80000D1
:1041A00048711CBD1CB5282001F091F88DF8050060
:1041B000292001F08CF88DF804009DF805409DF849
:1041C000040040EA042004B21348006860434FF43E
:1041D0007A7190FBF1F011490988084404B2104843
:1041E0008463200A8DF80100E0B28DF800009DF88C
:1041F00001000C4988779DF80000C8779DF8010000
:104200000B4908739DF8000048739DF801000A49A6
:1042100088719DF8000011E07402002070020020F7
:10422000DC0900207C02002070040020160500201C
:10423000A20400201E05002026050020C8711CBD18
:10424000FE490968FD4A52681144FC4A126911444A
:10425000FA4A52691144F94A92691144F74A526A7A
:104260001144F64A926A1144F44AD26A1144F34A5C
:10427000926B8818F149C863898F090AF04A82F85D
:104280002010EE4991F83C1082F82110114691F867
:104290002010EC4A9173EA4991F82110D173E84952
:1042A00091F82010E84A9170E54991F82110D170F9
:1042B0007047E248C06B49F22401884203DD642064
:1042C000E24908602CE1DD48C06B49F224018842D4
:1042D00009DDDA48C06B49F2E611884203DA5F2053
:1042E000DA4908601CE1D548C06B48F66261884233
:1042F00009DDD248C06B49F22401884203DA5A2012
:10430000D24908600CE1CD48C06B48F6A041884214
:1043100009DDCA48C06B48F66261884203DA58205A
:10432000CA490860FCE0C548C06B48F6DE218842F7
:1043300009DDC248C06B48F6A041884203DA572025
:10434000C2490860ECE0BD48C06B48F61C118842C9
:1043500009DDBA48C06B48F6DE21884203DA5620F0
:10436000BA490860DCE0B548C06B48F61C118842C9
:1043700009DDB248C06B48F6DE21884203DA5520D9
:10438000B2490860CCE0AD48C06B48F25A7188422F
:1043900009DDAA48C06B48F61C11884203DA542094
:1043A000AA490860BCE0A548C06B48F29851884211
:1043B00009DDA248C06B48F25A71884203DA5320E3
:1043C000A2490860ACE09D48C06B48F2D6318842F3
:1043D00009DD9A48C06B48F29851884203DA5220AE
:1043E0009A4908609CE09548C06B48F214218842C5
:1043F00009DD9248C06B48F2D631884203DA512079
:10440000924908608CE08D48C06B48F252018842A6
:1044100009DD8A48C06B48F21421884203DA502033
:104420008A4908607CE08548C06B47F69061884205
:1044300009DD8248C06B48F25201884203DA4F20FE
:10444000824908606CE07D48C06B47F6CE418842E7
:1044500009DD7A48C06B47F69061884203DA4E2046
:104460007A4908605CE07548C06B47F60C318842B9
:1044700009DD7248C06B47F6CE41884203DA4D2011
:10448000724908604CE06D48C06B47F64A1188429B
:1044900009DD6A48C06B47F60C31884203DA2820F0
:1044A0006A4908603CE06548C06B47F28871884201
:1044B00009DD6248C06B47F60C31884203DA1E20E2
:1044C000624908602CE05D48C06B47F204418842B5
:1044D00009DD5A48C06B47F28871884203DA14201C
:1044E0005A4908601CE05548C06BB0F5E14F09DD42
:1044F0005248C06B47F20441884203DA0A2053490C
:1045000008600DE04D48C06B46F6FC41884207DD6F
:104510004A48C06BB0F5E14F02DA05204B4908600C
:104520004A480068454908640846B0F84000000A57
:10453000434981F82200414890F8400081F8230067
:10454000084690F822003F4908743D4890F823003F
:1045500048743B4890F822003B490871384890F86D
:1045600023004871704710B50121084600F01FFF75
:1045700010BD10B50221012000F019FF10BD10B5CB
:104580001021012000F013FF10BD10B50121022001
:1045900000F00DFF10BD10B50221084600F007FF26
:1045A00010BD10B51021022000F001FF10BD10B5A4
:1045B000002404E03220FEF760FF601CC4B20B2C24
:1045C000F8DB10BD10B51921042000F0F0FE142016
:1045D000FEF753FF1A21042000F0E9FE10BD10B5CC
:1045E000012211021A48FDF7F4F93220FEF745FFC7
:1045F00000224FF480711648FDF7EBF910BD2DE94C
:10460000F843322000F063FE8DF80100332000F003
:104610005EFE8DF800009DF801409DF8000040EA24
:104620000424B4F5FA4F40D8204601F0DCFE0746DA
:10463000084A094B01F0EDFD05460FE0DC090020BA
:104640007C020020A20400202E050020400500204E
:1046500000080140E17A14AE47E1004001F015FF87
:104660008146484601F0CCFEFE4948640846B0F851
:104670004400000AFC4981F82400FA4890F84400FC
:1046800081F82500084690F82400F8498874F64817
:1046900090F82500C874F44890F82400F449887113
:1046A000F14890F82500C87130E04FF6FF71081B03
:1046B00001F099FE0546EF4AEF4B01F0AAFD0746CF
:1046C00001F0E3FE8146484601F09AFEE549486460
:1046D0000846B0F84400000AE34981F82400E148A4
:1046E00090F8440081F82500084690F82400DF493E
:1046F0008874DD4890F82500C874DB4890F82400E1
:10470000DB498871D84890F82500C871BDE8F88366
:104710002DE9F04F95B000BFD8481490D8481390B9
:10472000D8481290D84811902C2000F0D0FD8DF878
:1047300041002D2000F0CBFD8DF840009DF8400099
:104740009DF8411040EA012A4FF4BF700AFB00F0C7
:104750004FF47A7190FBF1F042F2107148434FF43C
:10476000BF710AFB01F14FF47A7291FBF2F140F64E
:10477000E442511A90FBF1FA119801F073FECDE971
:104780000E01129801F06EFECDE90401504601F0D1
:1047900021FE0190149901F057FC834601F062FE5E
:1047A000CDE9020102F032FD0646DDE9042301F005
:1047B000A2FDCDE908014FF07E50139901F044FCB1
:1047C000064601F04FFECDE90601DDE9082301F0C0
:1047D00079FC02460B46CDE90A010020AB4901F005
:1047E0008AFDCDE90C01DDE90E2301F00CFD044644
:1047F0000022A74B01F066FC804601F046FEA54969
:1048000008600846006801F0FBFD9649886415B011
:10481000BDE8F08F2DE9F04F95B000BF9748149098
:104820009748139097481290974811902C2000F0C9
:104830004EFD8DF841002D2000F049FD8DF840001F
:104840009DF840009DF8411040EA012A4FF4BF70E6
:104850000AFB00F04FF47A7190FBF1F042F2107114
:1048600048434FF4BF710AFB01F14FF47A7291FB98
:10487000F2F140F6E442511A90FBF1FA119801F07E
:10488000F1FDCDE90E01129801F0ECFDCDE9040136
:10489000504601F09FFD0190149901F0D5FB83462D
:1048A00001F0E0FDCDE9020102F0B0FC0646DDE9D1
:1048B000042301F020FDCDE908014FF07E5013994B
:1048C00001F0C2FB064601F0CDFDCDE90601DDE9B0
:1048D000082301F0F7FB02460B46CDE90A01002050
:1048E0006A4901F008FDCDE90C01DDE90E2301F074
:1048F0008AFC04460022664B01F0E4FB804601F08E
:10490000C4FD654908600846006801F079FD554915
:104910008864084690F84800534981F82600084604
:1049200090F826005D4988704F4890F826005C4951
:10493000887015B0BDE8F08F10B5052000F0C7FCF9
:10494000584908700846007800F00200564908707F
:104950005448007800F0010054490870524800782B
:10496000414981F827005148007881F8280008461D
:1049700090F827004A49C8703B4890F82800087111
:1049800010BD10B5FFF7D8FF4748007820B143218C
:10499000052000F00CFD03E04121052000F007FD9B
:1049A00010BD10B5FFF7C8FF3F48007820B1422185
:1049B000052000F0FCFC03E04021052000F0F7FC9E
:1049C00010BD10B5FFF7B8FF3848007820B143217B
:1049D000052000F0ECFC03E04221052000F0E7FC9C
:1049E00010BD10B5FFF7A8FF3048007820B1412175
:1049F000052000F0DCFC03E04021052000F0D7FC9E
:104A000010BD10B54321052000F0D1FC10BD10B53C
:104A10004021052000F0CBFC10BD70B590B03421D2
:104A200003A801F0AEFA002408E00F48015D204819
:104A3000FEF7A8FA0220FEF720FD641C322CF4DBFE
:104A4000002214211B4801F00BF86420FEF715FD2D
:104A500000221421054801F003F86420FEF70DFD43
:104A6000002229E0DC0900207C020020A2040020B2
:104A70002E050020E17A14AE47E1004000401C46BC
:104A80003313954300405345339388430000F03F70
:104A90000000E03F5C05002060050020D4040020F9
:104AA000360500206C0500206D0500206E050020F5
:104AB00000380140700400201421DD4800F0D0FFD0
:104AC00001220821DB4801F0FDF90220FEF7D5FCA8
:104AD00002220821D84801F0F5F90220FEF7CDFCAA
:104AE00003220821D54801F0EDF90220FEF7C5FCAC
:104AF00004220821D24801F0E5F90220FEF7BDFCAE
:104B000005220821CF4801F0DDF90220FEF7B5FCAF
:104B100006220821CC4801F0D5F90220FEF7ADFCB1
:104B200007220821C94801F0CDF90220FEF7A5FCB3
:104B3000C7A0FEF7DAFE6420FEF79FFCC4A0FEF7D4
:104B4000D4FE6420FEF799FCC4A0FEF7CEFE6420DC
:104B5000FEF793FCC4A00090C448C5A2C7A1036897
:104B600003A801F079FE03A8FEF7BFFE6420FEF75C
:104B700084FCBDA00090BD48C7A2CAA1436803A899
:104B800001F06AFE03A8FEF7B0FE6420FEF775FC94
:104B9000B5A00090B548CAA2CCA1036903A801F052
:104BA0005BFE03A8FEF7A1FE6420FEF766FCAEA044
:104BB0000090AE48CCA2CFA1436903A801F04CFEFF
:104BC00003A8FEF792FE6420FEF757FCA6A0009013
:104BD000A648CFA2D1A1836903A801F03DFE03A896
:104BE000FEF783FE6420FEF748FC9FA000909F48DC
:104BF000D1A2D4A1436A03A801F02EFE03A8FEF7B8
:104C000074FE4FF47A70FEF738FC91A0FEF76DFE4B
:104C10006420FEF732FC94A000909448D0A297A1A3
:104C2000836A03A801F018FE03A8FEF75EFE642065
:104C3000FEF723FC8CA000908C48CCA299A1C36AFB
:104C400003A801F009FE03A8FEF74FFE6420FEF75B
:104C500014FC85A000908548C7A29CA1836B03A883
:104C600001F0FAFD03A8FEF740FE6420FEF705FC04
:104C70007DA000907D48C3A29EA1C36B03A801F054
:104C8000EBFD03A8FEF731FE6420FEF7F6FBBFA0A4
:104C900000907648BEA2A1A1036C03A801F0DCFD40
:104CA00003A8FEF722FE6420FEF7E7FBBB4800687E
:104CB00001F0D8FB0546BAA0BAA2CDE90051029096
:104CC000BBA103A801F0C8FD03A8FEF70EFE4FF438
:104CD0007A70FEF7D2FB5EA0FEF707FE6420FEF7B7
:104CE000CCFBBBA000906148BAA2BDA1436C03A855
:104CF00001F0B2FD03A8FEF7F8FD6420FEF7BDFB4E
:104D0000BEA2C2A103A801F0A7FD03A8FEF7EDFD16
:104D10004FF47A70FEF7B1FB10B070BD10B5FEF71E
:104D2000FBFEFEF72AFFFEF7D4FFFFF70DF8FFF7B3
:104D300046F8FFF710F9FFF749F9FFF782F9FFF797
:104D400031FAFFF77DFAFFF7B4FAFFF763FDFFF7DB
:104D500056FCFFF7F1FDFFF760FE10BD2DE9704630
:104D6000002000F0B4FA044604F0080504F004063C
:104D700004F0020904F0010A082D01D0082F06D121
:104D80000120A8490860A8A001F056FD02E000201B
:104D9000A4490860042E02D0B8F1040F06D1012006
:104DA000A4490860A4A001F047FD02E00020A14949
:104DB0000860B9F1020F06D10120A2490860A2A043
:104DC00001F03AFD02E000209E490860BAF1010FAF
:104DD00006D101209F4908609FA001F02DFD02E04F
:104DE00000209C490860BDE8708670B503460C46FB
:104DF000002016E0802111E000F080051DB145067D
:104E0000280E504001E04506280E1D780D4005B1E2
:104E100050400D4601EBD576C6F347010029EBD192
:104E20005B1C251EA4F10106F4B2E3D170BD0000A5
:104E3000D4040020060500200E05002016050020E1
:104E40001E050020260500202E0500203605002026
:104E5000434C52283631293B0D0A00004449522860
:104E600031293B0D0A0000006D560000DC090020CE
:104E7000B5DAD2BBBDDAB5E7D1B93A004443563111
:104E80003628302C302C27257325642573272C33A6
:104E9000293B0D0A00000000B5DAB6FEBDDAB5E721
:104EA000D1B93A00444356313628302C32302C27C1
:104EB000257325642573272C33293B0D0A00000038
:104EC000B5DAC8FDBDDAB5E7D1B93A004443563189
:104ED0003628302C34302C27257325642573272C55
:104EE00033293B0D0A000000B5DACBC4BDDAB5E7C3
:104EF000D1B93A00444356313628302C36302C276D
:104F0000257325642573272C33293B0D0A000000E7
:104F1000B5DACEE5BDDAB5E7D1B93A00444356314A
:104F20003628302C38302C27257325642573272C00
:104F300033293B0D0A000000B5DAC1F9BDDAB5E747
:104F4000D1B93A00444356313628302C3130302C18
:104F500027257325642573272C33293B0D0A000070
:104F6000B5DAC6DFBDDAB5E7D1B93A00B5DAB0CB0C
:104F7000BDDAB5E7D1B93A00B5DABEC5BDDAB5E7F5
:104F8000D1B93A00D7DCB5E7D1B93A002500000025
:104F9000B5E7B3D8534F43CEAA3A000060050020CE
:104FA000A1E60000B5E7B3D8CEC2B6C8CEAA3A0093
:104FB000444356313628302C3130302C2725732588
:104FC0002E32662573272C33293B0D0A0000000082
:104FD0006D410000B5B1C7B0B5E7C1F7CEAA3A0040
:104FE000444356313628302C30302C272573256425
:104FF0002573272C33293B0D0A00000048574C4CE1
:105000004F20574F524C4420A3A100004443563137
:105010003628302C32302C272573272C33293B0D92
:105020000A000000740500207061636B2055560A69
:1050300000000000780500207061636B204F560A65
:10504000000000007C0500207061636B2053434426
:105050000A000000800500207061636B204F43440C
:105060000A00000008B501210820FCF7DDFE4FF41E
:105070008070ADF8000003208DF8020014208DF838
:1050800003006946F848FCF7F3FB4FF40070ADF8F5
:10509000000003208DF8020014208DF803006946FB
:1050A000F148FCF7E5FB08BD322001E0411EC8B223
:1050B0000028FBD1704710B54FF40071EA48FCF7A7
:1050C00084FC4FF48071E848FCF77FFCFFF7ECFFAD
:1050D0004FF40071E448FCF75EFC08B9002010BDF5
:1050E0004FF40071E048FCF772FCFFF7DDFF4FF46E
:1050F0000071DD48FCF74FFC08B10020EFE74FF4EA
:105100000071D948FCF763FCFFF7CEFF0120E6E70A
:1051100010B54FF48071D448FCF759FCFFF7C4FF79
:105120004FF40071D048FCF752FCFFF7BDFF4FF47D
:105130008071CD48FCF749FCFFF7B6FF4FF40071D2
:10514000C948FCF742FCFFF7AFFF10BD10B54FF4A4
:105150008071C548FCF73BFCFFF7A6FF4FF40071D8
:10516000C148FCF734FCFFF79FFF4FF48071BE4845
:10517000FCF72BFCFFF798FF4FF48071BA48FCF75F
:1051800026FCFFF791FF10BD10B54FF48071B648B3
:10519000FCF71DFCFFF788FF4FF40071B248FCF7E5
:1051A00014FCFFF781FF4FF48071AF48FCF70DFC52
:1051B000FFF77AFF4FF48071AB48FCF708FCFFF76C
:1051C00073FF10BD10B54FF48071A748FCF7FFFBCB
:1051D000FFF76AFF4FF40071A348FCF7F6FBFFF7F7
:1051E00063FF4FF48071A048FCF7EFFBFFF75CFF13
:1051F0004FF400719C48FCF7CEFB30B14FF4807146
:105200009948FCF7E4FB002010BD4FF480719648EC
:10521000FCF7DDFB0120F7E770B5044608251FE029
:105220004FF480719048FCF7D2FBFFF73DFF04F08C
:10523000800028B14FF400718B48FCF7C6FB04E0F6
:105240004FF400718848FCF7C2FB6006040EFFF7BC
:105250002BFF4FF480718448FCF7B7FBFFF724FF66
:10526000281EA5F10101CDB2DAD14FF480717E483C
:10527000FCF7ADFB70BD70B508250024A9017A4884
:10528000FCF7A3FB17E06006040E4FF4807176482C
:10529000FCF79DFBFFF708FF4FF480717248FCF7A5
:1052A00094FBFFF701FF4FF400716F48FCF773FBAD
:1052B00008B144F00104281EA5F10101CDB2E2D1EC
:1052C0004FF480716848FCF782FB204670BD70B5D2
:1052D00004460025FFF7EFFE1020FFF79DFFFFF7C4
:1052E00071FFE0B2FFF798FFFFF76CFFFFF7E3FEF7
:1052F0001120FFF791FFFFF765FFFFF7BCFF0546A1
:10530000FFF706FF284670BD2DE9F04107460C4621
:105310000026002509E036023919491B491E88B2CA
:10532000FFF7D5FF0644681CC5B2A542F3DB304643
:10533000BDE8F08170B504460E46FFF7BCFE254679
:10534000E11704EB11610912102202EB4101C8B20E
:10535000FFF762FFFFF736FFE11704EB1161091257
:10536000A4EB0121C8B2FFF757FFFFF72BFF304630
:10537000FFF752FFFFF726FFFFF7CAFE0A20FEF7EE
:105380007CF870BD2DE9F04105460E461746002415
:1053900009E0E20046FA02F2D1B22A1990B2FFF710
:1053A000C9FF601CC4B2BC42F3DBBDE8F08138B574
:1053B00004460D4610208DF80000E0B28DF8010083
:1053C000E8B28DF80200072203216846FFF70DFDC1
:1053D000C0B28DF80300FFF76EFE9DF80000FFF7E6
:1053E0001BFFFFF7EFFE9DF80100FFF715FFFFF72A
:1053F000E9FE9DF80200FFF70FFFFFF7E3FE9DF8BF
:105400000300FFF709FFFFF7DDFEFFF781FE0A202B
:10541000FEF733F838BD70B506460C461546FFF763
:105420004AFE08B9002070BD04F4E06145EAE111CC
:105430004FF6FE7201EA0200FFF7EEFEFFF7C2FE32
:1054400018B9FFF765FE0020EDE7E0B2FFF7E4FED4
:10545000FFF7B8FE3046FFF7DFFEFFF7B3FEFFF7BA
:1054600057FE0120DFE70000000C01402DE9F0416C
:1054700006460C4615461F46FFF71DFE10B90020D4
:10548000BDE8F08105F4E06147EAE1114FF6FE72F4
:1054900001EA0200FFF7C0FEFFF794FE18B9FFF71C
:1054A00037FE0020ECE7E8B2FFF7B6FEFFF78AFE12
:1054B000FFF701FE05F4E06147EAE11141F0010068
:1054C000FFF7AAFEFFF77EFE0CE0FFF7D4FE307078
:1054D000012C02D1FFF758FE01E0FFF737FE761CE2
:1054E000601E84B2002CF0D1FFF712FE0120C7E746
:1054F00008B501210C20FCF797FC0120ADF8000055
:1055000010208DF8030003208DF8020069464E48F4
:10551000FCF7AEF90220ADF8000010208DF8030072
:1055200003208DF8020069464748FCF7A1F94FF4C3
:105530008070ADF8000010208DF8030003208DF876
:10554000020069464048FCF793F94FF48050ADF8EB
:10555000000010208DF8030003208DF8020069463A
:105560003A48FCF785F9012211033848FCF731FA73
:105570000220ADF8000010208DF8030003208DF804
:10558000020069463148FCF773F90420ADF80000C9
:1055900010208DF8030003208DF8020069462B4887
:1055A000FCF766F901210846FCF73EFC012128487A
:1055B000FCF72FFA4FF48050ADF8000010208DF862
:1055C000030003208DF8020069461F48FCF750F9DC
:1055D00000224FF480511C48FCF7FBF90820ADF87D
:1055E000000010208DF8030003208DF802006946AA
:1055F0001648FCF73DF9002208211448FCF7E9F9A8
:105600001020ADF800008DF8030003208DF8020093
:1056100069460E48FCF72CF9002210210B48FCF7D4
:10562000D8F92020ADF8000010208DF803000320E9
:105630008DF8020069460548FCF71AF9002220217E
:105640000248FCF7C6F908BD00080140000C014003
:105650000002300008B54FF4A060FBF765F81C208D
:105660008DF8000001208DF8010000208DF8020067
:1056700001208DF803006846FBF75BF84FF4A0604B
:10568000FBF752F81D208DF8000002208DF8010074
:1056900000208DF8020001208DF803006846FBF71A
:1056A00048F808BD3EB505460C4601210846FCF702
:1056B000C8FB4FF08040FCF71BFC4FF08040FDF72B
:1056C0007BF8ADF80450ADF800400020ADF80600BE
:1056D000ADF8020069464FF08040FCF7DDFC012187
:1056E0008807FDF7FBFA00214FF08040FDF730F905
:1056F000012211469007FDF746F801218807FDF7C2
:1057000027F8FFF7A7FF3EBD3EB505460C46012131
:105710000220FCF796FB1248FCF7EAFB1048FDF765
:105720004BF8ADF80450ADF800400020ADF806008D
:10573000ADF8020069460A48FCF7AEFC01210848B2
:10574000FDF7CCFA00210648FDF702F901221146C7
:105750000348FDF718F801210148FCF7F9FF3EBDA9
:105760000004004070B505460C4645F25550FCF764
:10577000CDF92846FCF7CDF92046FCF7CDF9FCF72A
:10578000CEF9FCF7D1F970BD10B5FCF7C8F910BD22
:105790001FB50020ADF80400ADF80600ADF8080014
:1057A0000C20ADF80A000020ADF80C000121FE48E5
:1057B000FDF77BFB01218803FCF736FB4FF4165005
:1057C00000906946F848FDF7E4FA012240F22551BD
:1057D000F548FDF776FB0121F348FDF766FB00BFB6
:1057E000F148008800F080000028F9D00D20EE4933
:1057F000091D088000BFEC48008800F080000028E8
:10580000F9D00A20E849091D08801FBD70B503467C
:105810000C4603B10CB9002070BD012A50D1002103
:105820004BE0585C632810D900BFDF48008800F0C7
:1058300080000028F9D0585C6425B0FBF5F03030CA
:10584000C0F30800D84D2D1D2880585C092815D9B3
:1058500000BFD548008800F080000028F9D0585CCF
:105860006425B0FBF5F605FB16000A25B0FBF5F044
:105870003030C0F30800CC4D2D1D288000BFCA4831
:10588000008800F080000028F9D0585C0A25B0FBA1
:10589000F5F605FB16003030C0F30800C24D2D1D93
:1058A000288000BFC048008800F080000028F9D0A0
:1058B0002020BD4D2D1D2880491CA142B1D35DE0A3
:1058C000022A4BD1002146E000BFB748008800F013
:1058D00080000028F9D0585C0925B5EB201F0AD2BA
:1058E000585C0A25C5EB20104130C0F30800AE4DCE
:1058F0002D1D288006E0585C302505EB2010AA4DB0
:105900002D1D288000BFA848008800F080000028D6
:10591000F9D0585C00F00F00092809D9585C00F054
:105920000F003730C0F308009F4D2D1D288006E082
:10593000585C00F00F0030309B4D2D1D288000BFBB
:105940009948008800F080000028F9D02020964D6A
:105950002D1D2880491CA142B6D30FE000210BE089
:1059600000BF9148008800F080000028F9D0585C02
:105970008D4D2D1D2880491CA142F1D301204BE7FC
:105980008A490870704789480078704700B587B029
:1059900001218748FCF748FA0420ADF818000320DD
:1059A0008DF81A0018208DF81B0006A98148FBF716
:1059B0005FFF0820ADF8180004208DF81B0006A931
:1059C0007C48FBF755FF26208DF8040002208DF857
:1059D000050003208DF8060001208DF8070001A8BE
:1059E000FAF7A7FE0020ADF80C00ADF80E00ADF8F8
:1059F00010000C20ADF812000020ADF814000121B9
:105A00006D48FDF752FA01214804FCF71AFA4FF4E9
:105A10001650029002A96848FDF7BBF9012240F236
:105A200025516548FDF74DFA01216348FDF73DFA20
:105A300000BF6148008800F080000028F9D00D20E8
:105A40005D49091D088000BF5B48008800F08000A8
:105A50000028F9D00A205849091D088007B000BD68
:105A600070B503460C4603B10CB9002070BD012A85
:105A700050D100214BE0585C632810D900BF4E483C
:105A8000008800F080000028F9D0585C6425B0FB45
:105A9000F5F03030C0F30800474D2D1D2880585CCC
:105AA000092815D900BF4448008800F0800000286C
:105AB000F9D0585C6425B0FBF5F605FB16000A2505
:105AC000B0FBF5F03030C0F308003B4D2D1D2880B1
:105AD00000BF3948008800F080000028F9D0585CE9
